:100000000C9462000C94B9060C9492060C947F0038
:100010000C947F000C947F000C947F000C94C60518
:100020000C947F000C947F000C947F000C947F0054
:100030000C947F000C947F000C947F000C947F0044
:100040000C9448060C947F000C947F000C947F0065
:100050000C947F000C947F000C947F000C947F0024
:100060000C947F000C947F00000000002300260009
:10007000290000000000240027002A0000000000E2
:10008000250028002B0004040404040404040202D4
:100090000202020203030303030301020408102007
:1000A0004080010204081020010204081020000012
:1000B0000008000201000003040700000000000027
:1000C0000000020011241FBECFEFD8E0DEBFCDBF7D
:1000D00011E0A0E0B1E0E6EBF2E102C005900D9284
:1000E000AE30B107D9F721E0AEE0B1E001C01D921A
:1000F000AC33B207E1F70E94E0060C9459090C9466
:100100000000833081F028F4813099F08230A1F032
:1001100008958730A9F08830B9F08430D1F4809107
:1001200080008F7D03C0809180008F778093800056
:10013000089584B58F7702C084B58F7D84BD0895FE
:100140008091B0008F7703C08091B0008F7D809345
:10015000B00008951F93CF93DF93282F30E0F9016B
:10016000E255FF4F8491F901E656FF4FD491F90112
:10017000EA57FF4FC491CC23C9F0162F81110E947A
:100180008100EC2FF0E0EE0FFF1FE458FF4FA59128
:10019000B4918FB7F894111105C09C91ED2FE095A3
:1001A000E92302C0EC91ED2BEC938FBFDF91CF914F
:1001B0001F910895CF93DF9390E0FC01E656FF4F27
:1001C0002491FC01EA57FF4F8491882361F190E06C
:1001D000880F991FFC01EE58FF4FC591D491FC0187
:1001E000E458FF4FA591B491611109C09FB7F894ED
:1001F0008881209582238883EC912E230BC0623066
:1002000061F49FB7F8943881822F80958323888387
:10021000EC912E2B2C939FBF06C08FB7F894E881EA
:100220002E2B28838FBFDF91CF9108951F93CF93FB
:10023000DF93182FEB0161E00E94DA00209711F4A0
:1002400060E004C0CF3FD10539F461E0812FDF9138
:10025000CF911F910C94AA00E12FF0E0E255FF4FDF
:10026000E491E330F9F048F4E130B9F0E230A1F57F
:1002700084B5806284BDC8BD34C0E730E9F0E830A1
:1002800019F1E43049F5809180008062809380000C
:10029000D0938B00C0938A0024C084B5806884BD4D
:1002A000C7BD1FC080918000806880938000D0937C
:1002B0008900C093880015C08091B0008068809349
:1002C000B000C093B3000DC08091B00080628093F5
:1002D000B000C093B40005C0C038D1050CF0B5CF54
:1002E000AFCFDF91CF911F9108953FB7F8948091E0
:1002F000260190912701A0912801B091290126B5EE
:10030000A89B05C02F3F19F00196A11DB11D3FBF4D
:10031000BA2FA92F982F8827820F911DA11DB11DDB
:10032000BC01CD0142E0660F771F881F991F4A95D7
:10033000D1F708958F929F92AF92BF92CF92DF92A2
:10034000EF92FF926B017C010E9475014B015C01F1
:10035000C114D104E104F104F1F00E947501DC0143
:10036000CB0188199909AA09BB09883E9340A105C8
:10037000B10570F321E0C21AD108E108F10888EE56
:10038000880E83E0981EA11CB11CC114D104E104A5
:10039000F10419F7DDCFFF90EF90DF90CF90BF9081
:1003A000AF909F908F90089508952F923F924F9213
:1003B0005F926F927F928F929F92AF92BF92CF92F5
:1003C000DF92EF92FF920F931F93CF93DF938C01F5
:1003D000D091B0003090B1002090B3008091000126
:1003E000883021F08F3F09F0ACC104C0E2ECF0E0AE
:1003F000C49172C088E080930001E2ECF0E0C49107
:10040000CF3F09F49EC1C13009F1C23009F441C0A7
:10041000C11162C014BC15BC84B5826084BD85B5B1
:10042000816085BDEEE8F0E0E491F0E0EE0FFF1FA3
:10043000E458FF4F85919491909318018093170190
:10044000E2EAF0E0E491E093160148C010928000E7
:10045000109281008091810088608093810080915A
:100460008100816080938100EEE8F0E0E491F0E0AB
:10047000EE0FFF1FE458FF4F859194919093150163
:1004800080931401E2EAF0E0E491E0931301C1E00B
:1004900025C01092B0001092B1008091B00082602F
:1004A0008093B0008091B10081608093B100EEE84C
:1004B000F0E0E491F0E0EE0FFF1FE458FF4F85916C
:1004C000949190932B0180932A01E2EAF0E0E49169
:1004D000E0932C01C2E002C0C7FD33C161E088E0B7
:1004E0000E94DA004801A12CB12C8C2F8D7F09F0DD
:1004F000B6C060E072E18AE790E0A50194010E9435
:100500002B0929013A0169017A0121E0C21AD108B7
:10051000E108F1088FEFC816D104E104F10409F0F5
:1005200008F44BC060E472E48FE090E0A501940110
:100530000E942B0969017A0181E0C81AD108E108FB
:10054000F108C23001F52FEFC216D104E104F10425
:1005500009F008F46FC160E970ED83E090E0A50157
:1005600094010E942B0969017A0181E0C81AD1081F
:10057000E108F1082FEFC216D104E104F10409F0FB
:10058000C0F583E065C08FEFC816D104E104F10423
:10059000B1F0A8F068E478EE81E090E0A501940164
:1005A0000E942B0969017A0181E0C81AD108E1088B
:1005B000F108CC2309F4E6C034C181E001C082E037
:1005C000CC2391F045C0D301C2012AE0B595A7958F
:1005D000979587952A95D1F76C017D0121E0C21A84
:1005E000D108E108F10885E095B5987F892B85BD94
:1005F00065C068E478EE81E090E0A50194010E9476
:100600002B0969017A0181E0C81AD108E108F108D3
:100610002FEFC216D104E104F10409F008F4B0C0D0
:1006200064E274EF80E090E0A50194010E942B0940
:1006300069017A0181E0C81AD108E108F1082FEFB9
:10064000C216D104E104F10411F008F0BDC085E048
:100650009091B100987F892B8093B1002FC060E00A
:1006600072E18AE790E0A50194010E942B096901DB
:100670007A0181E0C81AD108E108F108C114D10457
:1006800021E0E206F10488F068E478EE81E090E091
:10069000A50194010E942B0969017A0181E0C81A21
:1006A000D108E108F10893E001C091E0C13031F4D4
:1006B00080918100887F892B809381009801220F8F
:1006C000331FACE2B1E00E944A0928EE33E040E07B
:1006D00050E00E940909C13099F0C23019F1C111EE
:1006E00030C0C7BC20931D0130931E0140931F01F1
:1006F0005093200180916E00826080936E0021C033
:10070000D0928900C09288002093190130931A0179
:1007100040931B0150931C0180916F008260809375
:100720006F000FC0C092B30020932D0130932E01B3
:1007300040932F015093300180917000826080932C
:1007400070006CE271E080E090E00E949A01D0932A
:10075000B0003092B1002092B300DF91CF911F9191
:100760000F91FF90EF90DF90CF90BF90AF909F9050
:100770008F907F906F905F904F903F902F90089553
:1007800084E066CF8FEFC816D104E104F104D1F004
:10079000C8F062E17AE780E090E0A50194010E9450
:1007A0002B0969017A0181E0C81AD108E108F10832
:1007B0002FEFC216D104E104F10411F008F003CFC9
:1007C00084E012CF83E010CF62E17AE780E090E02E
:1007D000A50194010E942B0969017A0181E0C81AE0
:1007E000D108E108F1082FEFC216D104E104F104A9
:1007F000B1F0A8F0D301C2015AE0B595A79597953D
:1008000087955A95D1F76C017D0121E0C21AD10874
:10081000E108F108CC2309F4E6CE87E019CF86E0A1
:10082000CFCE8FEFC816D104E104F10409F060F6D1
:1008300084E0C6CE82E00CCF0F931F93CF93DF935B
:10084000EB01880F991F6F3F710509F03CF461308F
:100850002FEF72077CF077FF03C00EC0CFEFD0E020
:100860008C01095F1E4F61E0F80181810E94AA009E
:10087000BE010EC0C1E0DFEF8C01095F1E4F60E0DA
:10088000F80181810E94AA00662777276C1B7D0BE7
:10089000F8018081DF91CF911F910F910C94160187
:1008A000CF93DF9320913B0140913B0127FD0CC08A
:1008B00046039001479F300D1124232F330F330B34
:1008C000EB01621B730B11C0552741950CF4509539
:1008D000469F9001479F300D569F300D1124232FC6
:1008E000330F330BEB01C21BD30B82309105B1F0F8
:1008F0005CF40097F9F0019759F580E090E00E94D0
:100900001C0460E070E01EC08430910569F04CF07A
:100910000597F1F47195619571090CC060E070E084
:1009200009C071956195710980E090E00E941C04F6
:10093000BE0108C080E090E00E941C046627772773
:100940006C1B7D0B81E090E0DF91CF910C941C0437
:10095000DF91CF9108950F931F93CF93DF93E0EB37
:10096000F0E08491ECE9F0E0D491E8E8F0E0C491A3
:10097000CC2379F081110E948100EC2FF0E0EE0F82
:10098000FF1FE859FF4FA591B491EC91ED2381E051
:1009900009F480E0C1E0C8270E947501AB01BC01E9
:1009A0008091310190913201A0913301B0913401D5
:1009B0008A019B01081B190B2A0B3B0BD901C801AB
:1009C0000097A140B10568F4809131019091320106
:1009D000A0913301B09134019A01281B390BC90150
:1009E00002C08FEF9FEF409331015093320160932B
:1009F00033017093340120913501223061F028F4E5
:100A0000222349F0213069F409C0243021F030F06C
:100A1000253039F403C0C11104C0B1C0C13009F49C
:100A2000AAC0209135012230C1F028F4222359F0C8
:100A3000213059F0A6C0243009F464C008F12530F3
:100A400009F49DC09EC081E097C08D559A418739B9
:100A5000914108F094C082E08FC09C012E523D402D
:100A60002D3C384008F087C010920F011092100101
:100A7000109211011092120110920E0183E07CC0BD
:100A8000835A91408B31914008F079C080910E01DA
:100A90008032B0F180910F0190911001A09111016D
:100AA000B091120140910F0150911001609111011C
:100AB00070911201892F9A2FAB2FBB27842795277E
:100AC000A627B7279927BB278F3F9105AF4FB105C1
:100AD00009F055C080910F0190911001A091110172
:100AE000B09112019927BB2780933601909337016B
:100AF000A0933801B093390181E080933A013FC05F
:100B000084E03AC023E02093350140910F015091D9
:100B100010016091110170911201769567955795BA
:100B2000479540930F01509310016093110170930A
:100B3000120120910E012F5F20930E019C01235F73
:100B400034402F34334090F480910F019091100184
:100B5000A0911101B0911201B06880930F019093A0
:100B60001001A0931101B09312010BC0835A914060
:100B70008B31914030F085E08093350102C01092B6
:100B80003501DF91CF911F910F9108951F920F9220
:100B90000FB60F9211242F933F934F935F936F9350
:100BA0007F938F939F93AF93BF93EF93FF93809126
:100BB0002D0190912E01A0912F01B0913001892B30
:100BC0008A2B8B2B59F180912C01E0912A01F09115
:100BD0002B0190818927808380912D0190912E0196
:100BE000A0912F01B0913001181619061A061B06A4
:100BF0000CF03DC080912D0190912E01A0912F010C
:100C0000B09130010197A109B10980932D01909312
:100C10002E01A0932F01B093300129C080910001D3
:100C2000E2ECF0E0E4919FEF90930001E130B9F045
:100C300098F0E230C9F4909170009D7F909370001D
:100C400091E09093B0009091B100987F9460909360
:100C5000B1001092B30008C010926E0005C09091D0
:100C60006F009D7F90936F0060E00E94AA00FF914B
:100C7000EF91BF91AF919F918F917F916F915F9114
:100C80004F913F912F910F900FBE0F901F9018958D
:100C90001F920F920FB60F9211242F933F938F93B1
:100CA0009F93AF93BF938091220190912301A091D4
:100CB0002401B09125013091210123E0230F2D372C
:100CC00020F40196A11DB11D05C026E8230F029650
:100CD000A11DB11D20932101809322019093230136
:100CE000A0932401B09325018091260190912701C2
:100CF000A0912801B09129010196A11DB11D8093F9
:100D0000260190932701A0932801B0932901BF9158
:100D1000AF919F918F913F912F910F900FBE0F90A8
:100D20001F9018951F920F920FB60F9211242F93B8
:100D30003F934F935F936F937F938F939F93AF9363
:100D4000BF93EF93FF93E0910301F09104010995A4
:100D5000FF91EF91BF91AF919F918F917F916F9193
:100D60005F914F913F912F910F900FBE0F901F9069
:100D700018951F920F920FB60F9211242F933F9345
:100D80004F935F936F937F938F939F93AF93BF9393
:100D9000EF93FF93E0910101F09102010995FF911A
:100DA000EF91BF91AF919F918F917F916F915F91E3
:100DB0004F913F912F910F900FBE0F901F9018955C
:100DC000CF93DF931F92CDB7DEB7789484B582605E
:100DD00084BD84B5816084BD85B5826085BD85B5DF
:100DE000816085BD80916E00816080936E0010925D
:100DF00081008091810082608093810080918100D8
:100E00008160809381008091800081608093800068
:100E10008091B10084608093B1008091B0008160C6
:100E20008093B00080917A00846080937A008091F2
:100E30007A00826080937A0080917A00816080934A
:100E40007A0080917A00806880937A001092C100C5
:100E500061E084E00E94DA0061E087E00E94DA004D
:100E600061E08CE00E94DA0061E088E00E94DA0034
:100E700061E08DE00E94DA0083E084BD85BD91E0F1
:100E8000909380009BE0909381008093B00084E079
:100E90008093B10060E082E00E94DA008BEA94E087
:100EA0009093020180930101809169008C7F8160A1
:100EB00080936900E89A10923501109236011092E1
:100EC0003701109238011092390110923A0180E0F6
:100ED00090E00E94F30880933B0186E091E00E943D
:100EE000D50186E291E00E94D5018AE491E00E945A
:100EF000D50188EE282E312C9AEB492E512C25E76E
:100F0000622E712C01ED10E037E4E32EF12C4EE55A
:100F1000C42ED12C53EAA52EB12C6CE8862E912C30
:100F20008091360190913701A0913801B09139013B
:100F3000892B8A2B8B2BD1F080913501811116C022
:100F40000E947501209131013091320140913301AD
:100F500050913401DC01CB01821B930BA40BB50B28
:100F6000803B9D4AA140B10508F031C18091360116
:100F700090913701A0913801B091390120913A0147
:100F800010923A018A2F90E0922B90FF19C1992775
:100F90008034910509F4C0C084F58C30910509F4C2
:100FA000D2C094F48830910509F4DFC089309105EE
:100FB00009F4C0C0079709F0F3C060910501709172
:100FC000060181E090E0BCC08831910509F4C4C0FD
:100FD00024F4459709F4A0C0E3C08931910509F4D0
:100FE000A2C04C9709F0DCC088E891E00E94D501CE
:100FF000B0920601A0920501E3C08634910509F480
:101000005AC0D4F48334910509F479C06CF4823465
:10101000910509F0C5C08EEE91E00E94D5011093B4
:10102000060100930501CCC08434910509F462C027
:101030008534910531F1B4C08235910509F4A7C01A
:101040007CF48A34910509F0ABC08BE492E00E94F5
:10105000D5018FEF90E09093060180930501B0C019
:101060008A35910509F48AC08E35910509F098C03A
:101070008AE491E00E94D501709206016092050118
:101080009FC080913B018038D1F080913B0181501D
:1010900080933B0160913B0180E090E069830E9476
:1010A000F3086981681721F080E090E00E94FB0856
:1010B00086E091E01CC080913B018F3719F480934A
:1010C0003B017EC080913B018F5F80933B0160912B
:1010D0003B0180E090E069830E94F3086981681712
:1010E00021F080E090E00E94FB0886E291E00E94FF
:1010F000D50166C0609105017091060107C060913D
:1011000005017091060171956195710982E090E089
:101110000E941C0461E051C06091050170910601BC
:1011200080E090E00DC0609105017091060183E0C0
:1011300090E006C0609105017091060182E090E0A8
:101140000E945004E7CF86E091E00E94D501F09222
:101150000601E092050134C086E291E00E94D501CB
:10116000D0920601C09205012BC08DE591E00E944E
:10117000D501909206018092050122C088EB91E092
:101180000E94D501509206014092050119C08BE0E2
:1011900092E00E94D501309206012092050110C014
:1011A00060E070E080E090E00E94500460E070E059
:1011B00082E090E00E941C0460E08DE00E94AA00A2
:1011C00062E370E080E090E00E949A01A9CE109264
:1011D000360110923701109238011092390191E0D6
:1011E00090933A01C3CEF999FECF92BD81BDF89A92
:1011F000992780B50895262FF999FECF1FBA92BD81
:1012000081BD20BD0FB6F894FA9AF99A0FBE0196E7
:101210000895A1E21A2EAA1BBB1BFD010DC0AA1F37
:10122000BB1FEE1FFF1FA217B307E407F50720F04F
:10123000A21BB30BE40BF50B661F771F881F991FCA
:101240001A9469F760957095809590959B01AC0113
:10125000BD01CF010895052E97FB1EF400940E9456
:10126000420957FD07D00E94090907FC03D04EF43C
:101270000C94420950954095309521953F4F4F4F22
:101280005F4F089590958095709561957F4F8F4F32
:101290009F4F0895A29FB001B39FC001A39F700DFF
:1012A000811D1124911DB29F700D811D1124911D6E
:0612B0000895F894FFCF41
:0E12B600FFD401D401FF00050406070B0C0055
:107E0000112484B714BE81FFF0D085E080938100F7
:107E100082E08093C00088E18093C10086E0809377
:107E2000C20080E18093C4008EE0C9D0259A86E02C
:107E300020E33CEF91E0309385002093840096BBD3
:107E4000B09BFECF1D9AA8958150A9F7CC24DD24C4
:107E500088248394B5E0AB2EA1E19A2EF3E0BF2EE7
:107E6000A2D0813461F49FD0082FAFD0023811F036
:107E7000013811F484E001C083E08DD089C08234E0
:107E800011F484E103C0853419F485E0A6D080C0E4
:107E9000853579F488D0E82EFF2485D0082F10E0AE
:107EA000102F00270E291F29000F111F8ED06801E7
:107EB0006FC0863521F484E090D080E0DECF843638
:107EC00009F040C070D06FD0082F6DD080E0C81688
:107ED00080E7D80618F4F601B7BEE895C0E0D1E017
:107EE00062D089930C17E1F7F0E0CF16F0E7DF06D8
:107EF00018F0F601B7BEE89568D007B600FCFDCFD4
:107F0000A601A0E0B1E02C9130E011968C91119780
:107F100090E0982F8827822B932B1296FA010C0160
:107F200087BEE89511244E5F5F4FF1E0A038BF0790
:107F300051F7F601A7BEE89507B600FCFDCF97BE46
:107F4000E89526C08437B1F42ED02DD0F82E2BD052
:107F50003CD0F601EF2C8F010F5F1F4F84911BD097
:107F6000EA94F801C1F70894C11CD11CFA94CF0C13
:107F7000D11C0EC0853739F428D08EE10CD085E9AC
:107F80000AD08FE07ACF813511F488E018D01DD067
:107F900080E101D065CF982F8091C00085FFFCCF94
:107FA0009093C60008958091C00087FFFCCF809118
:107FB000C00084FD01C0A8958091C6000895E0E648
:107FC000F0E098E1908380830895EDDF803219F02E
:107FD00088E0F5DFFFCF84E1DECF1F93182FE3DFCA
:107FE0001150E9F7F2DF1F91089580E0E8DFEE27F6
:047FF000FF270994CA
:027FFE00040479
:0400000300007E007B
:00000001FF
