:100000000C946A000C94B5070C948E070C94920023
:100010000C9492000C9492000C9492000C94DC07C7
:100020000C9492000C9492000C9492000C94920008
:100030000C9492000C9492000C9492000C949200F8
:100040000C9444070C9492000C9492000C9492002F
:100050000C9492000C9492000C9492000C949200D8
:100060000C9492000C949200800584058005840510
:100070008005840587050000000023002600290074
:100080000200000000240027002A000000000025D4
:100090000028002B000404040404040404020202E7
:1000A00002020203030303030301020408102040B9
:1000B0008001020408102001020408102000000042
:1000C0000800020100000304070000000000000017
:1000D0000000180B11241FBECFEFD8E0DEBFCDBF4C
:1000E00011E0A0E0B1E0E0E8F7E102C005900D9278
:1000F000AC32B107D9F721E0ACE2B1E001C01D920A
:10010000AE36B207E1F710E0CAE6D0E004C02197AE
:10011000FE010E94960BC936D107C9F70E945E08FE
:100120000C94BE0B0C940000833081F028F48130D5
:1001300099F08230A1F008958730A9F08830B9F0A5
:100140008430D1F4809180008F7D03C08091800045
:100150008F7780938000089584B58F7702C084B52F
:100160008F7D84BD08958091B0008F7703C080910A
:10017000B0008F7D8093B00008951F93CF93DF93DD
:10018000282F30E0F901E354FF4F8491F901E7553E
:10019000FF4FD491F901EB56FF4FC491CC23C1F02E
:1001A000162F81110E949400EC2FF0E0EE0FFF1F3C
:1001B000E557FF4FA591B4919FB7F894111104C072
:1001C0008C91D095D82302C0EC91DE2BDC939FBF9D
:1001D000DF91CF911F910895CF93DF9390E0FC01C1
:1001E000E755FF4F2491FC01EB56FF4F8491882384
:1001F00061F190E0880F991FFC01EF57FF4FC59107
:10020000D491FC01E557FF4FA591B491611109C04C
:100210009FB7F8948881209582238883EC912E23C0
:100220000BC0623061F49FB7F8948881322F30950B
:1002300083238883EC912E2B2C939FBF06C08FB70E
:10024000F894E8812E2B28838FBFDF91CF910895FA
:100250001F93CF93DF93182FEB0161E00E94EC0016
:10026000209711F460E004C0CF3FD10539F461E07C
:10027000812FDF91CF911F910C94BD00E12FF0E011
:10028000E354FF4FE491E330F9F048F4E130B9F082
:10029000E230A1F584B5806284BDC8BD34C0E730CA
:1002A000E9F0E83019F1E43049F58091800080628E
:1002B00080938000D0938B00C0938A0024C084B5C3
:1002C000806884BDC7BD1FC0809180008068809316
:1002D0008000D0938900C093880015C08091B00041
:1002E00080688093B000C093B3000DC08091B000CF
:1002F00080628093B000C093B40005C0C038D105BF
:100300000CF0B5CFAFCFDF91CF911F9108953FB7DC
:10031000F89480916A0190916B01A0916C01B09169
:100320006D0126B5A89B05C02F3F19F00196A11DB0
:10033000B11D3FBFBA2FA92F982F8827820F911D7B
:10034000A11DB11DBC01CD0142E0660F771F881FC2
:10035000991F4A95D1F708958F929F92AF92BF92BD
:10036000CF92DF92EF92FF926B017C010E94870196
:100370004B015C01C114D104E104F104F1F00E94CD
:100380008701DC01CB0188199909AA09BB09883EBC
:100390009340A105B10570F321E0C21AD108E1082C
:1003A000F10888EE880E83E0981EA11CB11CC114D0
:1003B000D104E104F10419F7DDCFFF90EF90DF9055
:1003C000CF90BF90AF909F908F9008952FB7F894E3
:1003D0006091660170916701809168019091690157
:1003E0002FBF089508950F931F93CF93DF938B0131
:1003F0008330910511F58091400181110BC081E09E
:100400008093400161E089E00E94EC0061E08AE0B5
:100410000E94EC0061E0101611060CF060E089E02B
:100420000E94BD00612F661F6627661F8AE0DF916C
:10043000CF911F910F910C94BD00EC01CC0FDD1FEB
:100440006F3F710509F03CF461308FEF78076CF075
:1004500077FF03C00CC00FEF10E0CB5DDE4F61E013
:1004600089810E94BD00B8010CC001E01FEFCB5D87
:10047000DE4F60E089810E94BD0066277727601B00
:10048000710B8881DF91CF911F910F910C942801FE
:10049000CF93DF93EC01FB018091640187FD1CC0C9
:1004A00080916401082E000C990BAA0BBB0B40E055
:1004B00051E060E070E09A01AB01281B390B4A0B58
:1004C0005B0BDF010E94AB0BBB2797FDBA95A92FF1
:1004D000982F872FFC0116C020916401822F220FD4
:1004E000990BAA0BBB0B9C01AD013F5F4F4F5F4FB8
:1004F000DE010E94AB0BBB2797FDBA95A92F982F61
:10050000872FEC01BF0180E090E00E94F301662795
:1005100077276C1B7D0B81E090E0DF91CF910C94ED
:10052000F3019B01880F991F880F991FFC01E95F58
:10053000FE4F82819381289FB001299F700D389FC3
:10054000700D112480819181AC01249FC001259FF1
:10055000900D349F900D11240C9448022F923F92DD
:100560004F925F926F927F928F929F92AF92BF92C3
:10057000CF92DF92EF92FF920F931F93CF93DF936F
:100580008C01D091B0003090B1002090B3008091E8
:100590000001883021F08F3F09F09AC104C0E0E8E3
:1005A000F0E0C4916FC088E080930001E0E8F0E0E3
:1005B000C491CF3F09F48CC1C13009F440C030F17F
:1005C000C23009F05FC01092B0001092B10080916B
:1005D000B00082608093B0008091B1008160809310
:1005E000B100EDE9F0E0E491F0E0EE0FFF1FE55718
:1005F000FF4F859194919093490180934801E1EBDD
:10060000F0E0E491E0934A01C2E0EBC114BC15BCF8
:1006100084B5826084BD85B5816085BDEDE9F0E07B
:10062000E491F0E0EE0FFF1FE557FF4F85919491A5
:10063000E1EBF0E0E491E0932D01C0E0D2C1109233
:1006400080001092810080918100886080938100F9
:1006500080918100816080938100EDE9F0E0E49178
:10066000F0E0EE0FFF1FE557FF4F85919491E1EB0E
:10067000F0E0E491E0932C0161E088E00E94EC005E
:10068000C1E0B1C0C7FD24C161E088E00E94EC0078
:100690008C2F8D7F09F0A7C04801A12CB12C60E000
:1006A00072E18AE790E0A50194010E94770B29018D
:1006B0003A0169017A0121E0C21AD108E108F10882
:1006C0008FEFC816D104E104F10409F008F44BC01F
:1006D00060E472E48FE090E0A50194010E94770B42
:1006E00069017A0181E0C81AD108E108F108C23035
:1006F00001F52FEFC216D104E104F10409F008F46A
:1007000008C160E970ED83E090E0A50194010E94CA
:10071000770B69017A0181E0C81AD108E108F10874
:100720002FEFC216D104E104F10409F030F583E0A3
:1007300053C08FEFC816D104E104F104B1F0A8F062
:1007400068E478EE81E090E0A50194010E94770BC7
:1007500069017A0181E0C81AD108E108F108CC23C7
:1007600009F40CC102C181E001C082E0C11134C0B2
:1007700095B5987F892B85BD68C068E478EE81E0E7
:1007800090E0A50194010E94770B69017A0181E054
:10079000C81AD108E108F1082FEFC216D104E1040C
:1007A000F10409F008F4B3C064E274EF80E090E073
:1007B000A50194010E94770B69017A0181E0C81AB2
:1007C000D108E108F1082FEFC216D104E104F104C9
:1007D00011F008F0A0C085E09091B100987F892BBE
:1007E0008093B10032C04801A12CB12C60E072E1CD
:1007F0008AE790E0A50194010E94770B69017A01D4
:1008000081E0C81AD108E108F108C114D10421E03F
:10081000E206F10488F068E478EE81E090E0A5015A
:1008200094010E94770B69017A0181E0C81AD1080E
:10083000E108F10883E001C081E0C13031F490911A
:100840008100987F892B809381009801220F331FAC
:10085000ACE2B1E00E949C0B28EE33E040E050E0B7
:100860000E94550BC13099F0C23019F1C11130C04E
:10087000C7BC20933201309333014093340150932D
:10088000350180916E00826080936E0021C0D0920D
:100890008900C092880020932E0130932F0140934D
:1008A00030015093310180916F00826080936F001E
:1008B0000FC0C092B30020934B0130934C01409382
:1008C0004D0150934E0180917000826080937000C2
:1008D0006CE271E080E090E00E94AC01D093B00047
:1008E0003092B1002092B300DF91CF911F910F9110
:1008F000FF90EF90DF90CF90BF90AF909F908F9040
:100900007F906F905F904F903F902F90089584E07C
:1009100063CF82E061CF62E17AE780E090E0A501F9
:1009200094010E94770B69017A0181E0C81AD1080D
:10093000E108F1088FEFC816D104E104F10499F041
:1009400090F0D301C2012AE0B595A79597958795B8
:100950002A95D1F76C017D0121E0C21AD108E10886
:10096000F10887E039CF86E037CF2FEFC216D104E8
:10097000E104F10409F078F684E0F8CE8FEFC816B0
:10098000D104E104F10459F150F162E17AE780E029
:1009900090E0A50194010E94770B69017A0181E042
:1009A000C81AD108E108F1082FEFC216D104E104FA
:1009B000F10499F090F0D301C2013AE0B595A79502
:1009C000979587953A95D1F76C017D0121E0C21A80
:1009D000D108E108F10885E0CBCE84E0C9CE83E000
:1009E000C7CE61E088E00E94EC0056CEFC01858114
:1009F0009681009749F1A381B4813FB7F8949C9107
:100A00008281809589238C93858196810197F1F766
:100A100028E082819C9160FF02C0892B02C08095F2
:100A200089238C93858196810197F1F766952150F2
:100A300081F79C918281892B8C933FBF8581968120
:100A40000197F1F781E090E008950F931F93CF9302
:100A5000DF93EFEBF0E08491EBEAF0E0D491E7E98B
:100A6000F0E0C491CC2379F081110E949400EC2F26
:100A7000F0E0EE0FFF1FEA58FF4FA591B491EC9103
:100A8000ED23C1E009F4C0E00E948701AB01BC0185
:100A900080913C0190913D01A0913E01B0913F01B8
:100AA0008A019B01081B190B2A0B3B0BD901C801BA
:100AB0000097A140B10568F480913C0190913D01FF
:100AC000A0913E01B0913F019A01281B390BC90149
:100AD00002C08FEF9FEF40933C0150933D01609324
:100AE0003E0170933F01E0914F014E2F50E047309F
:100AF000510508F0B4C0FA01EC5CFF4F0C94960B62
:100B0000C13009F0ACC08FC1C111A9C088C19C011E
:100B10002F5A31092F353140E8F480913B0180FD97
:100B200015C08091370190913801A0913901B091A1
:100B30003A01880F991FAA1FBB1F8160809337015C
:100B400090933801A0933901B0933A0180913B0111
:100B50008F5F1CC08D5092408F359140F0F4809192
:100B6000370190913801A0913901B0913A01880F75
:100B7000991FAA1FBB1F8093370190933801A09340
:100B80003901B0933A0180913B018E5F80933B0124
:100B900080913B018E3120F448C1C11144C172C023
:100BA00010924F0140913701509138016091390105
:100BB00070913A0190913601852F829586958770C4
:100BC000911104C08370809336012FC120913601AA
:100BD000837090E030E08217930709F026C185E02A
:100BE000E6E5F1E0DF011D928A95E9F7842F877031
:100BF000805A80935A01842F86958695869590E039
:100C0000409744E0880F991F4A95E1F79093570168
:100C100080935601852F8F7190E0409754E0880FA4
:100C2000991F5A95E1F790935901809358010E94BA
:100C3000E60160935B0170935C0180935D0190938A
:100C40005E0182E090E0909355018093540161E051
:100C50008DE0DF91CF911F910F910C94BD002091F9
:100C60004F01223069F128F4222361F0213061F034
:100C7000DCC0243009F49AC008F445C0253009F4DA
:100C8000D2C0D3C081E0CCC09C0127553A41233962
:100C9000314110F482E0C4C08B5693408F359140AF
:100CA00008F0C1C086E080934F0110923701109286
:100CB00038011092390110923A0110923B01B5C0EF
:100CC0009C012B523D402B3C384060F41092370180
:100CD000109238011092390110923A0110923B01A2
:100CE00083E09EC0855996408736944008F097C0AF
:100CF0000E94E60160935B0170935C0180935D014B
:100D000090935E018CC0855A91408B31914008F0E0
:100D10008AC080913B01803208F446C0809137013F
:100D200090913801A0913901B0913A014091370179
:100D3000509138016091390170913A01892F9A2FB1
:100D4000AB2FBB2784279527A627B7279927BB2733
:100D50008F3F9105AF4FB10509F065C085E0E6E52D
:100D6000F1E0DF011D928A95E9F7809137019091BA
:100D70003801A0913901B0913A01A0935A010E9423
:100D8000E60160935B0170935C0180935D01909339
:100D90005E0181E090E0909355018093540161E001
:100DA0008DE00E94BD003FC084E03AC023E0209364
:100DB0004F01409137015091380160913901709194
:100DC0003A0176956795579547954093370150932B
:100DD00038016093390170933A0120913B012F5FF4
:100DE00020933B019C01205F34402D34334090F42C
:100DF0008091370190913801A0913901B0913A0169
:100E0000B0688093370190933801A0933901B09373
:100E10003A010BC0855A91408B31914030F085E00A
:100E200080934F0102C010924F01DF91CF911F912B
:100E30000F9108951F93CF93DF9380936401809166
:100E400064018F3729F480936401CFEFDFEF02C094
:100E5000C0E0D0E080916401803821F48093640187
:100E6000CFEFDFEF1091640180E090E00E943F0B34
:100E7000181729F0612F80E090E00E94470BCE0107
:100E8000DF91CF911F9108951F920F920FB60F928D
:100E900011242F933F938F939F93AF93BF93809190
:100EA000660190916701A0916801B091690130914C
:100EB000650123E0230F2D3720F40196A11DB11DFC
:100EC00005C026E8230F0296A11DB11D20936501E0
:100ED0008093660190936701A0936801B0936901C4
:100EE00080916A0190916B01A0916C01B0916D01AC
:100EF0000196A11DB11D80936A0190936B01A0938F
:100F00006C01B0936D01BF91AF919F918F913F9113
:100F10002F910F900FBE0F901F9018951F920F9258
:100F20000FB60F9211242F933F934F935F936F93BC
:100F30007F938F939F93AF93BF93EF93FF93E09132
:100F40000301F09104010995FF91EF91BF91AF91D9
:100F50009F918F917F916F915F914F913F912F91D1
:100F60000F900FBE0F901F9018951F920F920FB603
:100F70000F9211242F933F934F935F936F937F931F
:100F80008F939F93AF93BF93EF93FF93E0910101F2
:100F9000F09102010995FF91EF91BF91AF919F915F
:100FA0008F917F916F915F914F913F912F910F9012
:100FB0000FBE0F901F9018951F920F920FB60F92B1
:100FC00011242F933F934F935F936F937F938F934E
:100FD0009F93AF93BF93EF93FF9380914B019091B9
:100FE0004C01A0914D01B0914E01892B8A2B8B2B86
:100FF00059F190914A01E0914801F09149018081B5
:101000008927808380914B0190914C01A0914D01E3
:10101000B0914E01181619061A061B060CF03DC0B9
:1010200080914B0190914C01A0914D01B0914E01E6
:101030000197A109B10980934B0190934C01A093B2
:101040004D01B0934E0129C080910001E0E8F0E02D
:10105000E4919FEF90930001E130B9F098F0E23015
:10106000C9F4909170009D7F9093700091E09093EF
:10107000B0009091B100987F94609093B10010926D
:10108000B30008C010926E0005C090916F009D7F64
:1010900090936F0060E00E94BD00FF91EF91BF91BF
:1010A000AF919F918F917F916F915F914F913F9100
:1010B0002F910F900FBE0F901F901895CF93DF9335
:1010C00000D000D01F92CDB7DEB7789484B582608F
:1010D00084BD84B5816084BD85B5826085BD85B5DC
:1010E000816085BD80916E00816080936E0010925A
:1010F00081008091810082608093810080918100D5
:101100008160809381008091800081608093800065
:101110008091B10084608093B1008091B0008160C3
:101120008093B00080917A00846080937A008091EF
:101130007A00826080937A0080917A008160809347
:101140007A0080917A00806880937A001092C100C2
:1011500061E084E00E94EC0061E087E00E94EC0026
:1011600061E08CE00E94EC0061E088E00E94EC000D
:1011700061E08DE00E94EC0083E084BD85BD91E0DC
:10118000909380009BE0909381008093B00084E076
:101190008093B10060E082E00E94EC0085E295E07F
:1011A0009093020180930101809169008C7F81609E
:1011B00080936900E89A10924F0185E0E6E5F1E03E
:1011C000DF011D928A95E9F780E090E00E943F0BD5
:1011D0008093640186E091E00E94AE0286E291E095
:1011E0000E94AE028AE491E00E94AE0238EE232E05
:1011F000312C41ED442E512C5AEB652E712C63EAB3
:10120000E62EF12C7CE8C72ED12CE5E7AE2EB12CD2
:10121000FEE58F2E912C80915B0190915C01A09155
:101220005D01B0915E01892B8A2B8B2BE1F18091BE
:101230005A01803618F40EE610E002C00CE211E00C
:101240000E94E60120915B0130915C0140915D01BB
:1012500050915E01DC01CB01821B930BA40BB50BFB
:10126000012E000C220B330B80179107A207B30746
:1012700008F458C010925B0110925C0110925D015D
:1012800010925E0185E0E6E5F1E011928A95E9F7BA
:1012900081E090E0909355018093540160E08DE0EF
:1012A0000E94BD000CC08091500190915101A0910D
:1012B0005201B0915301892B8A2B8B2B59F40E9438
:1012C000E601609350017093510180935201909315
:1012D000530128C00E94E601009150011091510174
:1012E0002091520130915301DC01CB01801B910B05
:1012F000A20BB30B27E0B695A795979587952A95EE
:10130000D1F7009779F0BC016F70772761157105EF
:1013100011F461E004C06130710521F460E08DE0FA
:101320000E94BD00809154019091550125E0E6E5B1
:10133000F1E0AFE5B1E001900D922A95E1F710924E
:10134000550110925401009709F46BC125E0EFE5B7
:10135000F1E0DE01119601900D922A95E1F71D81D1
:10136000029709F05AC029813A818B819C81BC0186
:10137000621B730B820F931F0E944802123409F400
:1013800024C140F5153109F49CC090F4193009F4DA
:10139000B9C038F4173009F4AEC0183009F4F4C0FD
:1013A0003AC11C3009F4CDC01D3009F4C3C033C1AB
:1013B000193109F491C038F4163109F4AFC018316D
:1013C00009F4CDC028C11C3109F4E9C0103409F07A
:1013D00022C177C01A3409F40AC168F4153441F106
:1013E00038F4133409F463C0143409F014C150C044
:1013F0001834A8F110C11E3509F4BAC038F41235FA
:1014000009F4ECC01A3509F4D7C005C1133609F444
:101410003FC0143609F0FFC04AC0123409F4D5C0E9
:1014200008F44DC01A3409F4E2C0B8F5153491F44B
:101430008091640181508093640180916401082E41
:10144000000C990B0E941A07892B09F0EAC086E06C
:1014500091E016C01634B8F0183408F0D6C0809168
:1014600064018F5F8093640180916401082E000CF9
:10147000990B0E941A07892B09F0D3C086E291E0EC
:101480000E94AE02CEC0133491F0143409F0BDC0F6
:101490006091050170910601C0C01E3509F468C055
:1014A00008F486C01336A1F3143609F0AEC060917B
:1014B000050170910601719561957109AEC01531F4
:1014C00039F4609105017091060180E090E00AC056
:1014D000163158F01931E9F4609105017091060157
:1014E00083E090E00E9491029CC0193059F0E8F42A
:1014F000173009F046C0609105017091060181E046
:1015000090E0F0CF609105017091060182E090E0DB
:10151000E9CF1A3108F041C01631F1F460910501AC
:101520007091060184E090E0DDCF1C3051F01D3059
:1015300009F06BC0609105017091060185E090E0B3
:10154000D1CF86E091E00E94AE0287E490E09093D4
:1015500006018093050165C0183109F056C086E286
:1015600091E00E94AE02909206018092050159C05E
:101570008AE491E00E94AE02B0920601A0920501B9
:1015800050C0183009F041C08DE591E00E94AE02D4
:10159000D0920601C092050144C01C3199F588E83B
:1015A00091E00E94AE02F0920601E092050139C07E
:1015B0001235A1F01A3549F588EB91E00E94AE0290
:1015C00070920601609205012CC08EEE91E00E949F
:1015D000AE02509206014092050123C08BE092E0DA
:1015E0000E94AE0230920601209205011AC08BE4DF
:1015F00092E00E94AE02AFEFB0E0B0930601A0937C
:1016000005010FC0103409F45CCF60E070E080E0A9
:1016100090E00E94480260E070E082E090E00E946A
:10162000F30162E370E080E090E00E94AC01F3CD52
:10163000CF93DF93C1E4D1E083E291E09983888383
:1016400061E088E00E94BD0061E088E00E94EC005B
:10165000E1EBF0E0E491EA83EDE9F0E0E491F0E021
:10166000EE0FFF1FE557FF4F859194919C838B836D
:101670008DE991E09E838D83DF91CF910895F99953
:10168000FECF92BD81BDF89A992780B50895262F87
:10169000F999FECF1FBA92BD81BD20BD0FB6F89457
:1016A000FA9AF99A0FBE01960895A1E21A2EAA1B82
:1016B000BB1BFD010DC0AA1FBB1FEE1FFF1FA21702
:1016C000B307E407F50720F0A21BB30BE40BF50BFF
:1016D000661F771F881F991F1A9469F76095709588
:1016E000809590959B01AC01BD01CF010895052E19
:1016F00097FB1EF400940E948E0B57FD07D00E94AA
:10170000550B07FC03D04EF40C948E0B509540956E
:10171000309521953F4F4F4F5F4F0895909580959D
:10172000709561957F4F8F4F9F4F0895EE0FFF1F6C
:101730000590F491E02D0994A29FB001B39FC001E0
:10174000A39F700D811D1124911DB29F700D811DED
:101750001124911D0895B7FF0C94B30B0E94B30B95
:10176000821B930B08950E949C0BA59F900DB49F24
:10177000900DA49F800D911D11240895F894FFCF22
:10178000FFF201F201FF0001000100000001000171
:10179000000000FFFFFFFFFFFF01000100FFFF004F
:0C17A000000000F604050406070B0C0016
:107E0000112484B714BE81FFF0D085E080938100F7
:107E100082E08093C00088E18093C10086E0809377
:107E2000C20080E18093C4008EE0C9D0259A86E02C
:107E300020E33CEF91E0309385002093840096BBD3
:107E4000B09BFECF1D9AA8958150A9F7CC24DD24C4
:107E500088248394B5E0AB2EA1E19A2EF3E0BF2EE7
:107E6000A2D0813461F49FD0082FAFD0023811F036
:107E7000013811F484E001C083E08DD089C08234E0
:107E800011F484E103C0853419F485E0A6D080C0E4
:107E9000853579F488D0E82EFF2485D0082F10E0AE
:107EA000102F00270E291F29000F111F8ED06801E7
:107EB0006FC0863521F484E090D080E0DECF843638
:107EC00009F040C070D06FD0082F6DD080E0C81688
:107ED00080E7D80618F4F601B7BEE895C0E0D1E017
:107EE00062D089930C17E1F7F0E0CF16F0E7DF06D8
:107EF00018F0F601B7BEE89568D007B600FCFDCFD4
:107F0000A601A0E0B1E02C9130E011968C91119780
:107F100090E0982F8827822B932B1296FA010C0160
:107F200087BEE89511244E5F5F4FF1E0A038BF0790
:107F300051F7F601A7BEE89507B600FCFDCF97BE46
:107F4000E89526C08437B1F42ED02DD0F82E2BD052
:107F50003CD0F601EF2C8F010F5F1F4F84911BD097
:107F6000EA94F801C1F70894C11CD11CFA94CF0C13
:107F7000D11C0EC0853739F428D08EE10CD085E9AC
:107F80000AD08FE07ACF813511F488E018D01DD067
:107F900080E101D065CF982F8091C00085FFFCCF94
:107FA0009093C60008958091C00087FFFCCF809118
:107FB000C00084FD01C0A8958091C6000895E0E648
:107FC000F0E098E1908380830895EDDF803219F02E
:107FD00088E0F5DFFFCF84E1DECF1F93182FE3DFCA
:107FE0001150E9F7F2DF1F91089580E0E8DFEE27F6
:047FF000FF270994CA
:027FFE00040479
:0400000300007E007B
:00000001FF
