:100000000C9462000C9437060C9410060C947F003C
:100010000C947F000C947F000C947F000C945E067F
:100020000C947F000C947F000C947F000C947F0054
:100030000C947F000C947F000C947F000C947F0044
:100040000C94C6050C947F000C947F000C947F00E8
:100050000C947F000C947F000C947F000C947F0024
:100060000C947F000C947F00000000002300260009
:1000700029000200000000240027002A00000000E0
:1000800000250028002B00040404040404040402D6
:100090000202020202030303030303010204081025
:1000A00020408001020408102001020408102000F2
:1000B0000000080002010000030407000000000027
:1000C0000000000011241FBECFEFD8E0DEBFCDBF7F
:1000D00011E0A0E0B1E0E2EDF2E102C005900D9286
:1000E000AE30B107D9F721E0AEE0B1E001C01D921A
:1000F000A833B207E1F70E94E0060C9467090C945C
:100100000000833081F028F4813099F08230A1F032
:1001100008958730A9F08830B9F08430D1F4809107
:1001200080008F7D03C0809180008F778093800056
:10013000089584B58F7702C084B58F7D84BD0895FE
:100140008091B0008F7703C08091B0008F7D809345
:10015000B00008951F93CF93DF93282F30E0F9016B
:10016000E155FF4F8491F901E556FF4FD491F90114
:10017000E957FF4FC491CC23C1F0162F81110E9483
:100180008100EC2FF0E0EE0FFF1FE358FF4FA59129
:10019000B4919FB7F894111104C08C91D095D823D5
:1001A00002C0EC91DE2BDC939FBFDF91CF911F91BA
:1001B0000895CF93DF9390E0FC01E556FF4F249123
:1001C000FC01E957FF4F8491882361F190E0880F8B
:1001D000991FFC01ED58FF4FC591D491FC01E358E4
:1001E000FF4FA591B491611109C09FB7F894888120
:1001F000209582238883EC912E230BC0623061F41A
:100200009FB7F8948881322F309583238883EC91AF
:100210002E2B2C939FBF06C08FB7F894E8812E2B0E
:1002200028838FBFDF91CF9108951F93CF93DF93E2
:10023000182FEB0161E00E94D900209711F460E0D3
:1002400004C0CF3FD10539F461E0812FDF91CF9118
:100250001F910C94AA00E12FF0E0E155FF4FE491CB
:10026000E330F9F048F4E130B9F0E230A1F584B5BB
:10027000806284BDC8BD34C0E730E9F0E83019F1D0
:10028000E43049F580918000806280938000D093B3
:100290008B00C0938A0024C084B5806884BDC7BD2C
:1002A0001FC080918000806880938000D093890077
:1002B000C093880015C08091B00080688093B00022
:1002C000C093B3000DC08091B00080628093B000F5
:1002D000C093B40005C0C038D1050CF0B5CFAFCF86
:1002E000DF91CF911F9108953FB7F8948091340129
:1002F00090913501A0913601B091370126B5A89BA8
:1003000005C02F3F19F00196A11DB11D3FBFBA2FA7
:10031000A92F982F8827820F911DA11DB11DBC0107
:10032000CD0142E0660F771F881F991F4A95D1F7CC
:1003300008958F929F92AF92BF92CF92DF92EF92E9
:10034000FF926B017C010E9474014B015C01C1149E
:10035000D104E104F104F1F00E947401DC01CB014D
:1003600088199909AA09BB09883E9340A105B105DE
:1003700070F321E0C21AD108E108F10888EE880E76
:1003800083E0981EA11CB11CC114D104E104F10446
:1003900019F7DDCFFF90EF90DF90CF90BF90AF9037
:1003A0009F908F90089508952F923F924F925F9261
:1003B0006F927F928F929F92AF92BF92CF92DF9275
:1003C000EF92FF920F931F93CF93DF938C01D09105
:1003D000B0003090B1002090B300809100018830CF
:1003E00021F08F3F09F09AC104C0E2E7F0E0C49128
:1003F0006FC088E080930001E2E7F0E0C491CF3F56
:1004000009F48CC1C13009F440C030F1C23009F0A8
:100410005FC01092B0001092B1008091B000826075
:100420008093B0008091B10081608093B100EFE8CB
:10043000F0E0E491F0E0EE0FFF1FE358FF4F8591ED
:10044000949190931E0180931D01E3EAF0E0E49102
:10045000E0931F01C2E0EBC114BC15BC84B58260FF
:1004600084BD85B5816085BDEFE8F0E0E491F0E002
:10047000EE0FFF1FE358FF4F85919491E3EAF0E000
:10048000E491E0931401C0E0D2C110928000109278
:10049000810080918100886080938100809181003B
:1004A000816080938100EFE8F0E0E491F0E0EE0FEE
:1004B000FF1FE358FF4F85919491E3EAF0E0E49148
:1004C000E093130161E088E00E94D900C1E0B1C06F
:1004D000C7FD24C161E088E00E94D9008C2F8D7F88
:1004E00009F0A7C04801A12CB12C60E072E18AE7B5
:1004F00090E0A50194010E94390929013A0169019E
:100500007A0121E0C21AD108E108F1088FEFC8167C
:10051000D104E104F10409F008F44BC060E472E492
:100520008FE090E0A50194010E94390969017A01E8
:1005300081E0C81AD108E108F108C23001F52FEFB7
:10054000C216D104E104F10409F008F408C160E91D
:1005500070ED83E090E0A50194010E9439096901E2
:100560007A0181E0C81AD108E108F1082FEFC2161C
:10057000D104E104F10409F030F583E053C08FEFBA
:10058000C816D104E104F104B1F0A8F068E478EEF3
:1005900081E090E0A50194010E94390969017A0186
:1005A00081E0C81AD108E108F108CC2309F40CC194
:1005B00002C181E001C082E0C11134C095B5987FCD
:1005C000892B85BD68C068E478EE81E090E0A501E4
:1005D00094010E94390969017A0181E0C81AD108A1
:1005E000E108F1082FEFC216D104E104F10409F08B
:1005F00008F4B3C064E274EF80E090E0A5019401D8
:100600000E94390969017A0181E0C81AD108E1081C
:10061000F1082FEFC216D104E104F10411F008F043
:10062000A0C085E09091B100987F892B8093B100A4
:1006300032C04801A12CB12C60E072E18AE790E061
:10064000A50194010E94390969017A0181E0C81A63
:10065000D108E108F108C114D10421E0E206F10457
:1006600088F068E478EE81E090E0A50194010E94B2
:10067000390969017A0181E0C81AD108E108F10855
:1006800083E001C081E0C13031F490918100987F16
:10069000892B809381009801220F331FACE2B1E0D7
:1006A0000E94580928EE33E040E050E00E9417090C
:1006B000C13099F0C23019F1C11130C0C7BC2093CC
:1006C000190130931A0140931B0150931C01809132
:1006D0006E00826080936E0021C0D0928900C0922B
:1006E0008800209315013093160140931701509311
:1006F000180180916F00826080936F000FC0C092DC
:10070000B3002093200130932101409322015093A4
:100710002301809170008260809370006CE271E030
:1007200080E090E00E949901D093B0003092B10037
:100730002092B300DF91CF911F910F91FF90EF9026
:10074000DF90CF90BF90AF909F908F907F906F90F1
:100750005F904F903F902F90089584E063CF82E0A8
:1007600061CF62E17AE780E090E0A50194010E9408
:10077000390969017A0181E0C81AD108E108F10854
:100780008FEFC816D104E104F10499F090F0D30181
:10079000C2012AE0B595A795979587952A95D1F737
:1007A0006C017D0121E0C21AD108E108F10887E05F
:1007B00039CF86E037CF2FEFC216D104E104F10420
:1007C00009F078F684E0F8CE8FEFC816D104E10482
:1007D000F10459F150F162E17AE780E090E0A5017F
:1007E00094010E94390969017A0181E0C81AD1088F
:1007F000E108F1082FEFC216D104E104F10499F0E9
:1008000090F0D301C2013AE0B595A79597958795E9
:100810003A95D1F76C017D0121E0C21AD108E108B7
:10082000F10885E0CBCE84E0C9CE83E0C7CE61E09D
:1008300088E00E94D90056CE0F931F93CF93DF9389
:10084000EB01880F991F6F3F710509F03CF461308F
:100850002FEF72077CF077FF03C00EC0CFEFD0E020
:100860008C01095F1E4F61E0F80181810E94AA009E
:10087000BE010EC0C1E0DFEF8C01095F1E4F60E0DA
:10088000F80181810E94AA00662777276C1B7D0BE7
:10089000F8018081DF91CF911F910F910C94150188
:1008A000CF93DF9320912E0140912E0127FD0CC0A4
:1008B00046039001479F300D1124232F330F330B34
:1008C000EB01621B730B11C0552741950CF4509539
:1008D000469F9001479F300D569F300D1124232FC6
:1008E000330F330BEB01C21BD30B82309105B1F0F8
:1008F0005CF40097F9F0019759F580E090E00E94D0
:100900001C0460E070E01EC08430910569F04CF07A
:100910000597F1F47195619571090CC060E070E084
:1009200009C071956195710980E090E00E941C04F6
:10093000BE0108C080E090E00E941C046627772773
:100940006C1B7D0B81E090E0DF91CF910C941C0437
:10095000DF91CF9108950F931F93CF93DF93E1EB36
:10096000F0E08491EDE9F0E0D491E9E8F0E0C491A1
:10097000CC2379F081110E948100EC2FF0E0EE0F82
:10098000FF1FE859FF4FA591B491EC91ED2381E051
:1009900009F480E0C1E0C8270E947401AB01BC01EA
:1009A0008091240190912501A0912601B091270109
:1009B0008A019B01081B190B2A0B3B0BD901C801AB
:1009C0000097A140B10568F4809124019091250120
:1009D000A0912601B09127019A01281B390BC9016A
:1009E00002C08FEF9FEF4093240150932501609345
:1009F00026017093270120912801223061F028F40C
:100A0000222349F0213069F409C0243021F030F06C
:100A1000253039F403C0C11104C0B1C0C13009F49C
:100A2000AAC0209128012230C1F028F4222359F0D5
:100A3000213059F0A6C0243009F464C008F12530F3
:100A400009F49DC09EC081E097C08D559A418739B9
:100A5000914108F094C082E08FC09C012E523D402D
:100A60002D3C384008F087C010920F011092100101
:100A7000109211011092120110920E0183E07CC0BD
:100A8000835A91408B31914008F079C080910E01DA
:100A90008032B0F180910F0190911001A09111016D
:100AA000B091120140910F0150911001609111011C
:100AB00070911201892F9A2FAB2FBB27842795277E
:100AC000A627B7279927BB278F3F9105AF4FB105C1
:100AD00009F055C080910F0190911001A091110172
:100AE000B09112019927BB278093290190932A0185
:100AF000A0932B01B0932C0181E080932D013FC086
:100B000084E03AC023E02093280140910F015091E6
:100B100010016091110170911201769567955795BA
:100B2000479540930F01509310016093110170930A
:100B3000120120910E012F5F20930E019C01235F73
:100B400034402F34334090F480910F019091100184
:100B5000A0911101B0911201B06880930F019093A0
:100B60001001A0931101B09312010BC0835A914060
:100B70008B31914030F085E08093280102C01092C3
:100B80002801DF91CF911F910F9108951F920F922D
:100B90000FB60F9211242F933F938F939F93AF9390
:100BA000BF938091300190913101A0913201B091B9
:100BB000330130912F0123E0230F2D3720F40196CC
:100BC000A11DB11D05C026E8230F0296A11DB11D70
:100BD00020932F018093300190933101A093320133
:100BE000B09333018091340190913501A091360189
:100BF000B09137010196A11DB11D809334019093EE
:100C00003501A0933601B0933701BF91AF919F9109
:100C10008F913F912F910F900FBE0F901F901895BD
:100C20001F920F920FB60F9211242F933F934F9361
:100C30005F936F937F938F939F93AF93BF93EF9344
:100C4000FF93E0910301F09104010995FF91EF9169
:100C5000BF91AF919F918F917F916F915F914F91D4
:100C60003F912F910F900FBE0F901F9018951F92DC
:100C70000F920FB60F9211242F933F934F935F93D0
:100C80006F937F938F939F93AF93BF93EF93FF9354
:100C9000E0910101F09102010995FF91EF91BF915F
:100CA000AF919F918F917F916F915F914F913F9104
:100CB0002F910F900FBE0F901F9018951F920F92BB
:100CC0000FB60F9211242F933F934F935F936F931F
:100CD0007F938F939F93AF93BF93EF93FF938091F5
:100CE000200190912101A0912201B0912301892B33
:100CF0008A2B8B2B59F190911F01E0911D01F091EE
:100D00001E0180818927808380912001909121019B
:100D1000A0912201B0912301181619061A061B068C
:100D20000CF03DC08091200190912101A091220101
:100D3000B09123010197A109B109809320019093FB
:100D40002101A0932201B093230129C080910001C9
:100D5000E2E7F0E0E4919FEF90930001E130B9F019
:100D600098F0E230C9F4909170009D7F90937000EC
:100D700091E09093B0009091B100987F946090932F
:100D8000B1001092B30008C010926E0005C090919F
:100D90006F009D7F90936F0060E00E94AA00FF911A
:100DA000EF91BF91AF919F918F917F916F915F91E3
:100DB0004F913F912F910F900FBE0F901F9018955C
:100DC000789484B5826084BD84B5816084BD85B526
:100DD000826085BD85B5816085BD80916E00816032
:100DE00080936E00109281008091810082608093D8
:100DF00081008091810081608093810080918000DA
:100E00008160809380008091B10084608093B10004
:100E10008091B00081608093B00080917A008460FE
:100E200080937A0080917A00826080937A0080912A
:100E30007A00816080937A0080917A008068809344
:100E40007A001092C10061E084E00E94D90061E064
:100E500087E00E94D90061E08CE00E94D90061E047
:100E600088E00E94D90061E08DE00E94D90083E013
:100E700084BD85BD91E0909380009BE090938100BC
:100E80008093B00084E08093B10060E082E00E9433
:100E9000D9008BEA94E09093020180930101809144
:100EA00069008C7F816080936900E89A1092280124
:100EB0001092290110922A0110922B0110922C01FC
:100EC00010922D0180E090E00E94010980932E0194
:100ED00086E091E00E94D40186E291E00E94D40174
:100EE0008AE491E00E94D4012224239488EE482EC3
:100EF000512C9AEB692E712C25E7822E912CCFEF85
:100F0000D0E001ED10E03EE5E32EF12C4CE8C42EDC
:100F1000D12C57E4A52EB12C8091290190912A0162
:100F2000A0912B01B0912C01892B8A2B8B2BD1F016
:100F300080912801811116C00E9474012091240122
:100F4000309125014091260150912701DC01CB0110
:100F5000821B930BA40BB50B803B9D4AA140B105AE
:100F600008F044C18091290190912A01A0912B01A0
:100F7000B0912C0120912D0110922D018A2F90E02B
:100F8000922B90FF2CC199278C31910509F4F1C067
:100F9000DCF58D30910509F4D1C0FCF48830910561
:100FA00009F4DEC054F4079709F009C16091050106
:100FB0007091060181E090E0C7C08930910509F485
:100FC000AFC00C9709F0FBC086E091E00E94D4010D
:100FD000B0920601A092050102C18631910509F483
:100FE000A6C024F4459709F494C0E9C0883191055E
:100FF00009F4ADC0499709F0E2C060910501709114
:10100000060183E090E0A0C085349105F1F1BCF4C5
:101010008234910509F4C1C02CF48034910509F49F
:1010200078C0CDC08334910509F466C0843491053D
:1010300009F0C5C0609105017091060164C0823558
:10104000910509F4B3C084F486349105B9F18A346A
:10105000910509F0B4C08BE492E00E94D401D093D2
:101060000601C0930501BBC08A35910509F48CC007
:101070008E35910509F0A3C08AE491E00E94D40165
:101080009092060180920501AAC080912E018038BD
:10109000C9F080912E01815080932E0130902E0155
:1010A00080E090E00E940109381629F0632D80E06D
:1010B00090E00E94090986E091E01BC080912E011A
:1010C0008F3719F480932E018AC080912E018F5F93
:1010D00080932E0130902E0180E090E00E94010963
:1010E000381629F0632D80E090E00E94090986E21D
:1010F00091E00E94D40173C06091050170910601D6
:1011000071956195710982E090E00E941C0461E094
:1011100063C0609105017091060180E090E014C009
:10112000609105017091060182E090E00DC0609130
:1011300005017091060184E090E006C06091050110
:101140007091060185E090E00E945004E0CF86E2B5
:1011500091E00E94D401F0920601E09205013FC0A7
:101160008DE591E00E94D401D0920601C092050164
:1011700036C088E891E00E94D40183EA90E0909321
:101180000601809305012BC088EB91E00E94D401F9
:10119000709206016092050122C08EEE91E00E94DD
:1011A000D401109306010093050119C08BE092E071
:1011B0000E94D401509206014092050110C060E0E7
:1011C00070E080E090E00E94500460E070E082E017
:1011D00090E00E941C0460E08DE00E94AA0062E39F
:1011E00070E080E090E00E94990196CE1092290173
:1011F00010922A0110922B0110922C0120922D01A5
:10120000B1CEF999FECF92BD81BDF89A992780B5EC
:101210000895262FF999FECF1FBA92BD81BD20BD3A
:101220000FB6F894FA9AF99A0FBE01960895A1E2C2
:101230001A2EAA1BBB1BFD010DC0AA1FBB1FEE1F50
:10124000FF1FA217B307E407F50720F0A21BB30B9B
:10125000E40BF50B661F771F881F991F1A9469F717
:1012600060957095809590959B01AC01BD01CF0173
:101270000895052E97FB1EF400940E94500957FD17
:1012800007D00E94170907FC03D04EF40C945009B4
:1012900050954095309521953F4F4F4F5F4F0895A2
:1012A00090958095709561957F4F8F4F9F4F0895D2
:1012B000A29FB001B39FC001A39F700D811D112497
:1012C000911DB29F700D811D1124911D0895F894F8
:0212D000FFCF4E
:0E12D200FFD301D301FF00050406070B0C003B
:107E0000112484B714BE81FFF0D085E080938100F7
:107E100082E08093C00088E18093C10086E0809377
:107E2000C20080E18093C4008EE0C9D0259A86E02C
:107E300020E33CEF91E0309385002093840096BBD3
:107E4000B09BFECF1D9AA8958150A9F7CC24DD24C4
:107E500088248394B5E0AB2EA1E19A2EF3E0BF2EE7
:107E6000A2D0813461F49FD0082FAFD0023811F036
:107E7000013811F484E001C083E08DD089C08234E0
:107E800011F484E103C0853419F485E0A6D080C0E4
:107E9000853579F488D0E82EFF2485D0082F10E0AE
:107EA000102F00270E291F29000F111F8ED06801E7
:107EB0006FC0863521F484E090D080E0DECF843638
:107EC00009F040C070D06FD0082F6DD080E0C81688
:107ED00080E7D80618F4F601B7BEE895C0E0D1E017
:107EE00062D089930C17E1F7F0E0CF16F0E7DF06D8
:107EF00018F0F601B7BEE89568D007B600FCFDCFD4
:107F0000A601A0E0B1E02C9130E011968C91119780
:107F100090E0982F8827822B932B1296FA010C0160
:107F200087BEE89511244E5F5F4FF1E0A038BF0790
:107F300051F7F601A7BEE89507B600FCFDCF97BE46
:107F4000E89526C08437B1F42ED02DD0F82E2BD052
:107F50003CD0F601EF2C8F010F5F1F4F84911BD097
:107F6000EA94F801C1F70894C11CD11CFA94CF0C13
:107F7000D11C0EC0853739F428D08EE10CD085E9AC
:107F80000AD08FE07ACF813511F488E018D01DD067
:107F900080E101D065CF982F8091C00085FFFCCF94
:107FA0009093C60008958091C00087FFFCCF809118
:107FB000C00084FD01C0A8958091C6000895E0E648
:107FC000F0E098E1908380830895EDDF803219F02E
:107FD00088E0F5DFFFCF84E1DECF1F93182FE3DFCA
:107FE0001150E9F7F2DF1F91089580E0E8DFEE27F6
:047FF000FF270994CA
:027FFE00040479
:0400000300007E007B
:00000001FF
