:100000000C946F000C94110D0C943E0D0C94970001
:100010000C9497000C9497000C9497000C94261461
:100020000C9497000C9497000C9497000C940B057B
:100030000C9497000C9497000C9497000C949700E4
:100040000C946B0D0C9497000C94C9100C94FB103D
:100050000C9497000C9497000C9497000C949700C4
:100060000C94DE030C94970052075607520756076C
:10007000520756075907000000080002010000035C
:100080000407000000000000000001020408102026
:10009000408001020408102001020408102004041A
:1000A0000404040404040202020202020303030320
:1000B00003030000000023002600290000000000C8
:1000C000250028002B0000000000240027002A0043
:1000D0000200E900B103D80B2B11FE00E10B112443
:1000E0001FBECFEFD8E0DEBFCDBF11E0A0E0B1E092
:1000F000E0EFF1E302C005900D92AC37B107D9F7FC
:1001000023E0ACE7B1E001C01D92A63BB207E1F7E6
:1001100010E0CAEDD0E004C02297FE010E947716DD
:10012000C23DD107C9F70E946F110C94EB180C94D3
:100130000000FC01E058FE4F80818093E301818143
:100140008093E4018091E3019091E4010895DC0142
:10015000ED91FC910190F081E02D09946FEF70E03A
:1001600080E093E00E94A70065E570E080E093E006
:100170000E94A70080E093E00C94CC110E94300A0A
:1001800061E08DE00E94250F26E040E052EC61E046
:1001900070E080E093E00E94671064EF71E080E01F
:1001A00090E00E94E40D60E08DE00E94250F62E384
:1001B00070E084EF91E00E94F5096DE071E080E06D
:1001C00093E00E94CA116DED71E080E093E00C9421
:1001D000D011CF93DF9367E171E08DED91E00E9444
:1001E0003715C5ECD1E0CE010E94C705239681E00A
:1001F000CD3DD807C1F7DF91CF9108958DED91E006
:100200000C94C9140E9481157093E4016093E3017A
:1002100063E070E080E093E00E94A7006091E3015A
:1002200080E093E00E9402106091E40180E093E09E
:100230000C940210EF92FF920F931F93CF93DF93D2
:10024000CDB7DEB727970FB6F894DEBF0FBECDBF90
:1002500080E093E00E94840F181619060CF0DDC1AF
:1002600080E093E00E949D0F90917D01853561F4BF
:1002700091110AC08091B4018F3FE1F481E0809335
:100280007F0180937D0116C08093B401992391F082
:10029000E0917F01E23019F480937E0107C0E330E2
:1002A00028F090917E01915090937E01F0E0E0580B
:1002B000FE4F808380917F018F5F843318F4809399
:1002C0007F0104C010927F0110927D0180917D0119
:1002D000882309F4A2C180917E0181119EC1809181
:1002E0007F01843008F499C110927D0180918401CE
:1002F000823009F4E3C018F4813041F08CC18430BD
:1003000009F485C1853009F484C185C14091850116
:100310000091830110E06FEF70E080E093E04F8385
:100320000E94A70065E570E080E093E00E94A700CE
:10033000B80180E093E00E94A70010918601812F10
:1003400090E04F814E3109F47DC0F0F44E3009F455
:1003500046C0423109F446C04111ABC06DED71E0B9
:10036000CE0101960E946415ED80FE8064E070E08D
:1003700080E093E00E94A700B70180E093E00E9434
:10038000A70000E010E013C0453209F487C04832EE
:1003900009F46FC04F3109F08CC08C01025F1F4F10
:1003A00060E0802F0E94EC0E61E070E06EC00E15E0
:1003B0001F0584F4B801CE0101960E947E15682FB6
:1003C000772767FD709580E093E00E94A7000F5F9C
:1003D0001F4FEDCFCE0101960E94C9146AC00E9442
:1003E000E00937C067E070E080E093E00E94A7007A
:1003F0000E94D009BC0180E093E00E94A7000E9407
:10040000D609682F8093E3019093E40180E093E0A4
:100410000E9402106091E40180E093E00E940210CB
:100420000E94DB09682F8093E3019093E40180E050
:1004300093E00E9402106091E40180E093E00E944A
:10044000021037C060E0812F0E94EC0E812F0E94C5
:100450005B0F182F61E070E080E093E00E94A7003E
:10046000612F772767FD709580E093E00E94A700D9
:1004700020C08C01025F1F4F60E0802F0E94EC0EB5
:1004800087E090E00E949900BC01802F0E94950BAC
:10049000BC0180E090E00E94B21509C00E94400BB0
:1004A000BC01882777FD8095982F0E94B4150E9483
:1004B000020180E093E00E94CC11ADC0F090860173
:1004C0000F2D10E090918501923209F477C0C8F4A5
:1004D0009A3049F150F4953009F09BC06091870142
:1004E00070E0C8010E94230B94C09E3131F191321B
:1004F00009F08FC0F0908701E5EBF1E080E090E03B
:1005000026C0943209F479C008F465C0963209F423
:1005100077C0973209F07DC086E090E00E94990094
:100520000E94850B76C087E090E00E949900BC0194
:10053000C80101970E94880A6CC061E08F2D0E945B
:10054000EC0E609187018F2D0E94250F62C02191D2
:1005500031912017310781F0232B41F4FC01EE0F7C
:10056000FF1FEB54FE4F1183008306C001968830B5
:10057000910569F780E090E0FC01EE0FFF1FE80FA6
:10058000F91FEB53FE4F20813181428129833A8349
:100590004B8384EB8F15E8F1CE0101960E94FF0694
:1005A000811105C0B801CE0101960E9461066F2D30
:1005B00070E0CE0101960E949A062BC088E090E080
:1005C0000E9499008C0186E090E00E949900B80199
:1005D0000E94F5091EC080917C01811107C08EE147
:1005E00090E00E94550C81E080937C01609187012E
:1005F00070E0C8010E94160C0CC00E94420C09C099
:1006000086E090E00E9499000E94450B02C00E9483
:10061000300A0E94AE0010927F0127960FB6F89420
:10062000DEBF0FBECDBFDF91CF911F910F91FF9025
:10063000EF9008958091140290E020911502821BA2
:10064000910908952091150280911402281750F401
:10065000E22FF0E0EA5EFD4F808190E02F5F209373
:10066000150208958FEF9FEF0895E0911502809194
:100670001402E81730F4F0E0EA5EFD4F808190E06C
:1006800008958FEF9FEF08950895CF92DF92EF9234
:10069000FF920F931F93CF93DF937C01CB018A01CD
:1006A0002091F101222389F0EB016B01C40ED51ECC
:1006B000CC15DD0569F06991D701ED91FC910190B0
:1006C000F081E02DC7010995F3CF642F0E94B50397
:1006D000C801DF91CF911F910F91FF90EF90DF90B4
:1006E000CF900895CF93DF931F92CDB7DEB7698384
:1006F0002091F1012223D1F02091F201203240F02B
:1007000021E030E0FC013383228380E090E015C0DB
:100710008091F301E82FF0E0EC50FE4F9981908337
:100720008F5F8093F3018093F20105C061E0CE01F9
:1007300001960E94B50381E090E00F90DF91CF9188
:100740000895FC011382128248EE53E060E070E0ED
:1007500044835583668377838AE291E09183808323
:10076000089585EE91E00C94A103613298F42091F4
:10077000A302243089F460935802FC018AE592E0D8
:10078000DC012A2F281B261718F421912D93F9CF6D
:1007900080E0089581E0089582E0089585ED8093DA
:1007A000BC008091BC0084FDFCCF1092A302089590
:1007B00085EC8093BC001092A30208951F920F92C3
:1007C0000FB60F9211242F933F934F935F936F9324
:1007D0007F938F939F93AF93BF93EF93FF938091FA
:1007E000B900887F803609F49CC068F5883209F426
:1007F0005BC090F4803109F454C038F4882309F4C4
:10080000F5C0883009F44DC0F5C0883109F44CC0FA
:10081000803209F45DC0EEC0803409F468C048F449
:10082000803309F455C0883309F0E4C08093360260
:10083000A8C0803509F44FC0883509F45DC08834FC
:1008400009F0D8C0D5C0883909F4C6C0A8F48837E3
:1008500009F467C038F4883609F463C0803709F4B6
:1008600060C0C8C0883809F4B7C0803909F45FC0D7
:10087000803809F0BFC05BC0803B09F485C038F404
:10088000803A09F466C0883A09F47EC0B3C0803C5F
:1008900009F4A6C0883C09F4A3C0883B09F489C0C8
:1008A000A9C08091A20210C090917B0280917A022F
:1008B000981770F5E0917B0281E08E0F80937B02A8
:1008C000F0E0E458FD4F80818093BB0085EC85C04B
:1008D000809336028DC0E0917B0281E08E0F809381
:1008E0007B028091BB00F0E0E458FD4F8083909143
:1008F0007B0280917A026DC0E0917B0281E08E0FD5
:1009000080937B028091BB00F0E0E458FD4F808330
:100910008091A10281116CC081E08093A00284EAE1
:1009200060C083E08093A30210923702CFCF809102
:100930003702803208F050C0E091370281E08E0F1C
:10094000809337028091BB00F0E0E85CFD4F80832C
:10095000BDCF80913702803230F4E0913702F0E071
:10096000E85CFD4F10820E94CE036091370270E078
:10097000E0919C02F0919D0288E392E0099510922B
:1009800037020E94D80336C084E08093A3021092FD
:10099000590210925802E0919E02F0919F0209952F
:1009A00080915802811105C081E080935802109215
:1009B0005A02E091590281E08E0F80935902F0E0D3
:1009C000E65AFD4F80818093BB009091590280913F
:1009D0005802981708F47ACF85E88093BC000AC0C3
:1009E00085EC8093BC001092A30204C010923602E2
:1009F0000E94CE03FF91EF91BF91AF919F918F9194
:100A00007F916F915F914F913F912F910F900FBE0A
:100A10000F901F9018951F920F920FB60F921124EE
:100A20002F933F934F935F936F937F938F939F93F6
:100A3000AF93BF93EF93FF938091A50287FF05C00B
:100A400010928500109284001AC02091A5023327CD
:100A500027FD30958091A40290E0281739077CF497
:100A60008091A502992787FD9095FC01EE0FFF1F4D
:100A7000E80FF91FEA55FD4F808186FD15C0809172
:100A8000A5028F5F8093A5022091A502332727FD41
:100A900030958091A40290E028173907BCF480912A
:100AA000A5028C305CF112C08091A502992787FDC8
:100AB0009095FC01EE0FFF1FE80FF91FEA55FD4F5F
:100AC000808160E08F730E94250FD9CF80918400D0
:100AD00090918500049680349C4918F480E49CE948
:100AE00005C08091840090918500049690938900C0
:100AF000809388008FEF8093A50238C020918400F6
:100B0000309185008091A502992787FD9095FC0181
:100B1000EE0FFF1FE80FF91FEA55FD4F818192810B
:100B2000820F931F90938900809388008091A50283
:100B3000992787FD9095FC01EE0FFF1FE80FF91F25
:100B4000EA55FD4F808186FF11C08091A50299274B
:100B500087FD9095FC01EE0FFF1FE80FF91FEA5586
:100B6000FD4F808161E08F730E94250FFF91EF910F
:100B7000BF91AF919F918F917F916F915F914F91B5
:100B80003F912F910F900FBE0F901F9018952091BD
:100B9000A4022C30A0F431E0320F3093A402FC0107
:100BA0002083822F90E0FC01EE0FFF1FE80FF91F5A
:100BB000EA55FD4F88EB9BE09283818308952FEFE8
:100BC000FC0120830895DF92EF92FF920F931F9311
:100BD000CF93DF93EC01D62E7A01890188818C3086
:100BE00008F066C061E08D2D0E94EC0E8881A82F70
:100BF000B0E0FD01EE0FFF1FEA0FFB1FEA55FD4FAE
:100C00002D2D2F739081907C922B908360E272E067
:100C10006E197F0977FF02C06D5F7F4F75956795ED
:100C200075956795698340E659E0401B510B57FF66
:100C300002C04D5F5F4F55954795559547954A833F
:100C40006CE00E9428169CE0899FB001112420E0EE
:100C500030E0A901460F571FFA01EE0FFF1FE40F06
:100C6000F51FEA55FD4F908196FD16C02F5F3F4F4F
:100C70002C30310571F781110FC01092800082E095
:100C8000809381001092850010928400B19A809127
:100C90006F00826080936F00888190E0FC01EE0F0E
:100CA000FF1FE80FF91FEA55FD4F808180648083A4
:100CB0008881DF91CF911F910F91FF90EF90DF908E
:100CC000089520E639E040E252E00C94E305FC018F
:100CD00080818C3070F5918128E830E0291B310942
:100CE00097FD3395220F331F220F331F62177307AF
:100CF0007CF0928128E532E0291B310997FD33957C
:100D0000220F331F220F331F621773070CF49B014E
:100D100022503109220F331F4FB7F89490E0FC01A5
:100D2000EE0FFF1FE80FF91FEA55FD4F32832183B5
:100D30004FBF08954F925F926F927F92AF92BF9292
:100D4000CF92DF92EF92FF920F931F93CF93DF9397
:100D5000EC01603282E078070CF040C077FD06C0FD
:100D6000653B71052CF064EB70E002C060E070E060
:100D7000898128E830E0281B310987FD3395220F4F
:100D8000331F220F331F5901CC24B7FCC094DC2C35
:100D9000882777FD8095982F2A8148E552E0421BED
:100DA000510927FD5395440F551F440F551F2A0124
:100DB000662457FC6094762C7F926F925F924F92DC
:100DC00014EBE12EF12C00E010E020E030E0A9016E
:100DD0000E9482140F900F900F900F90CE01DF9120
:100DE000CF911F910F91FF90EF90DF90CF90BF9028
:100DF000AF907F906F905F904F900C946706FC01CE
:100E0000808190E0FC01EE0FFF1FE80FF91FEA550B
:100E1000FD4F808186FB882780F90895CF92DF926D
:100E2000EF92FF920F931F93CF93DF9382E00E9484
:100E30005B0FC82F0E94C10D0091E7021091E802DC
:100E40002091E9023091EA026B017C01C01AD10ABB
:100E5000E20AF30AC114D10441E0E406F10460F4AB
:100E60000091E7021091E8022091E9023091EA0234
:100E70009B01201B310B02C02FEF3FEF6093E70275
:100E80007093E8028093E9029093EA024091F002A5
:100E900050E04730510508F0B9C0FA01EC5CFF4F53
:100EA0000C947516C13009F0B1C094C1C111AEC027
:100EB0008DC1C9018F5A91098F359140E8F4809115
:100EC000EF0280FD15C08091EB029091EC02A091A1
:100ED000ED02B091EE02880F991FAA1FBB1F81601F
:100EE0008093EB029093EC02A093ED02B093EE029C
:100EF0008091EF028F5F1CC02D5032402F35314062
:100F0000F0F48091EB029091EC02A091ED02B0918F
:100F1000EE02880F991FAA1FBB1F8093EB029093CC
:100F2000EC02A093ED02B093EE028091EF028E5F8F
:100F30008093EF028091EF028E3120F44DC1C111F8
:100F400049C177C01092F0028091EB029091EC02BF
:100F5000A091ED02B091EE022091D202492F42956C
:100F600046954770211104C043704093D20234C1AA
:100F70002091D202437050E030E04217530709F04D
:100F80002BC125E0EAEDF2E0EF0119922A95E9F78D
:100F9000282F2770205A2093DE02282F2695269589
:100FA000269530E020513109F4E0220F331FFA95E5
:100FB000E1F73093DB022093DA02892F8F7190E002
:100FC0004097A4E0880F991FAA95E1F79093DD025E
:100FD0008093DC020E94B50D6093E3027093E402FB
:100FE0008093E5029093E60282E090E09093D40231
:100FF0008093D30261E08DE0DF91CF911F910F913B
:10100000FF90EF90DF90CF900C94250F8091F0022D
:10101000823069F128F4882361F0813061F0DCC00E
:10102000843009F49AC008F445C0853009F4D2C070
:10103000D3C081E0CCC0C90187559A418339914121
:1010400010F482E0C4C02B5633402F35314008F0F5
:10105000C1C086E08093F0021092EB021092EC0285
:101060001092ED021092EE021092EF02B5C0C9018B
:101070008B529D408B3C984060F41092EB02109292
:10108000EC021092ED021092EE021092EF0283E059
:101090009EC0255936402736344008F097C00E943C
:1010A000B50D6093E3027093E4028093E5029093A0
:1010B000E6028CC0255A31402B31314008F08AC0FD
:1010C0008091EF02803208F446C08091EB0290914B
:1010D000EC02A091ED02B091EE024091EB02509132
:1010E000EC026091ED027091EE02892F9A2FAB2FE6
:1010F000BB2784279527A627B7279927BB278F3F8C
:101100009105AF4FB10509F065C085E0EAEDF2E069
:10111000DF011D928A95E9F78091EB029091EC0234
:10112000A091ED02B091EE02A093DE020E94B50DF7
:101130006093E3027093E4028093E5029093E602E9
:1011400081E090E09093D4028093D30261E08DE03F
:101150000E94250F3FC084E03AC083E08093F002F4
:101160008091EB029091EC02A091ED02B091EE0221
:10117000B695A795979587958093EB029093EC028F
:10118000A093ED02B093EE028091EF028F5F809307
:10119000EF02C901805F94408D34934090F48091B8
:1011A000EB029091EC02A091ED02B091EE02B068DA
:1011B0008093EB029093EC02A093ED02B093EE02C9
:1011C0000BC0255A31402B31314030F085E08093FF
:1011D000F00202C01092F002DF91CF911F910F91A7
:1011E000FF90EF90DF90CF900895CF92DF92EF9233
:1011F000FF920F931F938091E3029091E402A091DC
:10120000E502B091E602892B8A2B8B2B09F466C08C
:101210008091DE02803638F08CE2C82EDD24D39433
:10122000E12CF12C05C00EE6C02ED12CE12CF12CC6
:101230000E94B50D0091E3021091E4022091E502B5
:101240003091E602601B710B820B930B2091D90247
:101250006C157D058E059F05D0F421110EC080917F
:10126000DE02882351F081E090E09093D4028093D5
:10127000D30261E08DE00E94250F85E0EAEDF2E007
:10128000A5EDB2E001900D928A95E1F77AC0222394
:1012900009F477C085E0E5EDF2E0DF011D928A9563
:1012A000E9F781E090E09093D4028093D30260E06C
:1012B0008DE00E94250F1092E3021092E40210923A
:1012C000E5021092E6020E94B50D6093DF02709372
:1012D000E0028093E1029093E20253C08091DF022A
:1012E0009091E002A091E102B091E202892B8A2B59
:1012F0008B2B51F40E94B50D6093DF027093E002D6
:101300008093E1029093E2020E94B50DC090DF024B
:10131000D090E002E090E102F090E2026C197D09C9
:101320008E099F092091DE02222361F06F3671053C
:101330008105910538F025E0EAEDF2E0DF011D922C
:101340002A95E9F7DC01CB0117E0B695A7959795AB
:1013500087951A95D1F70097A105B10591F08F7087
:101360009927AA27BB270097A105B10511F461E0D1
:1013700005C00197A105B10521F460E08DE00E9450
:10138000250F8091D3029091D4021092D402109232
:10139000D3021F910F91FF90EF90DF90CF900895AF
:1013A0000E94F5088091D90290E008958091D502BD
:1013B0009091D60208958091D7029091D802089515
:1013C0002091D9028F3F910531F481E090E0211105
:1013D0000BC080E0089530E051E040E02817390765
:1013E00009F050E0852F942F08957F928F929F925D
:1013F000AF92BF92CF92DF92EF92FF920F931F9323
:10140000CF93DF9320EBA22EB12CF501708001EB7E
:1014100010E0F8018080C3EBD0E098806B01EE24EF
:10142000D7FCE094FE2CA7019601BC0188E00E9445
:10143000E211C701B6010E94E40DF5017082F801C6
:1014400080829882DF91CF911F910F91FF90EF9052
:10145000DF90CF90BF90AF909F908F907F90089536
:1014600061E084E00E94EC0E61E087E00E94EC0EF7
:1014700061E08CE00E94EC0E61E088E00E94EC0EDE
:1014800061E08DE00E94EC0E83E084BD85BD91E0BB
:10149000909380009BE0909381008093B00084E063
:1014A0008093B10060E082E00E94EC0E41E050E0E9
:1014B0006EE077E080E00E94F10C1092F00285E08F
:1014C000EAEDF2E0DF011D928A95E9F780E090E015
:1014D0000E949E1890E09093F2028093F102809116
:1014E000F1029091F202803891054CF08091F10266
:1014F0009091F2029A959093F2028093F1020895EE
:1015000061E089E00E94EC0E61E08AE00C94EC0E50
:101510000F931F93CF93DF93EB0183309105E1F499
:101520008091D102811105C081E08093D1020E9497
:10153000800A61E01C161D060CF060E089E00E9444
:10154000250F6D2F661F6627661F8AE0DF91CF91FA
:101550001F910F910C94250F8C01000F111F6F3FED
:10156000710509F03CF461308FEF780774F077FF74
:1015700003C00DC0CFEFD0E0025B1E4F61E0F80169
:1015800081810E94250FBE010DC0C1E0DFEF025B2B
:101590001E4F60E0F80181810E94250F66277727A2
:1015A0006C1B7D0BF8018081DF91CF911F910F9112
:1015B0000C94640ECF93DF93EC01FB018091F10258
:1015C0009091F20297FD1BC08091F1029091F2027E
:1015D000AA2797FDA095BA2F20E031E040E050E027
:1015E000281B390B4A0B5B0BDB010E948616BB27BD
:1015F00097FDBA95A92F982F872FFC0115C0209130
:10160000F1023091F202442737FD4095542F3F5F9D
:101610004F4F5F4FDE010E948616BB2797FDBA959C
:10162000A92F982F872FEC01BF0180E090E00E9446
:10163000880A662777276C1B7D0B81E090E0DF919D
:10164000CF910C94880A9B01FC01EE0FFF1FEE0F57
:10165000FF1FEA5CFE4F82819381289FB001299F82
:10166000700D389F700D112480819181AC01249FF1
:10167000C001259F900D349F900D11240C94DA0A1F
:101680008091F1029091F2020895FF920F931F93BF
:10169000CF93DF939093F2028093F1028091F10255
:1016A0009091F202803891054CF08FE790E0909392
:1016B000F2028093F102CFEFDFEF02C0C0E0D0E092
:1016C0008091F1029091F20280389F4F44F480E8BB
:1016D0009FEF9093F2028093F102CFEFDFEF009142
:1016E000F1021091F20280E090E00E949E1808172B
:1016F00029F0602F80E090E00E94A618CE01DF91D3
:10170000CF911F910F91FF9008952091F102309198
:10171000F202280F391F3093F2022093F1028091D8
:10172000F1029091F2020C94450BAF92BF92CF92CE
:10173000DF92EF92FF921F93CF93DF93182FEB016D
:10174000209711F4C1E0D0E0A12CB12CC12CD12CF8
:101750007601812F0E94470EAC01662757FD6095E8
:10176000762FC40ED51EE61EF71E8FEFA81AB80AF4
:10177000AC16BD0671F7950140E050E0C701B60117
:101780000E943416A1E7B2E00E947B16E7E096952E
:10179000879577956795EA95D1F7CB01DF91CF9142
:1017A0001F91FF90EF90DF90CF90BF90AF90089582
:1017B00020E835E240E050E068E08AEC92E00C94EA
:1017C0009D0C8AEC92E00C94EB0CEF92FF920F933D
:1017D0001F93CF93DF938C017B016EE78AEC92E03D
:1017E0000E946A0C61E06E0D8AEC92E00E946A0C25
:1017F000E801CE01801B910B8E159F0534F4699191
:101800008AEC92E00E946A0CF4CF6FEE8AEC92E0D0
:101810000E946A0C68EC70E080E090E0DF91CF916C
:101820001F910F91FF90EF900C94E40D1F93CF93B5
:10183000DF9300D000D01F92CDB7DEB7182F609392
:101840000A0181E18C83672B11F082E001C084E002
:101850008D8362E070E0CE0104960E94E50B83E088
:1018600089831A821B8363E070E0CE0101960E9497
:10187000E50B0F900F900F900F900F90DF91CF918D
:101880001F910895CF93DF931F92CDB7DEB71092CB
:101890000A018AE0898361E070E0CE0101960E942E
:1018A000E50B0F90DF91CF910895CF93DF9300D098
:1018B000CDB7DEB796E099838A8362E070E0CE010F
:1018C00001960E94E50B0E94420C0F900F90DF9151
:1018D000CF910895FC0185819681892B59F1A381CF
:1018E000B4813FB7F8949C918281809589238C9331
:1018F000858196810197F1F728E082819C9160FFB4
:1019000003C0982B9C9303C0809589238C93858179
:1019100096810197F1F76695215079F78C91928124
:10192000892B8C933FBF858196810197F1F781E0E8
:1019300090E0089580E090E00895EF92FF921F9369
:10194000CF93DF9300D000D0CDB7DEB77C01162F48
:10195000A8E5B1E0FC01B183A08361E0812F298378
:101960003A834B835C830E94250F61E0812F0E94A4
:10197000EC0E812F90E0FC01E657FF4FE491D70178
:101980001296EC93FC01E256FF4FE491F0E0EE0F6B
:10199000FF1FE454FF4F85919491F7019483838353
:1019A00060E079E08DE390E029813A814B815C81B0
:1019B0000E94561623503109D70116963C932E9358
:1019C00015970F900F900F900F90DF91CF911F916F
:1019D000FF90EF90089528E531E0FC0131832083EA
:1019E00008958230E8F4E82FF0E0EE0FFF1FED508D
:1019F000FD4F71836083813041F0809169008C7F5D
:101A0000842B80936900E89A089580916900440FBF
:101A1000551F440F551F837F842B80936900E99ADB
:101A200008951F920F920FB60F9211242F933F9398
:101A30004F935F936F937F938F939F93AF93BF93D6
:101A4000EF93FF938091F3029091F402892B29F098
:101A5000E091F302F091F4020995FF91EF91BF91AB
:101A6000AF919F918F917F916F915F914F913F9136
:101A70002F910F900FBE0F901F9018951F920F92ED
:101A80000FB60F9211242F933F934F935F936F9351
:101A90007F938F939F93AF93BF93EF93FF93809127
:101AA000F5029091F602892B29F0E091F502F09170
:101AB000F6020995FF91EF91BF91AF919F918F91A0
:101AC0007F916F915F914F913F912F910F900FBE3A
:101AD0000F901F9018951F920F920FB60F9211241E
:101AE0002F933F938F939F93AF93BF938091F8026F
:101AF0009091F902A091FA02B091FB023091F702A5
:101B000023E0230F2D3720F40196A11DB11D05C040
:101B100026E8230F0296A11DB11D2093F7028093A2
:101B2000F8029093F902A093FA02B093FB0280911D
:101B3000FC029091FD02A091FE02B091FF0201967D
:101B4000A11DB11D8093FC029093FD02A093FE02A3
:101B5000B093FF02BF91AF919F918F913F912F91D1
:101B60000F900FBE0F901F9018952FB7F8946091AB
:101B7000F8027091F9028091FA029091FB022FBF56
:101B800008953FB7F8948091FC029091FD02A091D6
:101B9000FE02B091FF0226B5A89B05C02F3F19F0A9
:101BA0000196A11DB11D3FBF6627782F892F9A2F5F
:101BB000620F711D811D911D42E0660F771F881F06
:101BC000991F4A95D1F70895CF92DF92EF92FF9235
:101BD000CF93DF936B017C010E94C10DEB01C11417
:101BE000D104E104F10489F00E9480150E94C10D26
:101BF0006C1B7D0B683E734090F381E0C81AD108DE
:101C0000E108F108C851DC4FEACFDF91CF91FF9096
:101C1000EF90DF90CF900895789484B5826084BD72
:101C200084B5816084BD85B5826085BD85B58160E0
:101C300085BDEEE6F0E0808181608083E1E8F0E040
:101C40001082808182608083808181608083E0E86F
:101C5000F0E0808181608083E1EBF0E0808184604E
:101C60008083E0EBF0E0808181608083EAE7F0E050
:101C700080818460808380818260808380818160B4
:101C800080838081806880831092C10008958E30A7
:101C900008F08E50877020910B0190E4299F9001ED
:101CA0001124822B80937C0080917A008064809341
:101CB0007A0080917A0086FDFCCF80917800209197
:101CC000790090E0922B08951F93CF93DF93182F04
:101CD000EB0161E00E94EC0E209711F460E004C07B
:101CE000CF3FD10539F461E0812FDF91CF911F9172
:101CF0000C94250FE12FF0E0EA58FF4FE491E33018
:101D0000F9F048F4E130B9F0E230A1F584B5806231
:101D100084BDC8BD34C0E730E9F0E83019F1E430E3
:101D200049F580918000806280938000D0938B0081
:101D3000C0938A0024C084B5806884BDC7BD1FC01D
:101D400080918000806880938000D0938900C09348
:101D5000880015C08091B00080688093B000C09367
:101D6000B3000DC08091B00080628093B000C0933A
:101D7000B40005C0C038D1050CF0B5CFAFCFDF91AE
:101D8000CF911F910895833081F028F4813099F02C
:101D90008230A1F008958730A9F08830B9F08430FE
:101DA000D1F4809180008F7D03C0809180008F7777
:101DB00080938000089584B58F7702C084B58F7DAD
:101DC00084BD08958091B0008F7703C08091B000EA
:101DD0008F7D8093B0000895CF93DF9390E0FC0156
:101DE000E657FF4F2491FC01E256FF4F8491882370
:101DF00049F190E0880F991FFC01EA53FF4FA5912C
:101E0000B49184549F4FFC01C591D4919FB7611147
:101E100008C0F8948C91209582238C93888182232A
:101E20000AC0623051F4F8948C91322F309583239C
:101E30008C938881822B888304C0F8948C91822BA8
:101E40008C939FBFDF91CF9108950F931F93CF93F2
:101E5000DF931F92CDB7DEB7282F30E0F901EA58A3
:101E6000FF4F8491F901E657FF4F1491F901E256B3
:101E7000FF4F04910023C9F0882321F069830E9459
:101E8000C30E6981E02FF0E0EE0FFF1FE454FF4F17
:101E9000A591B4919FB7F8948C91611103C01095EE
:101EA000812301C0812B8C939FBF0F90DF91CF9135
:101EB0001F910F910895CF93DF93282F30E0F90100
:101EC000EA58FF4F8491F901E657FF4FD491F90189
:101ED000E256FF4FC491CC2391F081110E94C30EB2
:101EE000EC2FF0E0EE0FFF1FEE54FF4FA591B491E1
:101EF0002C912D2381E090E021F480E002C080E06D
:101F000090E0DF91CF910895FC01818D228D90E0CA
:101F1000805C9F4F821B91098F7399270895FC0164
:101F2000918D828D981731F0828DE80FF11D858D8E
:101F300090E008958FEF9FEF0895FC01918D828DC1
:101F4000981761F0828DDF01A80FB11D5D968C910D
:101F5000928D9F5F9F73928F90E008958FEF9FEF18
:101F6000089581E291E1892B49F080E090E0892B8E
:101F700029F00E94211181110C9400000895FC01A8
:101F8000848DDF01A80FB11DA35ABF4F2C91848D02
:101F900090E001968F739927848FA689B7892C9337
:101FA000A089B1898C9180648C93938D848D9813D2
:101FB00006C00288F389E02D80818F7D808308959B
:101FC000CF93DF93EC01888D8823C9F0EA89FB89E0
:101FD000808185FD05C0A889B9898C9186FD0FC0D7
:101FE0000FB607FCF5CF808185FFF2CFA889B989AC
:101FF0008C9185FFEDCFCE010E94BF0FE7CFDF911F
:10200000CF910895CF92DF92FF920F931F93CF93BA
:10201000DF931F92CDB7DEB76C0181E0D6015896F1
:102020008C9358975B969C915B975C968C915C9790
:10203000981307C05096ED91FC915197808185FDD2
:102040002EC0F601038D10E00F5F1F4F0F73112795
:10205000F02EF601848DF81211C00FB607FCF9CFEF
:10206000D6015096ED91FC915197808185FFF1CF7B
:10207000C60169830E94BF0F6981EBCF838DE80F92
:10208000F11DE35AFF4F6083D6015B960C935B977B
:102090005296ED91FC915397808180620CC0D601DD
:1020A0005696ED91FC91579760835096ED91FC9177
:1020B000519780818064808381E090E00F90DF9170
:1020C000CF911F910F91FF90DF90CF900895BF9215
:1020D000CF92DF92EF92FF92CF93DF93EC016A01F0
:1020E0007B01B22EE889F98982E08083411581EE77
:1020F000580761057105A1F060E079E08DE390E09B
:10210000A70196010E943416215031094109510955
:102110005695479537952795211580E1380798F012
:10212000E889F989108260E874E88EE190E0A701FF
:1021300096010E94341621503109410951095695E2
:10214000479537952795EC85FD853083EE85FF858E
:102150002083188EEC89FD89B082EA89FB89808111
:1021600080618083EA89FB89808188608083EA8935
:10217000FB89808180688083EA89FB8980818F7DEB
:102180008083DF91CF91FF90EF90DF90CF90BF9051
:1021900008951F920F920FB60F9211242F938F93D1
:1021A0009F93EF93FF93E0911003F09111038081CF
:1021B000E0911603F091170382FD12C09081809187
:1021C00019038F5F8F7320911A03821751F0E091EA
:1021D0001903F0E0E050FD4F958F8093190301C083
:1021E0008081FF91EF919F918F912F910F900FBE62
:1021F0000F901F9018951F920F920FB60F921124F7
:102200002F933F934F935F936F937F938F939F93FE
:10221000AF93BF93EF93FF9380E093E00E94BF0FD3
:10222000FF91EF91BF91AF919F918F917F916F91AE
:102230005F914F913F912F910F900FBE0F901F9084
:10224000189580E093E00E94840F21E0892B09F427
:1022500020E0822F0895109203031092020388EE6B
:1022600093E0A0E0B0E08093040390930503A09373
:102270000603B09307038EE591E0909301038093EA
:10228000000385EC90E090930D0380930C0384ECA5
:1022900090E090930F0380930E0380EC90E0909376
:1022A00011038093100381EC90E0909313038093CB
:1022B000120382EC90E0909315038093140386EC54
:1022C00090E09093170380931603109219031092D5
:1022D0001A0310921B0310921C03089508950E9484
:1022E0000C0E0E946E110E94BE00C1EBDFE00E9446
:1022F0001A012097E1F30E94B10FF9CFCF92DF923C
:10230000EF92FF920F931F93CF93DF936C017A01AB
:10231000EB01E60EF71E00E010E0CE15DF0561F0E0
:102320006991D601ED91FC910190F081E02DC601FB
:102330000995080F191FF1CFC801DF91CF911F91A7
:102340000F91FF90EF90DF90CF9008956115710588
:1023500081F0DB010D900020E9F7AD0141505109FA
:10236000461B570BDC01ED91FC910280F381E02DBF
:10237000099480E090E00895DC01ED91FC91DB018F
:1023800014964D915C9115976D917C910280F3812B
:10239000E02D09940C94A6116AE671E00C94A61144
:1023A0000F931F93CF93DF93EC010E94BC118C011C
:1023B000CE010E94CC11800F911FDF91CF911F9110
:1023C0000F9108953F924F925F926F927F928F92FA
:1023D0009F92AF92BF92CF92DF92EF92FF920F93B4
:1023E0001F93CF93DF9300D000D0CDB7DEB78B0122
:1023F00029013A0190910C01981721F09F3F09F0B3
:10240000DAC104C0E0EDF0E0349081C080930C01AB
:10241000E0EDF0E0E491EF3F09F4CDC1E13031F1BE
:10242000E23009F44BC0E11171C014BC15BC94B585
:10243000926094BD95B5916095BD282F30E0F9016B
:10244000E256FF4FE491F0E0EE0FFF1FE454FF4F20
:10245000459154915093AD034093AC03F901E65775
:10246000FF4F24912093AB03312C53C01092800076
:1024700010928100909181009860909381009091DA
:102480008100916090938100282F30E0F901E2569D
:10249000FF4FE491F0E0EE0FFF1FE454FF4F459132
:1024A00054915093A6034093A503F901E657FF4FBB
:1024B00024912093A403332433942BC01092B000B2
:1024C0001092B1009091B00092609093B000909102
:1024D000B10091609093B100282F30E0F901E256ED
:1024E000FF4FE491F0E0EE0FFF1FE454FF4F4591E2
:1024F000549150939F0340939E03F901E657FF4F79
:10250000249120939D0352E0352E03C03E2E37FCCC
:1025100052C161E00E94EC0E4801A12CB12C832D28
:102520008D7F09F0C7C060E072E18AE790E0A50105
:1025300094010E94561629833A834B835C83690178
:102540007A0181E0C81AD108E108F1089FEFC916A5
:10255000D104E104F10409F008F49AC060E472E4E3
:102560008FE090E0A50194010E94561669017A015E
:10257000E1E0CE1AD108E108F108F2E03F1219C0FB
:102580008FEFC816D104E104F10409F008F48AC001
:1025900060E970ED83E090E0A50194010E94561679
:1025A00069017A0191E0C91AD108E108F10883E0D4
:1025B00001C082E0EFEFCE16D104E104F10409F08E
:1025C00008F467C068E478EE81E090E0A50194012A
:1025D0000E94561669017A01F1E0CF1AD108E1088C
:1025E000F1083320E1F082E038121BC09FEFC916DA
:1025F000D104E104F10409F008F4DBC064E274EFF3
:1026000080E090E0A50194010E94561669017A01CC
:10261000E1E0CE1AD108E108F10885E003C083E0CB
:1026200001C084E0FFEFCF16D104E104F10489F189
:1026300080F162E17AE780E090E0A50194010E94D8
:10264000561669017A0181E0C81AD108E108F1083B
:10265000311002C084E001C086E09FEFC916D104AA
:10266000E104F104B1F0A8F0C980DA80EB80FC80CD
:102670009AE0F594E794D794C7949A95D1F7E1E05E
:10268000CE1AD108E108F108332031F087E00BC001
:1026900081E0332011F007C085E095B5987F982B35
:1026A00095BD38C082E09091B100987F982B9093AF
:1026B000B10030C060E072E18AE790E0A5019401CA
:1026C0000E94561669017A01F1E0CF1AD108E1089B
:1026D000F108C114D10481E0E806F10488F068E44F
:1026E00078EE81E090E0A50194010E945616690100
:1026F0007A0191E0C91AD108E108F10893E001C01C
:1027000091E0E1E03E1206C080918100887F892B34
:1027100080938100411451046104710471F0D80167
:10272000AA0FBB1FA30192010E947B1628EE33E083
:1027300040E050E00E94341603C02FEF3FEFA901A4
:10274000F1E03F16A1F082E0381619F1311033C0E4
:10275000C7BC2093AE033093AF034093B0035093B4
:10276000B10380916E00826080936E0024C0D0928D
:102770008900C09288002093A7033093A803409358
:10278000A9035093AA0380916F00826080936F0029
:1027900012C0C092B3002093A0033093A1034093D2
:1027A000A2035093A3038091700082608093700015
:1027B00002C084E078CF0F900F900F900F90DF91C0
:1027C000CF911F910F91FF90EF90DF90CF90BF902E
:1027D000AF909F908F907F906F905F904F903F90C1
:1027E0000895813039F018F0823051F00895109238
:1027F0006E00089580916F008D7F80936F00089523
:10280000809170008D7F8093700081E08093B00094
:102810008091B100887F84608093B1001092B300F2
:102820000895CF93C82F80910C018C1307C0E0ED61
:10283000F0E084919FEF90930C0101C08FEF0E9414
:10284000F11360E08C2FCF910C94250F1F920F9203
:102850000FB60F9211242F933F934F935F936F9373
:102860007F938F939F93AF93BF93EF93FF93809149
:10287000A0039091A103A091A203B091A303892B7F
:102880008A2B8B2B51F190919D03E0919E03F09147
:102890009F038081892780838091A0039091A10369
:1028A000A091A203B091A303181619061A061B06DD
:1028B000C4F48091A0039091A103A091A203B091D0
:1028C000A3030197A109B1098093A0039093A103E9
:1028D000A093A203B093A30304C080910C010E94B3
:1028E0001114FF91EF91BF91AF919F918F917F91C3
:1028F0006F915F914F913F912F910F900FBE0F906D
:102900001F9018954F925F926F927F92AF92BF92F5
:10291000CF92DF92EF92FF920F931F93CF93DF93AB
:10292000CDB7DEB729013A01621B730B840B950BFF
:1029300029893A894B895C892A193B094C095D0927
:10294000298B3A8B4B8B5C8B9B01AC0169897A8913
:102950008B899C890E941816E418F5080609170946
:10296000A80197010E9456162A0D3B1D4C1D5D1DA6
:10297000CA01B901DF91CF911F910F91FF90EF90A4
:10298000DF90CF90BF90AF907F906F905F904F900F
:102990000895FC01808191810C943517CF93DF93CA
:1029A000EC0188819981009711F00E9435171982F6
:1029B00018821D821C821B821A82DF91CF9108959A
:1029C0000F931F93CF93DF93EC018B016F5F7F4FCA
:1029D000888199810E94C417009731F09983888378
:1029E0001B830A8381E001C080E0DF91CF911F91BA
:1029F0000F910895CF93DF93EC0188819981892B02
:102A000029F08A819B818617970760F4CE010E9486
:102A1000E014882341F08C819D81892B19F4E88191
:102A2000F981108281E0DF91CF910895EF92FF92BA
:102A30000F931F93CF93DF93EC017B018A01BA01BF
:102A40000E94FA14811104C0CE010E94CE1407C066
:102A50001D830C83B701888199810E949718CE014C
:102A6000DF91CF911F910F91FF90EF900895FC019E
:102A700011821082138212821582148261157105EF
:102A800059F0FB0101900020E9F7AF0141505109D5
:102A9000461B570B0C9416150895CF93DF93EC014A
:102AA000FB018617970761F06081718161157105DF
:102AB00029F0448155810E94161502C00E94CE144F
:102AC000CE01DF91CF910895FC0111821082138213
:102AD0001282158214820C944D15FC0124813581DB
:102AE0006217730748F480819181009729F0FC01F7
:102AF000E60FF71F8081089580E008950C946D150E
:102B0000089504D06894B1118DC0089570D088F0F4
:102B10009F5790F0B92F9927B751A0F0D1F0660FC9
:102B2000771F881F991F1AF0BA95C9F712C0B130E4
:102B300081F077D0B1E0089574C0672F782F88278F
:102B4000B85F39F0B93FCCF3869577956795B39523
:102B5000D9F73EF490958095709561957F4F8F4F92
:102B60009F4F0895E89409C097FB3EF49095809597
:102B7000709561957F4F8F4F9F4F9923A9F0F92F43
:102B800096E9BB279395F695879577956795B795C1
:102B9000F111F8CFFAF4BB0F11F460FF1BC06F5FA7
:102BA0007F4F8F4F9F4F16C0882311F096E911C0B9
:102BB000772321F09EE8872F762F05C0662371F0DA
:102BC00096E8862F70E060E02AF09A95660F771FEE
:102BD000881FDAF7880F9695879597F9089557FD1E
:102BE0009058440F551F59F05F3F71F04795880F7B
:102BF00097FB991F61F09F3F79F087950895121612
:102C000013061406551FF2CF4695F1DF08C01616BD
:102C100017061806991FF1CF86957105610508946E
:102C20000895E894BB2766277727CB0197F9089585
:102C3000DB018F939F930E947B16BF91AF91A29F60
:102C4000800D911DA39F900DB29F900D11240895AA
:102C5000991B79E004C0991F961708F0961B881FEE
:102C60007A95C9F780950895A1E21A2EAA1BBB1B7D
:102C7000FD010DC0AA1FBB1FEE1FFF1FA217B30748
:102C8000E407F50720F0A21BB30BE40BF50B661F5E
:102C9000771F881F991F1A9469F760957095809522
:102CA00090959B01AC01BD01CF010895052E97FBC6
:102CB0001EF400940E946D1657FD07D00E94341632
:102CC00007FC03D04EF40C946D165095409530954A
:102CD00021953F4F4F4F5F4F089590958095709588
:102CE00061957F4F8F4F9F4F0895EE0FFF1F059007
:102CF000F491E02D09940E948E16A59F900DB49F2B
:102D0000900DA49F800D911D11240895B7FF0C9480
:102D10007B160E947B16821B930B0895A29FB00125
:102D2000B39FC001A39F700D811D1124911DB29FFF
:102D3000700D811D1124911D0895CF93DF93823072
:102D4000910510F482E090E0E091B403F091B503B6
:102D500020E030E0A0E0B0E0309739F140815181CF
:102D600048175907B8F04817590771F482819381C1
:102D7000109729F013969C938E9312972CC09093E2
:102D8000B5038093B40327C02115310531F04217F4
:102D9000530718F0A901DB0101C0EF019A01BD0141
:102DA000DF010280F381E02DD7CF21153105F9F045
:102DB000281B390B2430310580F48A819B816115F1
:102DC000710521F0FB019383828304C09093B503C6
:102DD0008093B403FE01329644C0FE01E20FF31F5C
:102DE0008193919322503109398328833AC02091ED
:102DF000B2033091B303232B41F4209102013091AF
:102E000003013093B3032093B2032091000130916A
:102E100001012115310541F42DB73EB74091040160
:102E200050910501241B350BE091B203F091B303DF
:102E3000E217F307A0F42E1B3F0B2817390778F091
:102E4000AC014E5F5F4F2417350748F04E0F5F1FF0
:102E50005093B3034093B2038193919302C0E0E097
:102E6000F0E0CF01DF91CF910895CF93DF930097EA
:102E700009F487C0FC01329713821282C091B40317
:102E8000D091B503209781F420813181280F391F1B
:102E90008091B2039091B3038217930779F5F09371
:102EA000B303E093B2036DC0DE0120E030E0AE1763
:102EB000BF0750F412964D915C9113979D014115F7
:102EC000510509F1DA01F3CFB383A2834081518127
:102ED000840F951F8A179B0771F48D919C91119710
:102EE000840F951F02969183808312968D919C91F9
:102EF0001397938382832115310529F4F093B50349
:102F0000E093B4033EC0D9011396FC93EE9312975D
:102F10004D915D91A40FB51FEA17FB0779F48081ED
:102F20009181840F951F0296D90111969C938E93DF
:102F30008281938113969C938E931297E0E0F0E048
:102F40008A819B81009719F0FE01EC01F9CFCE0137
:102F5000029628813981820F931F2091B20330910C
:102F6000B3032817390769F4309729F41092B50391
:102F70001092B40302C013821282D093B303C093A1
:102F8000B203DF91CF910895A0E0B0E0EAECF7E161
:102F90000C94B818EC01CB01209719F40E949D16EF
:102FA000B8C0FE01E60FF71F9E0122503109E2175B
:102FB000F30708F4ACC0D9010D911C9111970617C5
:102FC0001707B8F00530110508F49FC0A801445058
:102FD00051094617570708F498C002501109061BFB
:102FE000170B019311936D937C93CF010E943517BA
:102FF0008CC05B01A01AB10A4E01800E911EA091F7
:10300000B403B091B503612C712C60E070E01097AF
:1030100009F449C0A815B905C9F5ED90FC901197C0
:10302000670142E0C40ED11CCA14DB0478F14701E9
:103030008A189B08640142E0C40ED11C1296BC9011
:1030400012971396AC91B5E0CB16D10440F0B28242
:10305000A38391828082D9018D939C9309C00E5FD6
:103060001F4F0E0D1F1DF90111830083EB2DFA2F49
:103070006115710531F0DB011396FC93EE93129705
:1030800044C0F093B503E093B4033FC06D917C91CD
:1030900011976616770608F43B01BD0112960D9054
:1030A000BC91A02DB4CF6091B2037091B3036815A9
:1030B0007905E9F468167906D0F440910001509141
:1030C00001014115510541F44DB75EB7609104010E
:1030D00070910501461B570BE417F507C0F4F093F8
:1030E000B303E093B203F901918380830EC00E9481
:1030F0009D167C01009759F0A801BE010E948E1810
:10310000CE010E943517C70104C0CE0102C080E085
:1031100090E0CDB7DEB7EEE00C94D418FB01DC01F3
:1031200002C001900D9241505040D8F70895FB0124
:10313000DC0101900D920020E1F70895F999FECF8E
:1031400092BD81BDF89A992780B50895262FF999E7
:10315000FECF1FBA92BD81BD20BD0FB6F894FA9A7A
:10316000F99A0FBE019608952F923F924F925F9267
:103170006F927F928F929F92AF92BF92CF92DF9287
:10318000EF92FF920F931F93CF93DF93CDB7DEB7EC
:10319000CA1BDB0B0FB6F894DEBF0FBECDBF099480
:1031A0002A88398848885F846E847D848C849B84D7
:1031B000AA84B984C884DF80EE80FD800C811B81E5
:1031C000AA81B981CE0FD11D0FB6F894DEBF0FBE14
:1031D000CDBFED01089510E0CAEDD0E004C0FE01BE
:1031E0000E9477162296CE3DD107C9F7F894FFCFFB
:1031F0000000B6038000010000000101FF504320E1
:103200006D6F64653A200052656D6F636F6E526F2B
:10321000626F312E300000000000720345031A0374
:1032200022033503440301000100000001000100F6
:103230000000FFFFFFFFFFFF01000100FFFF05048B
:1032400006070B0C000000006A0C000000000210D2
:103250007E11840F9D0F8F0FE00F0D0A006E616EBF
:0C32600000696E66006F7666002E0000AC
:00000001FF
