:100000000C946E000C9452090C947F090C94960089
:100010000C9496000C9496000C9496000C945B1033
:100020000C9496000C9496000C9496000C94AD04DD
:100030000C9496000C9496000C9496000C949600E8
:100040000C94AC090C9496000C94FE0C0C94300D9E
:100050000C9496000C9496000C9496000C949600C8
:100060000C9480030C9496000E000F0010001100F9
:100070001200130014001500000000080002010027
:100080000003040700000000000000000102040853
:1000900010204080010204081020010204081020F2
:1000A000040404040404040402020202020203031E
:1000B00003030303000000002300260029000000C2
:1000C0000000250028002B0000000000240027006D
:1000D0002A000200F1005303600D060111241FBE27
:1000E000CFEFD8E0DEBFCDBF11E0A0E0B1E0EAE79E
:1000F000F9E202C005900D92A835B107D9F723E0C7
:10010000A8E5B1E001C01D92AC37B207E1F710E0FD
:10011000CAEDD0E004C02297FE010E945D12C43DEA
:10012000D107C9F70E94A40D0C94B0140C940000E0
:10013000DC01ED91FC910190F081E02D0994CF93C9
:10014000C82F61E070E086EC92E00E9498006C2F6E
:10015000772767FD709586EC92E0CF910C9498001C
:100160006FEF70E086EC92E00E94980065E570E029
:1001700086EC92E00E94980086EC92E00C94010ECE
:100180000E94610861E08DE00E945A0B6CE271E010
:1001900080E090E00E94190A60E08DE00E945A0B16
:1001A00026E040E052EC61E070E086EC92E00E94D4
:1001B0009C0C64EF71E080E090E00E94190A62E319
:1001C00070E084EF91E00E9426086CE071E086EC1C
:1001D00092E00E94FF0D68EB71E086EC92E00C94D7
:1001E000050ECF93DF9366E171E088EB91E00E940A
:1001F0006C11C0EAD1E0CE010E946905239681E02E
:10020000C83BD807C1F7DF91CF91089588EB91E003
:100210000C94FE10EF92FF920F931F93CF93DF93F6
:10022000CDB7DEB727970FB6F894DEBF0FBECDBFB0
:1002300086EC92E00E94B90B181619060CF08FC1DB
:1002400086EC92E00E94D20B90915801853561F4C2
:1002500091110AC080918F018F3FE1F481E080937A
:100260005A018093580116C080938F01992391F011
:10027000E0915A01E23019F48093590107C0E3304C
:1002800028F090915901915090935901F0E0E55A6E
:10029000FE4F808380915A018F5F843318F48093DE
:1002A0005A0104C010925A011092580180915801CD
:1002B000882309F454C180915901811150C1809162
:1002C0005A01843008F44BC110925801209160010A
:1002D00080915F01823009F4B2C018F4813041F09E
:1002E0003CC1843009F435C1853009F434C135C1CD
:1002F0006FEF70E086EC92E02F830E94980065E536
:1003000070E086EC92E00E94980060915E0186ECBD
:1003100092E00E94370C10916101812F90E02F81B3
:10032000223109F44EC048F4222309F44DC02E3086
:1003300009F080C00E940C087BC02E3109F471C006
:100340002F3109F077C0FC01EE0FFF1FE859FF4F76
:10035000149160E0812F0E94210B812F0E947C0A62
:100360008C0162E070E086EC92E00E949800B80197
:10037000882777FD8095982F0E94B8119B01AB01CB
:10038000BC014093C0015093C1016093C2017093BE
:10039000C301622F86EC92E00E94370C6091C1018C
:1003A00086EC92E00E94370C6091C20186EC92E0EC
:1003B0000E94370C6091C30186EC92E00E94370CDA
:1003C00039C00E94CE0734C068EB71E0CE010196BF
:1003D0000E949911ED80FE8064E070E086EC92E06E
:1003E0000E949800B70186EC92E00E94980000E01D
:1003F00010E00E151F0584F4B801CE0101960E948D
:10040000B311682F772767FD709586EC92E00E9404
:1004100098000F5F1F4FEDCFCE0101960E94FE1096
:1004200009C060E0812F0E94210B812F0E94900B58
:100430000E949F0086EC92E00E94010E8EC0F09018
:1004400061010F2D10E02E31E1F1B0F4253091F172
:100450002A3009F080C0809162018093BE018091B2
:1004600063018093BF016091BE017091BF01C8011B
:1004700001970E948C086FC0213269F1223209F085
:100480006AC0809163018093BE0180916401809372
:10049000BF016091BE017091BF01F092BE018091D9
:1004A00062018093BF018091BE019091BF010E94C3
:1004B000260851C06091620170E0C8010E94C00826
:1004C0004AC061E08F2D0E94210B609162018F2D47
:1004D0000E945A0B40C0F0906201E0E9F1E020E098
:1004E00030E0819191918017910789F0892B41F437
:1004F000F901EE0FFF1FE057FE4F1183008307C085
:100500002F5F3F4F2830310561F720E030E0F901DF
:10051000EE0FFF1FE20FF31FE056FE4F20813181E7
:10052000428129833A834B8384EB8F15A0F0CE015F
:1005300001960E94A106811105C0B801CE01019665
:100540000E9403066F2D70E0CE0101960E943C06CA
:1005500002C00E9461080E94B00010925A012796C2
:100560000FB6F894DEBF0FBECDBFDF91CF911F91C4
:100570000F91FF90EF9008958091F30190E020910A
:10058000F401821B910908952091F4018091F301F7
:10059000281750F4E22FF0E0EB50FE4F808190E0FE
:1005A0002F5F2093F40108958FEF9FEF0895E0915E
:1005B000F4018091F301E81730F4F0E0EB50FE4FC6
:1005C000808190E008958FEF9FEF08950895CF9276
:1005D000DF92EF92FF920F931F93CF93DF937C01F3
:1005E000CB018A012091D001222389F0EB016B011C
:1005F000C40ED51ECC15DD0569F06991D701ED91CA
:10060000FC910190F081E02DC7010995F3CF642F93
:100610000E945703C801DF91CF911F910F91FF9066
:10062000EF90DF90CF900895CF93DF931F92CDB7D7
:10063000DEB769832091D0012223D1F02091D1012E
:10064000203240F021E030E0FC013383228380E05F
:1006500090E015C08091D201E82FF0E0ED52FE4FFE
:10066000998190838F5F8093D2018093D10105C0DF
:1006700061E0CE0101960E94570381E090E00F9067
:10068000DF91CF910895FC011382128248EE53E06E
:1006900060E070E0448355836683778384E291E071
:1006A00091838083089584EC91E00C94430361323C
:1006B00098F420918202243089F460933702FC017F
:1006C00089E392E0DC012A2F281B261718F42191D8
:1006D0002D93F9CF80E0089581E0089582E0089598
:1006E00085ED8093BC008091BC0084FDFCCF10920E
:1006F0008202089585EC8093BC00109282020895D6
:100700001F920F920FB60F9211242F933F934F9386
:100710005F936F937F938F939F93AF93BF93EF9369
:10072000FF938091B900887F803609F49CC068F5FA
:10073000883209F45BC090F4803109F454C038F475
:10074000882309F4F5C0883009F44DC0F5C088311C
:1007500009F44CC0803209F45DC0EEC0803409F465
:1007600068C048F4803309F455C0883309F0E4C008
:1007700080931502A8C0803509F44FC0883509F46C
:100780005DC0883409F0D8C0D5C0883909F4C6C026
:10079000A8F4883709F467C038F4883609F463C0D0
:1007A000803709F460C0C8C0883809F4B7C0803900
:1007B00009F45FC0803809F0BFC05BC0803B09F41A
:1007C00085C038F4803A09F466C0883A09F47EC0DE
:1007D000B3C0803C09F4A6C0883C09F4A3C0883BA0
:1007E00009F489C0A9C08091810210C090915A0279
:1007F00080915902981770F5E0915A0281E08E0FAE
:1008000080935A02F0E0E55AFD4F80818093BB004F
:1008100085EC85C0809315028DC0E0915A0281E07D
:100820008E0F80935A028091BB00F0E0E55AFD4F95
:10083000808390915A02809159026DC0E0915A02D2
:1008400081E08E0F80935A028091BB00F0E0E55A60
:10085000FD4F80838091800281116CC081E0809384
:100860007F0284EA60C083E08093820210921602C5
:10087000CFCF80911602803208F050C0E09116026E
:1008800081E08E0F809316028091BB00F0E0E95E5C
:10089000FD4F8083BDCF80911602803230F4E0910D
:1008A0001602F0E0E95EFD4F10820E947003609135
:1008B000160270E0E0917B02F0917C0287E192E009
:1008C0000995109216020E947A0336C084E0809344
:1008D00082021092380210923702E0917D02F0916C
:1008E0007E02099580913702811105C081E08093D5
:1008F000370210923902E091380281E08E0F809326
:100900003802F0E0E75CFD4F80818093BB0090915E
:10091000380280913702981708F47ACF85E88093DF
:10092000BC000AC085EC8093BC001092820204C017
:10093000109215020E947003FF91EF91BF91AF9149
:100940009F918F917F916F915F914F913F912F91E7
:100950000F900FBE0F901F9018951F920F920FB619
:100960000F9211242F933F934F935F936F937F9335
:100970008F939F93AF93BF93EF93FF9380918402E4
:1009800087FF05C010928500109284001AC0209144
:100990008402332727FD30958091830290E0281749
:1009A00039077CF480918402992787FD9095FC019A
:1009B000EE0FFF1FE80FF91FEB57FD4F808186FDFB
:1009C00015C0809184028F5F8093840220918402FD
:1009D000332727FD30958091830290E0281739074F
:1009E000BCF4809184028C305CF112C0809184024E
:1009F000992787FD9095FC01EE0FFF1FE80FF91F67
:100A0000EB57FD4F808160E08F730E945A0BD9CF66
:100A10008091840090918500049680349C4918F45C
:100A200080E49CE905C08091840090918500049643
:100A300090938900809388008FEF8093840238C060
:100A4000209184003091850080918402992787FD50
:100A50009095FC01EE0FFF1FE80FF91FEB57FD4FBC
:100A600081819281820F931F9093890080938800E7
:100A700080918402992787FD9095FC01EE0FFF1F5E
:100A8000E80FF91FEB57FD4F808186FF11C0809161
:100A90008402992787FD9095FC01EE0FFF1FE80F58
:100AA000F91FEB57FD4F808161E08F730E945A0B55
:100AB000FF91EF91BF91AF919F918F917F916F9136
:100AC0005F914F913F912F910F900FBE0F901F900C
:100AD0001895209183022C30A0F431E0320F30932E
:100AE0008302FC012083822F90E0FC01EE0FFF1FA8
:100AF000E80FF91FEB57FD4F88EB9BE09283818352
:100B000008952FEFFC0120830895DF92EF92FF926A
:100B10000F931F93CF93DF93EC01D62E7A018901B7
:100B200088818C3008F066C061E08D2D0E94210B19
:100B30008881A82FB0E0FD01EE0FFF1FEA0FFB1F19
:100B4000EB57FD4F2D2D2F739081907C922B90832E
:100B500060E272E06E197F0977FF02C06D5F7F4F20
:100B60007595679575956795698340E659E0401BD3
:100B7000510B57FF02C04D5F5F4F559547955595F7
:100B800047954A836CE00E9403129CE0899FB00164
:100B9000112420E030E0A901460F571FFA01EE0FA3
:100BA000FF1FE40FF51FEB57FD4F908196FD16C018
:100BB0002F5F3F4F2C30310571F781110FC010921C
:100BC000800082E080938100109285001092840062
:100BD000B19A80916F00826080936F00888190E06D
:100BE000FC01EE0FFF1FE80FF91FEB57FD4F80814F
:100BF000806480838881DF91CF911F910F91FF9056
:100C0000EF90DF90089520E639E040E252E00C9446
:100C10008505FC0180818C3070F5918128E830E0F9
:100C2000291B310997FD3395220F331F220F331FE4
:100C3000621773077CF0928128E532E0291B3109A5
:100C400097FD3395220F331F220F331F621773074F
:100C50000CF49B0122503109220F331F4FB7F89437
:100C600090E0FC01EE0FFF1FE80FF91FEB57FD4F5F
:100C7000328321834FBF08954F925F926F927F928C
:100C8000AF92BF92CF92DF92EF92FF920F931F939A
:100C9000CF93DF93EC01603282E078070CF040C024
:100CA00077FD06C0653B71052CF064EB70E002C077
:100CB00060E070E0898128E830E0281B310987FD79
:100CC0003395220F331F220F331F5901CC24B7FC59
:100CD000C094DC2C882777FD8095982F2A8148E5E1
:100CE00052E0421B510927FD5395440F551F440FF5
:100CF000551F2A01662457FC6094762C7F926F92D0
:100D00005F924F9214EBE12EF12C00E010E020E016
:100D100030E0A9010E94B7100F900F900F900F9034
:100D2000CE01DF91CF911F910F91FF90EF90DF9057
:100D3000CF90BF90AF907F906F905F904F900C944A
:100D40000906FC01808190E0FC01EE0FFF1FE80F17
:100D5000F91FEB57FD4F808186FB882780F90895A6
:100D6000CF92DF92EF92FF920F931F93CF9382E087
:100D70000E94900BC1E0C8270E94F6090091AA02C8
:100D80001091AB022091AC023091AD026B017C015D
:100D9000C01AD10AE20AF30AC114D10441E0E40600
:100DA000F10460F40091AA021091AB022091AC0210
:100DB0003091AD029B01201B310B02C02FEF3FEFA2
:100DC0006093AA027093AB028093AC029093AD0241
:100DD0009091B802923061F028F4992349F0913053
:100DE00069F409C0943021F030F0953039F403C033
:100DF000C11104C0B1C0C13009F4AAC08091B802C9
:100E00008230C1F028F4882359F0813059F0A6C00F
:100E1000843009F464C008F1853009F49DC09EC097
:100E200081E097C02D553A412739314108F094C0EF
:100E300082E08FC0C9018E529D408D3C984008F0E1
:100E400087C01092B3021092B4021092B5021092B1
:100E5000B6021092B70283E07CC0235A31402B3196
:100E6000314008F079C08091B7028032B0F18091B2
:100E7000B3029091B402A091B502B091B602409134
:100E8000B3025091B4026091B5027091B602892FFD
:100E90009A2FAB2FBB2784279527A627B7279927FB
:100EA000BB278F3F9105AF4FB10509F055C0809129
:100EB000B3029091B402A091B502B091B602992705
:100EC000BB278093AF029093B002A093B102B0937E
:100ED000B20281E08093AE023FC084E03AC083E07A
:100EE0008093B8028091B3029091B402A091B502B0
:100EF000B091B602B695A795979587958093B30262
:100F00009093B402A093B502B093B6028091B70259
:100F10008F5F8093B702C901835F94408F34934001
:100F200090F48091B3029091B402A091B502B09177
:100F3000B602B0688093B3029093B402A093B50256
:100F4000B093B6020BC0235A31402B31314030F000
:100F500085E08093B80202C01092B802CF911F9131
:100F60000F91FF90EF90DF90CF90089560E082E0C6
:100F70000E94210B41E050E060EB76E080E00E94AF
:100F800032091092B8021092AF021092B002109281
:100F9000B1021092B2021092AE0208950F931F9305
:100FA0008091AF029091B002A091B102B091B202D3
:100FB000892B8A2B8B2BB9F08091B802811113C039
:100FC0000E94F6090091AA021091AB022091AC0296
:100FD0003091AD02601B710B820B930B603B7D4A1D
:100FE0008140910568F48091AF029091B002A09188
:100FF000B102B091B2028A2F90E01F910F91089533
:101000001092AF021092B0021092B1021092B2028E
:1010100081E08093AE02E7CFCF93DF93EC018F3F67
:10102000910539F40E94CE0731E020E0892B49F484
:1010300007C00E94CE0731E020E08C179D0709F021
:1010400030E0832F922FDF91CF9108957F928F927E
:101050009F92AF92BF92CF92DF92EF92FF920F9347
:101060001F93CF93DF93F0EBAF2EB12CF50170807F
:1010700001EB10E0F8018080C3EBD0E098806B01B9
:10108000EE24D7FCE094FE2CA7019601BC0188E079
:101090000E94170EC701B6010E94190AF50170825D
:1010A000F80180829882DF91CF911F910F91FF907C
:1010B000EF90DF90CF90BF90AF909F908F907F90F8
:1010C000089561E084E00E94210B61E087E00E94C6
:1010D000210B61E08CE00E94210B61E088E00E941E
:1010E000210B61E08DE00E94210B83E084BD85BD72
:1010F00091E0909380009BE0909381008093B000FA
:1011000084E08093B1000E94B60780E090E00E94E6
:1011100071148093A90208950F931F93CF93DF93C7
:10112000EB01880F991F6F3F710509F03CF46130A6
:101130002FEF72077CF077FF03C00EC0CFEFD0E037
:101140008C01005D1E4F61E0F80181810E945A0B05
:10115000BE010EC0C1E0DFEF8C01005D1E4F60E0FC
:10116000F80181810E945A0B662777276C1B7D0B43
:10117000F8018081DF91CF911F910F910C94990A12
:101180000F931F93CF93DF938B016115710511F1BD
:101190002091A90227FD0BC02091A9022603E0019E
:1011A000279FD00D1124CD2FDD0FDD0B15C0209111
:1011B000A902332721950CF43095209FB001219F7F
:1011C000700D309F700D1124672F770F770BC0E0E3
:1011D000D0E004C0C0E0D0E060E070E08230910573
:1011E00001F13CF4009771F00197B9F560E070E00F
:1011F00010C08430910549F0ECF0059771F5601B43
:10120000710B1CC0601B710B04C0C801861B970BBF
:10121000BC0181E090E00E948C08B8016C1B7D0B42
:1012200014C0601B710B81E090E00E948C0860E0AC
:1012300070E00BC0C801861B970BBC0181E090E0F9
:101240000E948C08BE01601B710B80E090E0DF9172
:10125000CF911F910F910C948C08DF91CF911F912A
:101260000F9108958230E8F4E82FF0E0EE0FFF1FB1
:10127000E754FD4F71836083813041F080916900B4
:101280008C7F842B80936900E89A0895809169008F
:10129000440F551F440F551F837F842B8093690093
:1012A000E99A08951F920F920FB60F9211242F936F
:1012B0003F934F935F936F937F938F939F93AF93DE
:1012C000BF93EF93FF938091B9029091BA02892B5B
:1012D00029F0E091B902F091BA020995FF91EF91DE
:1012E000BF91AF919F918F917F916F915F914F913E
:1012F0003F912F910F900FBE0F901F9018951F9246
:101300000F920FB60F9211242F933F934F935F9339
:101310006F937F938F939F93AF93BF93EF93FF93BD
:101320008091BB029091BC02892B29F0E091BB0215
:10133000F091BC020995FF91EF91BF91AF919F9100
:101340008F917F916F915F914F913F912F910F906E
:101350000FBE0F901F9018951F920F920FB60F920D
:1013600011242F933F938F939F93AF93BF938091BB
:10137000BE029091BF02A091C002B091C102309113
:10138000BD0223E0230F2D3720F40196A11DB11DCE
:1013900005C026E8230F0296A11DB11D2093BD02B2
:1013A0008093BE029093BF02A093C002B093C1028B
:1013B0008091C2029091C302A091C402B091C50273
:1013C0000196A11DB11D8093C2029093C302A09308
:1013D000C402B093C502BF91AF919F918F913F918D
:1013E0002F910F900FBE0F901F9018953FB7F89454
:1013F0008091C2029091C302A091C402B091C50233
:1014000026B5A89B05C02F3F19F00196A11DB11D5F
:101410003FBF6627782F892F9A2F620F711D811D7C
:10142000911D42E0660F771F881F991F4A95D1F7DB
:101430000895CF92DF92EF92FF92CF93DF936B01EB
:101440007C010E94F609EB01C114D104E104F1040E
:1014500089F00E94B5110E94F6096C1B7D0B683E55
:10146000734090F381E0C81AD108E108F108C8512F
:10147000DC4FEACFDF91CF91FF90EF90DF90CF90DC
:101480000895789484B5826084BD84B5816084BDFC
:1014900085B5826085BD85B5816085BDEEE6F0E0ED
:1014A000808181608083E1E8F0E010828081826049
:1014B0008083808181608083E0E8F0E080818160CA
:1014C0008083E1EBF0E0808184608083E0EBF0E0FA
:1014D000808181608083EAE7F0E08081846080839E
:1014E0008081826080838081816080838081806848
:1014F00080831092C10008958E3008F08E5087705E
:1015000020910A0190E4299F90011124822B80935D
:101510007C0080917A00806480937A0080917A00C8
:1015200086FDFCCF809178002091790090E0922B8D
:1015300008951F93CF93DF93182FEB0161E00E9472
:10154000210B209711F460E004C0CF3FD10539F49E
:1015500061E0812FDF91CF911F910C945A0BE12F05
:10156000F0E0E858FF4FE491E330F9F048F4E1305F
:10157000B9F0E230A1F584B5806284BDC8BD34C045
:10158000E730E9F0E83019F1E43049F58091800066
:10159000806280938000D0938B00C0938A0024C027
:1015A00084B5806884BDC7BD1FC0809180008068FD
:1015B00080938000D0938900C093880015C08091EB
:1015C000B00080688093B000C093B3000DC08091DC
:1015D000B00080628093B000C093B40005C0C038F2
:1015E000D1050CF0B5CFAFCFDF91CF911F9108950A
:1015F000833081F028F4813099F08230A1F0089591
:101600008730A9F08830B9F08430D1F4809180001F
:101610008F7D03C0809180008F7780938000089534
:1016200084B58F7702C084B58F7D84BD0895809185
:10163000B0008F7703C08091B0008F7D8093B000A1
:101640000895CF93DF9390E0FC01E457FF4F24917E
:10165000FC01E056FF4F8491882349F190E0880F08
:10166000991FFC01E853FF4FA591B49182549F4FFD
:10167000FC01C591D4919FB7611108C0F8948C9179
:10168000209582238C93888182230AC0623051F492
:10169000F8948C91322F309583238C938881822B00
:1016A000888304C0F8948C91822B8C939FBFDF9128
:1016B000CF9108950F931F93CF93DF931F92CDB7D0
:1016C000DEB7282F30E0F901E858FF4F8491F90187
:1016D000E457FF4F1491F901E056FF4F04910023A6
:1016E000C9F0882321F069830E94F80A6981E02FFC
:1016F000F0E0EE0FFF1FE254FF4FA591B4919FB7AA
:10170000F8948C91611103C01095812301C0812B45
:101710008C939FBF0F90DF91CF911F910F910895F0
:10172000CF93DF93282F30E0F901E858FF4F8491E1
:10173000F901E457FF4FD491F901E056FF4FC491EE
:10174000CC2391F081110E94F80AEC2FF0E0EE0F0B
:10175000FF1FEC54FF4FA591B4912C912D2381E0F4
:1017600090E021F480E002C080E090E0DF91CF9132
:101770000895FC01818D228D90E0805C9F4F821B3B
:1017800091098F7399270895FC01918D828D981787
:1017900031F0828DE80FF11D858D90E008958FEF77
:1017A0009FEF0895FC01918D828D981761F0828DD5
:1017B000DF01A80FB11D5D968C91928D9F5F9F7385
:1017C000928F90E008958FEF9FEF089586E59DE05A
:1017D000892B49F080E090E0892B29F00E94560D7A
:1017E00081110C9400000895FC01848DDF01A80F85
:1017F000B11DA35ABF4F2C91848D90E001968F7339
:101800009927848FA689B7892C93A089B1898C9157
:1018100080648C93938D848D981306C00288F3891D
:10182000E02D80818F7D80830895CF93DF93EC013D
:10183000888D8823C9F0EA89FB89808185FD05C0F0
:10184000A889B9898C9186FD0FC00FB607FCF5CF2A
:10185000808185FFF2CFA889B9898C9185FFEDCF72
:10186000CE010E94F40BE7CFDF91CF910895CF9284
:10187000DF92FF920F931F93CF93DF931F92CDB709
:10188000DEB76C0181E0D60158968C9358975B9631
:101890009C915B975C968C915C97981307C05096CF
:1018A000ED91FC915197808185FD2EC0F601038D4D
:1018B00010E00F5F1F4F0F731127F02EF601848D7C
:1018C000F81211C00FB607FCF9CFD6015096ED9172
:1018D000FC915197808185FFF1CFC60169830E94F9
:1018E000F40B6981EBCF838DE80FF11DE35AFF4FB5
:1018F0006083D6015B960C935B975296ED91FC91B9
:101900005397808180620CC0D6015696ED91FC9170
:10191000579760835096ED91FC9151978081806438
:10192000808381E090E00F90DF91CF911F910F9124
:10193000FF90DF90CF900895BF92CF92DF92EF9209
:10194000FF92CF93DF93EC016A017B01B22EE8890D
:10195000F98982E08083411581EE580761057105A0
:10196000A1F060E079E08DE390E0A70196010E948C
:101970000F12215031094109510956954795379564
:101980002795211580E1380798F0E889F9891082B8
:1019900060E874E88EE190E0A70196010E940F12C2
:1019A0002150310941095109569547953795279599
:1019B000EC85FD853083EE85FF852083188EEC89CC
:1019C000FD89B082EA89FB89808180618083EA8910
:1019D000FB89808188608083EA89FB8980818068B7
:1019E0008083EA89FB8980818F7D8083DF91CF911D
:1019F000FF90EF90DF90CF90BF9008951F920F92CD
:101A00000FB60F9211242F938F939F93EF93FF9311
:101A1000E091D602F091D7028081E091DC02F09152
:101A2000DD0282FD12C090818091DF028F5F8F7393
:101A30002091E002821751F0E091DF02F0E0EA53DA
:101A4000FD4F958F8093DF0201C08081FF91EF9160
:101A50009F918F912F910F900FBE0F901F9018950F
:101A60001F920F920FB60F9211242F933F934F9313
:101A70005F936F937F938F939F93AF93BF93EF93F6
:101A8000FF9386EC92E00E94F40BFF91EF91BF91DF
:101A9000AF919F918F917F916F915F914F913F9106
:101AA0002F910F900FBE0F901F90189586EC92E02B
:101AB0000E94B90B21E0892B09F420E0822F0895C0
:101AC0001092C9021092C80288EE93E0A0E0B0E044
:101AD0008093CA029093CB02A093CC02B093CD0224
:101AE0008AE391E09093C7028093C60285EC90E070
:101AF0009093D3028093D20284EC90E09093D5022D
:101B00008093D40280EC90E09093D7028093D60229
:101B100081EC90E09093D9028093D80282EC90E01F
:101B20009093DB028093DA0286EC90E09093DD02E2
:101B30008093DC021092DF021092E0021092E10228
:101B40001092E202089508950E94410A0E94A30D96
:101B50000E94C000C6EEDBE00E940A012097E1F37C
:101B60000E94E60BF9CFCF92DF92EF92FF920F9394
:101B70001F93CF93DF936C017A01EB01E60EF71E02
:101B800000E010E0CE15DF0561F06991D601ED911E
:101B9000FC910190F081E02DC6010995080F191FF5
:101BA000F1CFC801DF91CF911F910F91FF90EF907E
:101BB000DF90CF9008956115710581F0DB010D90E4
:101BC0000020E9F7AD0141505109461B570BDC01DC
:101BD000ED91FC910280F381E02D099480E090E08A
:101BE0000895DC01ED91FC91DB0114964D915C911F
:101BF00015976D917C910280F381E02D09940C94EE
:101C0000DB0D66E471E00C94DB0D0F931F93CF9313
:101C1000DF93EC010E94F10D8C01CE010E94010EB8
:101C2000800F911FDF91CF911F910F9108953F92E7
:101C30004F925F926F927F928F929F92AF92BF92DC
:101C4000CF92DF92EF92FF920F931F93CF93DF9388
:101C500000D000D0CDB7DEB78B0129013A019091B9
:101C60000B01981721F09F3F09F0DAC104C0E2EDA3
:101C7000F0E0349081C080930B01E2EDF0E0E4915C
:101C8000EF3F09F4CDC1E13031F1E23009F44BC04E
:101C9000E11171C014BC15BC94B5926094BD95B5AA
:101CA000916095BD282F30E0F901E056FF4FE49197
:101CB000F0E0EE0FFF1FE254FF4F45915491509317
:101CC000730340937203F901E457FF4F249120936B
:101CD0007103312C53C010928000109281009091BA
:101CE0008100986090938100909181009160909321
:101CF0008100282F30E0F901E056FF4FE491F0E039
:101D0000EE0FFF1FE254FF4F4591549150936C0327
:101D100040936B03F901E457FF4F249120936A032A
:101D2000332433942BC01092B0001092B1009091E4
:101D3000B00092609093B0009091B1009160909348
:101D4000B100282F30E0F901E056FF4FE491F0E0B8
:101D5000EE0FFF1FE254FF4F4591549150936503DE
:101D600040936403F901E457FF4F249120936303E8
:101D700052E0352E03C03E2E37FC52C161E00E9476
:101D8000210B4801A12CB12C832D8D7F09F0C7C0F8
:101D900060E072E18AE790E0A50194010E943112AF
:101DA00029833A834B835C8369017A0181E0C81AF5
:101DB000D108E108F1089FEFC916D104E104F1044C
:101DC00009F008F49AC060E472E48FE090E0A501A5
:101DD00094010E94311269017A01E1E0CE1AD10822
:101DE000E108F108F2E03F1219C08FEFC816D104E4
:101DF000E104F10409F008F48AC060E970ED83E0C1
:101E000090E0A50194010E94311269017A0191E0EC
:101E1000C91AD108E108F10883E001C082E0EFEFC0
:101E2000CE16D104E104F10409F008F467C068E4B7
:101E300078EE81E090E0A50194010E9431126901E1
:101E40007A01F1E0CF1AD108E108F1083320E1F07E
:101E500082E038121BC09FEFC916D104E104F104DF
:101E600009F008F4DBC064E274EF80E090E0A501C3
:101E700094010E94311269017A01E1E0CE1AD10881
:101E8000E108F10885E003C083E001C084E0FFEFD2
:101E9000CF16D104E104F10489F180F162E17AE71F
:101EA00080E090E0A50194010E94311269017A015D
:101EB00081E0C81AD108E108F108311002C084E0BD
:101EC00001C086E09FEFC916D104E104F104B1F02E
:101ED000A8F0C980DA80EB80FC809AE0F594E79462
:101EE000D794C7949A95D1F7E1E0CE1AD108E108CA
:101EF000F108332031F087E00BC081E0332011F08E
:101F000007C085E095B5987F982B95BD38C082E0D5
:101F10009091B100987F982B9093B10030C060E011
:101F200072E18AE790E0A50194010E9431126901F3
:101F30007A01F1E0CF1AD108E108F108C114D10407
:101F400081E0E806F10488F068E478EE81E090E052
:101F5000A50194010E94311269017A0191E0C91A28
:101F6000D108E108F10893E001C091E0E1E03E1200
:101F700006C080918100887F892B80938100411465
:101F800051046104710471F0D801AA0FBB1FA301B1
:101F900092010E94501228EE33E040E050E00E948F
:101FA0000F1203C02FEF3FEFA901F1E03F16A1F0A0
:101FB00082E0381619F1311033C0C7BC2093740386
:101FC00030937503409376035093770380916E00AE
:101FD000826080936E0024C0D0928900C0928800F5
:101FE00020936D0330936E0340936F0350937003FF
:101FF00080916F00826080936F0012C0C092B30026
:1020000020936603309367034093680350936903FA
:102010008091700082608093700002C084E078CF6D
:102020000F900F900F900F90DF91CF911F910F9114
:10203000FF90EF90DF90CF90BF90AF909F908F90E8
:102040007F906F905F904F903F900895813039F06E
:1020500018F0823051F0089510926E00089580912A
:102060006F008D7F80936F000895809170008D7F49
:102070008093700081E08093B0008091B100887FF0
:1020800084608093B1001092B3000895CF93C82F5D
:1020900080910B018C1307C0E2EDF0E084919FEF7B
:1020A00090930B0101C08FEF0E94261060E08C2FEF
:1020B000CF910C945A0B1F920F920FB60F921124CE
:1020C0002F933F934F935F936F937F938F939F9340
:1020D000AF93BF93EF93FF93809166039091670353
:1020E000A0916803B0916903892B8A2B8B2B51F146
:1020F00090916303E0916403F091650380818927E7
:1021000080838091660390916703A0916803B091EA
:102110006903181619061A061B06C4F48091660393
:1021200090916703A0916803B09169030197A10999
:10213000B1098093660390936703A0936803B093FB
:10214000690304C080910B010E944610FF91EF913A
:10215000BF91AF919F918F917F916F915F914F91BF
:102160003F912F910F900FBE0F901F9018954F9297
:102170005F926F927F92AF92BF92CF92DF92EF9277
:10218000FF920F931F93CF93DF93CDB7DEB7290153
:102190003A01621B730B840B950B29893A894B8991
:1021A0005C892A193B094C095D09298B3A8B4B8BB9
:1021B0005C8B9B01AC0169897A898B899C890E941F
:1021C000F311E418F50806091709A80197010E9400
:1021D00031122A0D3B1D4C1D5D1DCA01B901DF9155
:1021E000CF911F910F91FF90EF90DF90CF90BF9014
:1021F000AF907F906F905F904F900895FC01808129
:1022000091810C940813CF93DF93EC01888199811D
:10221000009711F00E940813198218821D821C82F7
:102220001B821A82DF91CF9108950F931F93CF9352
:10223000DF93EC018B016F5F7F4F888199810E9452
:102240009713009731F0998388831B830A8381E079
:1022500001C080E0DF91CF911F910F910895CF933E
:10226000DF93EC0188819981892B29F08A819B81F8
:102270008617970760F4CE010E941511882341F05C
:102280008C819D81892B19F4E881F981108281E08C
:10229000DF91CF910895EF92FF920F931F93CF9309
:1022A000DF93EC017B018A01BA010E942F11811199
:1022B00004C0CE010E94031107C01D830C83B70127
:1022C000888199810E946A14CE01DF91CF911F917C
:1022D0000F91FF90EF900895FC01118210821382FC
:1022E0001282158214826115710559F0FB0101906B
:1022F0000020E9F7AF0141505109461B570B0C94E0
:102300004B110895CF93DF93EC01FB0186179707DC
:1023100061F0608171816115710529F044815581F9
:102320000E944B1102C00E940311CE01DF91CF9198
:102330000895FC0111821082138212821582148288
:102340000C948211FC01248135816217730748F4D3
:1023500080819181009729F0FC01E60FF71F8081B1
:10236000089580E008950C94A2110895E89409C09E
:1023700097FB3EF490958095709561957F4F8F4FB8
:102380009F4F9923A9F0F92F96E9BB279395F695CE
:10239000879577956795B795F111F8CFFAF4BB0F4C
:1023A00011F460FF1BC06F5F7F4F8F4F9F4F16C0B0
:1023B000882311F096E911C0772321F09EE8872F3A
:1023C000762F05C0662371F096E8862F70E060E0F6
:1023D0002AF09A95660F771F881FDAF7880F96956F
:1023E000879597F90895DB018F939F930E94501270
:1023F000BF91AF91A29F800D911DA39F900DB29FA1
:10240000900D11240895991B79E004C0991F961727
:1024100008F0961B881F7A95C9F780950895A1E268
:102420001A2EAA1BBB1BFD010DC0AA1FBB1FEE1F4E
:10243000FF1FA217B307E407F50720F0A21BB30B99
:10244000E40BF50B661F771F881F991F1A9469F715
:1024500060957095809590959B01AC01BD01CF0171
:102460000895052E97FB1EF400940E94481257FD14
:1024700007D00E940F1207FC03D04EF40C944812B0
:1024800050954095309521953F4F4F4F5F4F0895A0
:1024900090958095709561957F4F8F4F9F4F0895D0
:1024A0000E946112A59F900DB49F900DA49F800D76
:1024B000911D11240895EE0FFF1F0590F491E02D5A
:1024C0000994A29FB001B39FC001A39F700D811D0D
:1024D0001124911DB29F700D811D1124911D08952D
:1024E000CF93DF938230910510F482E090E0E09189
:1024F0007A03F0917B0320E030E0A0E0B0E0309779
:1025000039F14081518148175907B8F048175907E8
:1025100071F482819381109729F013969C938E9386
:1025200012972CC090937B0380937A0327C02115C8
:10253000310531F04217530718F0A901DB0101C042
:10254000EF019A01BD01DF010280F381E02DD7CFB9
:1025500021153105F9F0281B390B2430310580F4A1
:102560008A819B816115710521F0FB019383828330
:1025700004C090937B0380937A03FE01329644C09B
:10258000FE01E20FF31F81939193225031093983A9
:1025900028833AC02091780330917903232B41F4AA
:1025A0002091020130910301309379032093780345
:1025B00020910001309101012115310541F42DB721
:1025C0003EB74091040150910501241B350BE09169
:1025D0007803F0917903E217F307A0F42E1B3F0B69
:1025E0002817390778F0AC014E5F5F4F2417350785
:1025F00048F04E0F5F1F5093790340937803819307
:10260000919302C0E0E0F0E0CF01DF91CF91089517
:10261000CF93DF93009709F487C0FC0132971382B0
:102620001282C0917A03D0917B03209781F420819C
:102630003181280F391F8091780390917903821797
:10264000930779F5F0937903E09378036DC0DE0189
:1026500020E030E0AE17BF0750F412964D915C9128
:1026600013979D014115510509F1DA01F3CFB383A9
:10267000A28340815181840F951F8A179B0771F4B3
:102680008D919C911197840F951F02969183808361
:1026900012968D919C911397938382832115310516
:1026A00029F4F0937B03E0937A033EC0D90113969B
:1026B000FC93EE9312974D915D91A40FB51FEA170D
:1026C000FB0779F480819181840F951F0296D901CF
:1026D00011969C938E938281938113969C938E93F3
:1026E0001297E0E0F0E08A819B81009719F0FE01EB
:1026F000EC01F9CFCE01029628813981820F931F18
:1027000020917803309179032817390769F43097BD
:1027100029F410927B0310927A0302C01382128272
:10272000D0937903C0937803DF91CF910895A0E00F
:10273000B0E0EDE9F3E10C947D14EC01CB012097BE
:1027400019F40E947012B8C0FE01E60FF71F9E0137
:1027500022503109E217F30708F4ACC0D9010D91FA
:102760001C91119706171707B8F00530110508F4EA
:102770009FC0A801445051094617570708F498C054
:1027800002501109061B170B019311936D937C9353
:10279000CF010E9408138CC05B01A01AB10A4E0140
:1027A000800E911EA0917A03B0917B03612C712C55
:1027B00060E070E0109709F449C0A815B905C9F5A3
:1027C000ED90FC901197670142E0C40ED11CCA1431
:1027D000DB0478F147018A189B08640142E0C40ECB
:1027E000D11C1296BC9012971396AC91B5E0CB1603
:1027F000D10440F0B282A38391828082D9018D936B
:102800009C9309C00E5F1F4F0E0D1F1DF901118310
:102810000083EB2DFA2F6115710531F0DB01139662
:10282000FC93EE93129744C0F0937B03E0937A03FA
:102830003FC06D917C9111976616770608F43B01B5
:10284000BD0112960D90BC91A02DB4CF609178037C
:102850007091790368157905E9F468167906D0F462
:1028600040910001509101014115510541F44DB7CE
:102870005EB76091040170910501461B570BE41788
:10288000F507C0F4F0937903E0937803F90191839D
:1028900080830EC00E9470127C01009759F0A8013D
:1028A000BE010E946114CE010E940813C70104C03A
:1028B000CE0102C080E090E0CDB7DEB7EEE00C9430
:1028C0009914FB01DC0102C001900D92415050406F
:1028D000D8F70895FB01DC0101900D920020E1F78B
:1028E0000895F999FECF92BD81BDF89A992780B5D8
:1028F00008952F923F924F925F926F927F928F92A4
:102900009F92AF92BF92CF92DF92EF92FF920F937E
:102910001F93CF93DF93CDB7DEB7CA1BDB0B0FB688
:10292000F894DEBF0FBECDBF09942A883988488845
:102930005F846E847D848C849B84AA84B984C884DB
:10294000DF80EE80FD800C811B81AA81B981CE0FD2
:10295000D11D0FB6F894DEBF0FBECDBFED010895B7
:1029600010E0CAEDD0E004C0FE010E945D12229684
:0A297000CC3DD107C9F7F894FFCF62
:10297A0000007C0380000100000001FF56657273AD
:10298A00696F6E3A200030362E30312E31303600E3
:10299A00000000001403E702BC02C402D702E602E8
:1029AA00050406070B0C00000000370CB30DB90B29
:1029BA00D20BC40B150C0D0A006E616E00696E66AF
:0829CA00006F7666002E00008C
:00000001FF
