:100000000C946A000C941C080C94F5070C94920054
:100010000C9492000C9492000C9492000C9443085F
:100020000C9492000C9492000C9492000C94920008
:100030000C9492000C9492000C9492000C949200F8
:100040000C94AB070C9492000C9492000C949200C8
:100050000C9492000C9492000C9492000C949200D8
:100060000C9492000C949200D105D505D105D505CC
:10007000D105D505D8050000000023002600290081
:100080000200000000240027002A000000000025D4
:100090000028002B000404040404040404020202E7
:1000A00002020203030303030301020408102040B9
:1000B0008001020408102001020408102000000042
:1000C0000800020100000304070000000000000017
:1000D0000000B30B11241FBECFEFD8E0DEBFCDBFB1
:1000E00011E0A0E0B1E0E4ECF8E102C005900D926F
:1000F000AC32B107D9F721E0ACE2B1E001C01D920A
:10010000AF36B207E1F710E0CAE6D0E004C02197AD
:10011000FE010E94310CC936D107C9F70E94C508FB
:100120000C94600C0C940000833081F028F4813032
:1001300099F08230A1F008958730A9F08830B9F0A5
:100140008430D1F4809180008F7D03C08091800045
:100150008F7780938000089584B58F7702C084B52F
:100160008F7D84BD08958091B0008F7703C080910A
:10017000B0008F7D8093B00008951F93CF93DF93DD
:10018000282F30E0F901E354FF4F8491F901E7553E
:10019000FF4FD491F901EB56FF4FC491CC23C1F02E
:1001A000162F81110E949400EC2FF0E0EE0FFF1F3C
:1001B000E557FF4FA591B4919FB7F894111104C072
:1001C0008C91D095D82302C0EC91DE2BDC939FBF9D
:1001D000DF91CF911F910895CF93DF9390E0FC01C1
:1001E000E755FF4F2491FC01EB56FF4F8491882384
:1001F00061F190E0880F991FFC01EF57FF4FC59107
:10020000D491FC01E557FF4FA591B491611109C04C
:100210009FB7F8948881209582238883EC912E23C0
:100220000BC0623061F49FB7F8948881322F30950B
:1002300083238883EC912E2B2C939FBF06C08FB70E
:10024000F894E8812E2B28838FBFDF91CF910895FA
:100250001F93CF93DF93182FEB0161E00E94EC0016
:10026000209711F460E004C0CF3FD10539F461E07C
:10027000812FDF91CF911F910C94BD00E12FF0E011
:10028000E354FF4FE491E330F9F048F4E130B9F082
:10029000E230A1F584B5806284BDC8BD34C0E730CA
:1002A000E9F0E83019F1E43049F58091800080628E
:1002B00080938000D0938B00C0938A0024C084B5C3
:1002C000806884BDC7BD1FC0809180008068809316
:1002D0008000D0938900C093880015C08091B00041
:1002E00080688093B000C093B3000DC08091B000CF
:1002F00080628093B000C093B40005C0C038D105BF
:100300000CF0B5CFAFCFDF91CF911F9108953FB7DC
:10031000F89480916B0190916C01A0916D01B09166
:100320006E0126B5A89B05C02F3F19F00196A11DAF
:10033000B11D3FBFBA2FA92F982F8827820F911D7B
:10034000A11DB11DBC01CD0142E0660F771F881FC2
:10035000991F4A95D1F708958F929F92AF92BF92BD
:10036000CF92DF92EF92FF926B017C010E94870196
:100370004B015C01C114D104E104F104F1F00E94CD
:100380008701DC01CB0188199909AA09BB09883EBC
:100390009340A105B10570F321E0C21AD108E1082C
:1003A000F10888EE880E83E0981EA11CB11CC114D0
:1003B000D104E104F10419F7DDCFFF90EF90DF9055
:1003C000CF90BF90AF909F908F9008952FB7F894E3
:1003D00060916701709168018091690190916A0153
:1003E0002FBF089508950F931F93CF93DF938B0131
:1003F0008330910511F58091400181110BC081E09E
:100400008093400161E089E00E94EC0061E08AE0B5
:100410000E94EC0061E0101611060CF060E089E02B
:100420000E94BD00612F661F6627661F8AE0DF916C
:10043000CF911F910F910C94BD00EC01CC0FDD1FEB
:100440006F3F710509F03CF461308FEF78076CF075
:1004500077FF03C00CC00FEF10E0CB5DDE4F61E013
:1004600089810E94BD00B8010CC001E01FEFCB5D87
:10047000DE4F60E089810E94BD0066277727601B00
:10048000710B8881DF91CF911F910F910C942801FE
:10049000CF93DF93EC01FB018091640190916501A2
:1004A00097FD1DC08091640190916501092E000C9B
:1004B000AA0BBB0B40E051E060E070E09A01AB0199
:1004C000281B390B4A0B5B0BDF010E943E0CBB273C
:1004D00097FDBA95A92F982F872FFC0117C020915F
:1004E000640130916501C901330FAA0BBB0B9C015C
:1004F000AD013F5F4F4F5F4FDE010E943E0CBB27B7
:1005000097FDBA95A92F982F872FEC01BF0180E0A6
:1005100090E00E94F301662777276C1B7D0B81E03A
:1005200090E0DF91CF910C94F3019B01880F991F0C
:10053000880F991FFC01E95FFE4F82819381289FFC
:10054000B001299F700D389F700D11248081918119
:10055000AC01249FC001259F900D349F900D112464
:100560000C9448022F923F924F925F926F927F922B
:100570008F929F92AF92BF92CF92DF92EF92FF92B3
:100580000F931F93CF93DF93CDB7DEB728970FB6A6
:10059000F894DEBF0FBECDBF8C011B012091B000CF
:1005A0002D838091B1008E839091B30098872B01A9
:1005B000770F6608770880910001883021F08F3F1F
:1005C00009F08AC105C0E0E8F0E024912F8372C0F1
:1005D00088E080930001E0E8F0E084918F838F3F12
:1005E00009F47AC1813009F441C038F1823009F050
:1005F00061C01092B0001092B1008091B000826092
:100600008093B0008091B10081608093B100EDE9EA
:10061000F0E0E491F0E0EE0FFF1FE557FF4F85910A
:1006200094919093490180934801E1EBF0E0E491CB
:10063000E0934A0122E02F8321C214BC15BC84B58B
:10064000826084BD85B5816085BDEDE9F0E0E4910F
:10065000F0E0EE0FFF1FE557FF4F85919491E1EB1E
:10066000F0E0E491E09337011F8208C2109280000D
:100670001092810080918100886080938100809138
:100680008100816080938100EDE9F0E0E491F0E089
:10069000EE0FFF1FE557FF4F85919491E1EBF0E0DE
:1006A000E491E093360161E088E00E94EC0091E083
:1006B0009F838AC08F8187FD0FC161E088E00E941F
:1006C000EC008F818D7F09F07FC04801A12CB12CF7
:1006D00060E072E18AE790E0A50194010E94120CAB
:1006E00029833A834B835C8369017A0191E0C91ABB
:1006F000D108E108F1082FEFC216D104E104F1049A
:1007000009F008F44EC060E472E48FE090E0A501C7
:1007100094010E94120C69017A0181E0C81AD10883
:10072000E108F1089F81923009F52FEFC216D1043C
:10073000E104F10409F008F468C160E970ED83E0B8
:1007400090E0A50194010E94120C69017A0181E0F8
:10075000C81AD108E108F1089FEFC916D104E104D5
:10076000F10411F008F0DEC083E027C02FEFC216BD
:10077000D104E104F104B9F0B0F068E478EE81E06E
:1007800090E0A50194010E94120C69017A0181E0B8
:10079000C81AD108E108F1089F81992309F437C1EB
:1007A00000C181E001C082E09F81911106C095B532
:1007B000987F892B85BD44C085E09091B100987FDA
:1007C000892B8093B1003CC04801A12CB12C60E082
:1007D00072E18AE790E0A50194010E94120C690180
:1007E0007A0181E0C81AD108E108F108C114D104E6
:1007F00091E0E906F10488F068E478EE81E090E0A9
:10080000A50194010E94120C69017A0181E0C81AC5
:10081000D108E108F10883E001C081E09F819130B7
:1008200079F490918100987F892B80938100411405
:1008300051046104710449F42FEF3FEFA9012BC06B
:10084000411451046104710469F09801220F331FAF
:10085000D1010E94370C28EE33E040E050E00E94C6
:10086000F00B03C02FEF3FEFA9018F81813099F08A
:10087000823019F1811130C0C7BC20933C01309304
:100880003D0140933E0150933F0180916E00826094
:1008900080936E0021C0D0928900C092880020937E
:1008A00038013093390140933A0150933B018091D4
:1008B0006F00826080936F000FC0C092B3002093DE
:1008C0004B0130934C0140934D0150934E01809168
:1008D0007000826080937000C301B2010E94AC017D
:1008E0009D819093B0002E812093B10088858093E4
:1008F000B30028960FB6F894DEBF0FBECDBFDF91D0
:10090000CF911F910F91FF90EF90DF90CF90BF900C
:10091000AF909F908F907F906F905F904F903F909F
:100920002F90089568E478EE81E090E0A5019401AD
:100930000E94120C69017A0191E0C91AD108E108FC
:10094000F1082FEFC216D104E104F10441F138F1AE
:1009500064E274EF80E090E0A50194010E94120C23
:1009600069017A0181E0C81AD108E108F1089FEF16
:10097000C916D104E104F10409F008F41DCF62E1C5
:100980007AE780E090E0A50194010E94120C6901D1
:100990007A0181E0C81AD108E108F10819C084E0A1
:1009A0000CCF2FEFC216D104E104F10409F008F4D2
:1009B00063C062E17AE780E090E0A50194010E94C3
:1009C000120C69017A0191E0C91AD108E108F10815
:1009D0008FEFC816D104E104F104A9F0A0F08981D9
:1009E0009A81AB81BC812AE0B595A79597958795AB
:1009F0002A95D1F76C017D0121E0C21AD108E108E6
:100A0000F10887E0DACE86E0D8CE82E0D6CE8FEF4E
:100A1000C816D104E104F10469F160F162E17AE7FA
:100A200080E090E0A50194010E94120C69017A0116
:100A300091E0C91AD108E108F1082FEFC216D104DC
:100A4000E104F104A9F0A0F089819A81AB81BC8115
:100A50003AE0B595A795979587953A95D1F76C01AA
:100A60007D0121E0C21AD108E108F10885E09FCE9E
:100A700084E09DCE83E09BCE84E096CE61E088E06A
:100A80000E94EC0022CE6CE271E00C94B202FC01F8
:100A900085819681009749F1A381B4813FB7F8948D
:100AA0009C918281809589238C9385819681019781
:100AB000F1F728E082819C9160FF02C0892B02C07F
:100AC000809589238C93858196810197F1F76695AE
:100AD000215081F79C918281892B8C933FBF858126
:100AE00096810197F1F781E090E008950F931F93AD
:100AF000CF93DF93EFEBF0E08491EBEAF0E0D49159
:100B0000E7E9F0E0C491CC2379F081110E949400D0
:100B1000EC2FF0E0EE0FFF1FEA58FF4FA591B491C4
:100B2000EC91ED23C1E009F4C0E00E948701AB0124
:100B3000BC018091320190913301A0913401B091B8
:100B400035018A019B01081B190B2A0B3B0BD901AC
:100B5000C8010097A140B10568F4809132019091DD
:100B60003301A0913401B09135019A01281B390B52
:100B7000C90102C08FEF9FEF4093320150933301C0
:100B80006093340170933501E0914F014E2F50E096
:100B90004730510508F0B4C0FA01EC5CFF4F0C94EB
:100BA000310CC13009F0ACC08FC1C111A9C088C1DE
:100BB0009C012F5A31092F353140E8F480913101E1
:100BC00080FD15C080912D0190912E01A0912F01E3
:100BD000B0913001880F991FAA1FBB1F81608093BD
:100BE0002D0190932E01A0932F01B093300180919D
:100BF00031018F5F1CC08D5092408F359140F0F4D1
:100C000080912D0190912E01A0912F01B091300182
:100C1000880F991FAA1FBB1F80932D0190932E014F
:100C2000A0932F01B0933001809131018E5F8093AA
:100C30003101809131018E3120F448C1C11144C18C
:100C400072C010924F0140912D0150912E01609180
:100C50002F017091300190912C01852F82958695FE
:100C60008770911104C0837080932C012FC1209153
:100C70002C01837090E030E08217930709F026C1C1
:100C800085E0E6E5F1E0DF011D928A95E9F7842F22
:100C90008770805A80935A01842F86958695869511
:100CA00090E0409744E0880F991F4A95E1F79093B0
:100CB000570180935601852F8F7190E0409754E043
:100CC000880F991F5A95E1F7909359018093580125
:100CD0000E94E60160935B0170935C0180935D016B
:100CE00090935E0182E090E09093550180935401CF
:100CF00061E08DE0DF91CF911F910F910C94BD00C9
:100D000020914F01223069F128F4222361F0213033
:100D100061F0DCC0243009F49AC008F445C02530E5
:100D200009F4D2C0D3C081E0CCC09C0127553A4120
:100D30002339314110F482E0C4C08B5693408F3583
:100D4000914008F0C1C086E080934F0110922D01C0
:100D500010922E0110922F01109230011092310149
:100D6000B5C09C012B523D402B3C384060F41092A2
:100D70002D0110922E0110922F011092300110922D
:100D8000310183E09EC0855996408736944008F033
:100D900097C00E94E60160935B0170935C018093B1
:100DA0005D0190935E018CC0855A91408B319140DA
:100DB00008F08AC080913101803208F446C08091E9
:100DC0002D0190912E01A0912F01B0913001409101
:100DD0002D0150912E0160912F0170913001892FCA
:100DE0009A2FAB2FBB2784279527A627B7279927AC
:100DF000BB278F3F9105AF4FB10509F065C085E076
:100E0000E6E5F1E0DF011D928A95E9F780912D0179
:100E100090912E01A0912F01B0913001A0935A0121
:100E20000E94E60160935B0170935C0180935D0119
:100E300090935E0181E090E090935501809354017E
:100E400061E08DE00E94BD003FC084E03AC023E035
:100E500020934F0140912D0150912E0160912F015F
:100E600070913001769567955795479540932D0180
:100E700050932E0160932F01709330012091310126
:100E80002F5F209331019C01205F34402D3433408B
:100E900090F480912D0190912E01A0912F01B0919D
:100EA0003001B06880932D0190932E01A0932F0103
:100EB000B09330010BC0855A91408B31914030F096
:100EC00085E080934F0102C010924F01DF91CF91D6
:100ED0001F910F910895FF920F931F93CF93DF936C
:100EE0009093650180936401809164019091650104
:100EF000803891054CF08FE790E0909365018093E6
:100F00006401CFEFDFEF02C0C0E0D0E08091640168
:100F10009091650180389F4F44F480E89FEF909353
:100F2000650180936401CFEFDFEF009164011091C0
:100F3000650180E090E00E94DA0B081729F0602F2D
:100F400080E090E00E94E20BCE01DF91CF911F91F3
:100F50000F91FF9008951F920F920FB60F921124D8
:100F60002F933F938F939F93AF93BF93809167018C
:100F700090916801A0916901B0916A013091660178
:100F800023E0230F2D3720F40196A11DB11D05C0CC
:100F900026E8230F0296A11DB11D209366018093C0
:100FA000670190936801A0936901B0936A018091F1
:100FB0006B0190916C01A0916D01B0916E01019651
:100FC000A11DB11D80936B0190936C01A0936D01E5
:100FD000B0936E01BF91AF919F918F913F912F91EF
:100FE0000F900FBE0F901F9018951F920F920FB683
:100FF0000F9211242F933F934F935F936F937F939F
:101000008F939F93AF93BF93EF93FF93E09103016F
:10101000F09104010995FF91EF91BF91AF919F91DC
:101020008F917F916F915F914F913F912F910F9091
:101030000FBE0F901F9018951F920F920FB60F9230
:1010400011242F933F934F935F936F937F938F93CD
:101050009F93AF93BF93EF93FF93E0910101F091C2
:1010600002010995FF91EF91BF91AF919F918F91EF
:101070007F916F915F914F913F912F910F900FBE94
:101080000F901F9018951F920F920FB60F92112478
:101090002F933F934F935F936F937F938F939F9380
:1010A000AF93BF93EF93FF9380914B0190914C01CD
:1010B000A0914D01B0914E01892B8A2B8B2B59F1B8
:1010C00090914A01E0914801F0914901808189277E
:1010D000808380914B0190914C01A0914D01B09182
:1010E0004E01181619061A061B060CF03DC0809119
:1010F0004B0190914C01A0914D01B0914E0101978F
:10110000A109B10980934B0190934C01A0934D012B
:10111000B0934E0129C080910001E0E8F0E0E49135
:101120009FEF90930001E130B9F098F0E230C9F4FC
:10113000909170009D7F9093700091E09093B0002B
:101140009091B100987F94609093B1001092B30099
:1011500008C010926E0005C090916F009D7F909323
:101160006F0060E00E94BD00FF91EF91BF91AF91D1
:101170009F918F917F916F915F914F913F912F91AF
:101180000F900FBE0F901F901895CF93DF9300D054
:1011900000D01F92CDB7DEB7789484B5826084BD4D
:1011A00084B5816084BD85B5826085BD85B581606B
:1011B00085BD80916E00816080936E0010928100E9
:1011C00080918100826080938100809181008160A4
:1011D0008093810080918000816080938000809165
:1011E000B10084608093B1008091B00081608093F1
:1011F000B00080917A00846080937A0080917A00B8
:10120000826080937A0080917A00816080937A0076
:1012100080917A00806880937A001092C10061E02A
:1012200084E00E94EC0061E087E00E94EC0061E055
:101230008CE00E94EC0061E088E00E94EC0061E03C
:101240008DE00E94EC0083E084BD85BD91E0909329
:1012500080009BE0909381008093B00084E08093B5
:10126000B10060E082E00E94EC0086E795E0909398
:10127000020180930101809169008C7F81608093DD
:101280006900E89A10924F0185E0E6E5F1E0DF01A0
:101290001D928A95E9F780E090E00E94DA0B90E0D9
:1012A0009093650180936401809164019091650140
:1012B000803891054CF080916401909165019A9578
:1012C000909365018093640186E091E00E9443055C
:1012D00086E291E00E9443058AE491E00E94430582
:1012E0005AEB252E312C63EA462E512C7CE8672ED2
:1012F000712CE5E78E2E912C80915B0190915C0121
:10130000A0915D01B0915E01892B8A2B8B2B09F492
:1013100067C080915A01803630F44EE6C42ED12C3D
:10132000E12CF12C06C03CE2C32EDD24D394E12C49
:10133000F12C0E94E60100915B0110915C0120916B
:101340005D0130915E01DC01CB01801B910BA20B92
:10135000B30B209163018C159D05AE05BF05D0F43C
:1013600021110EC080915A01882351F0E1E0F0E094
:10137000F0935501E093540161E08DE00E94BD00BF
:1013800085E0E6E5F1E0AFE5B1E001900D928A95E8
:10139000E1F778C0222309F475C085E0AFE5B1E03C
:1013A0001D928A95E9F7E1E0F0E0F0935501E093B2
:1013B000540160E08DE00E94BD0010925B0110922C
:1013C0005C0110925D0110925E010E94E601609343
:1013D000500170935101809352019093530152C078
:1013E0008091500190915101A0915201B09153010F
:1013F000892B8A2B8B2B51F40E94E60160935001BC
:101400007093510180935201909353010E94E60121
:1014100000915001109151012091520130915301DE
:10142000DC01CB01801B910BA20BB30B20915A0165
:10143000222359F08F369105A105B10530F025E042
:10144000E6E5F1E011922A95E9F727E0B695A79530
:10145000979587952A95D1F70097A105B10591F049
:101460008F709927AA27BB270097A105B10511F412
:1014700061E005C00197A105B10521F460E08DE0B0
:101480000E94BD00A0905401B090550110925501EA
:101490001092540185E0EFE5F1E0DE011196019034
:1014A0000D928A95E1F7C980DA80EB80FC801D817E
:1014B000153449F018F1183408F5809164019091C1
:1014C0006501019605C080916401909165010197C5
:1014D000909365018093640180916401909165010E
:1014E0000E946B07892B51F48091640190916501F2
:1014F00066E970E08A5F9E4F0E94B202A114B104B7
:1015000009F42AC1F2E0AF16B10409F051C0B701E5
:101510006C197D09C6018E0D9F1D0E9448021C3169
:1015200009F4D4C010F51D3009F4A6C078F41830C1
:1015300009F4C3C020F4173009F487C007C119307B
:1015400009F48CC01C3009F4A1C000C1163109F4A3
:101550008CC020F4153109F0F9C05CC0183109F4D1
:101560009CC0193109F462C0F1C01A3409F4DAC020
:1015700070F4123409F4C0C020F4103409F0E6C04D
:1015800049C01334B1F1143409F0E0C023C01E3552
:1015900009F48AC038F4123509F4B9C01A3509F4CF
:1015A000A2C0D4C01336B1F0143609F0CFC021C0A8
:1015B0001C3109F48BC028F11A3409F4B3C078F453
:1015C000123409F499C008F4B8C0133491F01434FB
:1015D00009F0B6C06091050170910601B9C01E35D1
:1015E00009F462C008F47BC01336A1F3143609F085
:1015F000A7C060910501709106017195619571090F
:10160000A7C01D30C9F1D8F0163179F150F4153169
:1016100009F096C0609105017091060180E090E0AC
:101620000BC01831D1F1193109F08AC06091050160
:101630007091060183E090E00E9495028DC0183001
:10164000E1F150F4173009F07BC060910501709111
:10165000060181E090E0F0CF1930A9F46091050116
:101660007091060182E090E0E7CF609105017091F2
:10167000060184E090E0E0CF6091050170910601E1
:1016800085E090E0D9CF1C3009F05AC086E091E0A7
:101690000E94430587E490E035C086E291E00E9415
:1016A00043058EE590E02EC08AE491E00E94430558
:1016B00090920601809205014FC08DE591E00E9455
:1016C0004305709206016092050146C088E891E0EA
:1016D0000E94430550920601409205013DC012351B
:1016E000B1F01A3569F588EB91E00E94430530921C
:1016F00006012092050130C08EEE91E00E94430564
:1017000081ED90E0909306018093050125C08BE068
:1017100092E00E944305A8EEB0E0B0930601A093CA
:1017200005011AC08BE492E00E944305EFEFF0E060
:10173000F0930601E09305010FC0103409F46ACF5D
:1017400060E070E080E090E00E94480260E070E0BD
:1017500082E090E00E94F30162E370E080E090E0BC
:101760000E94AC01C9CDCF93DF93C1E4D1E083E205
:1017700091E09983888361E088E00E94BD0061E088
:1017800088E00E94EC00E1EBF0E0E491EA83EDE90F
:10179000F0E0E491F0E0EE0FFF1FE557FF4F859179
:1017A00094919C838B838DE991E09E838D83DF915F
:1017B000CF910895F999FECF92BD81BDF89A9927EE
:1017C00080B50895262FF999FECF1FBA92BD81BD2D
:1017D00020BD0FB6F894FA9AF99A0FBE01960895B3
:1017E000A1E21A2EAA1BBB1BFD010DC0AA1FBB1F25
:1017F000EE1FFF1FA217B307E407F50720F0A21B97
:10180000B30BE40BF50B661F771F881F991F1A9403
:1018100069F760957095809590959B01AC01BD012D
:10182000CF010895052E97FB1EF400940E94290C09
:1018300057FD07D00E94F00B07FC03D04EF40C9428
:10184000290C50954095309521953F4F4F4F5F4F54
:10185000089590958095709561957F4F8F4F9F4F1C
:101860000895EE0FFF1F0590F491E02D09940E945A
:10187000460CB7FF0895821B930B0895B7FF0C9495
:10188000550C0E94550C821B930B0895A29FB0012A
:10189000B39FC001A39F700D811D1124911DB29FA4
:1018A000700D811D1124911D08950E94460CA59F65
:1018B000900DB49F900DA49F800D911D112408954B
:0418C000F894FFCFCA
:1018C400FFF201F201FF000100010000000100012C
:1018D400000000FFFFFFFFFFFF01000100FFFF000A
:0C18E4000000004705050406070B0C007F
:00000001FF
