:100000000C946B000C9409070C9436070C94930025
:100010000C9493000C9493000C9493000C94B30BE9
:100020000C9493000C9493000C9493000C94930004
:100030000C9493000C9493000C9493000C949300F4
:100040000C9463070C9493000C9493000C9493000D
:100050000C9493000C9493000C9493000C949300D4
:100060000C9493000C94930017021B0217021B02BE
:1000700017021B021E02000000080002010000031C
:100080000407000000000000000001020408102026
:10009000408001020408102001020408102004041A
:1000A0000404040404040202020202020303030320
:1000B00003030000000023002600290000000000C8
:1000C000250028002B0000000000240027002A0043
:1000D000020055065E0611241FBECFEFD8E0DEBF3A
:1000E000CDBF11E0A0E0B1E0E8E3F9E102C0059086
:1000F0000D92A832B107D9F721E0A8E2B1E001C022
:100100001D92A337B207E1F710E0C4EDD0E004C0C0
:100110002297FE010E94530CC23DD107C9F70E94ED
:1001200060090C948F0C0C9400006CE271E00C944C
:10013000B5040E94F00486E091E00E94950086E2FA
:1001400091E00E9495008AE491E00C949500CF9391
:10015000DF93CDB7DEB727970FB6F894DEBF0FBE9B
:10016000CDBF8AEB282E312C91ED492E512C2EE556
:10017000622E712C3CE8A32EB12C47E4842E912CE6
:100180000E94BA039F838E830E949504162F2983B1
:100190003A834B835C83E980FA80CB80DC806534D2
:1001A00031F098F0683488F481E090E002C08FEF7D
:1001B0009FEF0E944506892B41F40E94000666E9E4
:1001C00070E08A5F9E4F0E94B5048E819F810097E8
:1001D00009F4E2C0029741F4B6016E197F09C60125
:1001E0008E0D9F1D0E949A051C3109F4A3C0B0F525
:1001F0001D3009F47DC0E8F4183009F492C050F4C1
:10020000173009F0B9C0609100017091010181E0DF
:1002100090E074C0193009F45DC01C3009F0ACC026
:1002200086E091E00E949500909201018092000189
:10023000B3C0163109F455C020F4153109F443C098
:100240009BC0183109F45DC0193109F095C0609167
:1002500000017091010183E090E050C01A3409F46C
:1002600080C060F4123409F46CC018F4103459F1F1
:1002700083C0133401F11434C9F07EC01E3509F473
:1002800049C078F4123509F465C01A3509F074C014
:1002900088EB91E00E9495003092010120920001CC
:1002A0007BC0133619F0143631F066C0609100013E
:1002B000709101016DC06091000170910101719513
:1002C0006195710965C0609100017091010180E044
:1002D00090E014C0609100017091010182E090E013
:1002E0000DC0609100017091010184E090E006C0B2
:1002F000609100017091010185E090E00E94E305AA
:100300004BC086E291E00E949500709201016092DC
:10031000000142C08AE491E00E94950085E790E0E8
:1003200026C08DE591E00E949500B0920101A09257
:10033000000132C088E891E00E94950083EA90E0D5
:1003400016C08EEE91E00E949500509201014092FD
:10035000000122C08BE092E00E94950088EE90E0C0
:1003600006C08BE492E00E9495008FEF90E090939E
:1003700001018093000110C08E819F81029731F0AE
:1003800060E070E080E090E00E949A0560E070E03C
:1003900082E090E00E94480562E370E080E090E037
:1003A0000E94DC07EDCECF92DF92EF92FF920F9387
:1003B0001F93CF93DF9382E00E943609C82F0E94DB
:1003C000B9070091450110914601209147013091F4
:1003D00048016B017C01C01AD10AE20AF30AC11478
:1003E000D10441E0E406F10460F40091450110916C
:1003F000460120914701309148019B01201B310BA0
:1004000002C02FEF3FEF6093450170934601809348
:1004100047019093480140914E0150E0473051050B
:1004200008F0B9C0FA01EC5CFF4F0C94510CC130DC
:1004300009F0B1C094C1C111AEC08DC1C9018F5ABC
:1004400091098F359140E8F480914D0180FD15C0F0
:100450008091490190914A01A0914B01B0914C01CA
:10046000880F991FAA1FBB1F816080934901909339
:100470004A01A0934B01B0934C0180914D018F5FD5
:100480001CC02D5032402F353140F0F4809149018D
:1004900090914A01A0914B01B0914C01880F991F96
:1004A000AA1FBB1F8093490190934A01A0934B015F
:1004B000B0934C0180914D018E5F80934D018091EE
:1004C0004D018E3120F44DC1C11149C177C0109248
:1004D0004E018091490190914A01A0914B01B09148
:1004E0004C0120913001492F4295469547702111CA
:1004F00004C043704093300134C1209130014370F7
:1005000050E030E04217530709F02BC125E0E8E343
:10051000F1E0EF0119922A95E9F7282F2770205A68
:1005200020933C01282F26952695269530E02051D2
:100530003109F4E0220F331FFA95E1F730933901C6
:1005400020933801892F8F7190E04097A4E0880FA5
:10055000991FAA95E1F790933B0180933A010E947D
:10056000AD076093410170934201809343019093E2
:10057000440182E090E0909332018093310161E088
:100580008DE0DF91CF911F910F91FF90EF90DF9061
:10059000CF900C94000980914E01823069F128F4CB
:1005A000882361F0813061F0DCC0843009F49AC0A6
:1005B00008F445C0853009F4D2C0D3C081E0CCC076
:1005C000C90187559A418339914110F482E0C4C032
:1005D0002B5633402F35314008F0C1C086E0809360
:1005E0004E011092490110924A0110924B01109253
:1005F0004C0110924D01B5C0C9018B529D408B3CFE
:10060000984060F41092490110924A0110924B01F7
:1006100010924C0110924D0183E09EC02559364046
:100620002736344008F097C00E94AD07609341011F
:100630007093420180934301909344018CC0255AEA
:1006400031402B31314008F08AC080914D01803219
:1006500008F446C08091490190914A01A0914B0154
:10066000B0914C014091490150914A0160914B0178
:1006700070914C01892F9A2FAB2FBB278427952788
:10068000A627B7279927BB278F3F9105AF4FB10505
:1006900009F065C085E0E8E3F1E0DF011D928A958D
:1006A000E9F78091490190914A01A0914B01B091E5
:1006B0004C01A0933C010E94AD07609341017093EF
:1006C0004201809343019093440181E090E0909334
:1006D00032018093310161E08DE00E9400093FC04A
:1006E00084E03AC083E080934E018091490190916B
:1006F0004A01A0914B01B0914C01B695A7959795F1
:1007000087958093490190934A01A0934B01B09340
:100710004C0180914D018F5F80934D01C901805F35
:1007200094408D34934090F48091490190914A0116
:10073000A0914B01B0914C01B06880934901909316
:100740004A01A0934B01B0934C010BC0255A314094
:100750002B31314030F085E080934E0102C0109281
:100760004E01DF91CF911F910F91FF90EF90DF909D
:10077000CF900895CF92DF92EF92FF920F931F9345
:100780008091410190914201A0914301B0914401B7
:10079000892B8A2B8B2B09F466C080913C01803613
:1007A00038F08CE2C82EDD24D394E12CF12C05C066
:1007B0000EE6C02ED12CE12CF12C0E94AD07009149
:1007C0004101109142012091430130914401601B8D
:1007D000710B820B930B209137016C157D058E05F3
:1007E0009F05D0F421110EC080913C01882351F067
:1007F00081E090E0909332018093310161E08DE0DF
:100800000E94000985E0E8E3F1E0A3E3B1E0019094
:100810000D928A95E1F77AC0222309F477C085E02A
:10082000E3E3F1E0DF011D928A95E9F781E090E0D2
:10083000909332018093310160E08DE00E940009C5
:100840001092410110924201109243011092440112
:100850000E94AD0760933D0170933E0180933F017C
:100860009093400153C080913D0190913E01A09131
:100870003F01B0914001892B8A2B8B2B51F40E94B0
:10088000AD0760933D0170933E0180933F019093CB
:1008900040010E94AD07C0903D01D0903E01E09024
:1008A0003F01F09040016C197D098E099F0920914C
:1008B0003C01222361F06F3671058105910538F006
:1008C00025E0E8E3F1E0DF011D922A95E9F7DC017C
:1008D000CB0117E0B695A795979587951A95D1F70F
:1008E0000097A105B10591F08F709927AA27BB2722
:1008F0000097A105B10511F461E005C00197A105BC
:10090000B10521F460E08DE00E9400098091310181
:100910009091320110923201109231011F910F918A
:10092000FF90EF90DF90CF900895CF93DF9300D0AA
:1009300000D01F92CDB7DEB785E0E3E3F1E0DE0142
:10094000119601900D928A95E1F729813A814B81A8
:100950005C816D8170E080E090E00F900F900F90CF
:100960000F900F90DF91CF9108957F928F929F9279
:10097000AF92BF92CF92DF92EF92FF920F931F93AD
:10098000CF93DF9320EBA22EB12CF501708001EB09
:1009900010E0F8018080C3EBD0E098806B01EE247A
:1009A000D7FCE094FE2CA7019601BC0188E00E94D0
:1009B0006F09C701B6010E94DC07F5017082F801DA
:1009C00080829882DF91CF911F910F91FF90EF90DD
:1009D000DF90CF90BF90AF909F908F907F900895C1
:1009E00061E084E00E94C70861E087E00E94C708D8
:1009F00061E08CE00E94C70861E088E00E94C708BF
:100A000061E08DE00E94C70883E084BD85BD91E070
:100A1000909380009BE0909381008093B00084E0ED
:100A20008093B10060E082E00E94C70841E050E09E
:100A300063ED71E080E00E94E90610924E0185E0CE
:100A4000E8E3F1E0DF011D928A95E9F780E090E0AC
:100A50000E94790C90E09093500180934F01809117
:100A60004F0190915001803891054CF080914F01D9
:100A7000909150019A959093500180934F01089561
:100A800061E089E00E94C70861E08AE00C94C70831
:100A90000F931F93CF93DF93EB0183309105E1F424
:100AA00080912F01811105C081E080932F010E9468
:100AB000400561E01C161D060CF060E089E00E9414
:100AC00000096D2F661F6627661F8AE0DF91CF91B0
:100AD0001F910F910C9400098C01000F111F6F3FA3
:100AE000710509F03CF461308FEF780774F077FFFF
:100AF00003C00DC0CFEFD0E0055E1E4F61E0F801EE
:100B000081810E940009BE010DC0C1E0DFEF055EDA
:100B10001E4F60E0F80181810E9400096627772757
:100B20006C1B7D0BF8018081DF91CF911F910F919C
:100B30000C943F08CF93DF93EC01FB0180914F01B0
:100B40009091500197FD1BC080914F0190915001F1
:100B5000AA2797FDA095BA2F20E031E040E050E0B1
:100B6000281B390B4A0B5B0BDB010E94620CBB2775
:100B700097FDBA95A92F982F872FFC0115C02091BA
:100B80004F0130915001442737FD4095542F3F5F6E
:100B90004F4F5F4FDE010E94620CBB2797FDBA9555
:100BA000A92F982F872FEC01BF0180E090E00E94D1
:100BB0004805662777276C1B7D0B81E090E0DF916D
:100BC000CF910C9448059B01FC01EE0FFF1FEE0F27
:100BD000FF1FED5FFE4F82819381289FB001299F07
:100BE000700D389F700D112480819181AC01249F7C
:100BF000C001259F900D349F900D11240C949A05EF
:100C000080914F01909150010895FF920F931F938F
:100C1000CF93DF939093500180934F0180914F01C8
:100C200090915001803891054CF08FE790E09093BF
:100C3000500180934F01CFEFDFEF02C0C0E0D0E062
:100C400080914F019091500180389F4F44F480E88B
:100C50009FEF9093500180934F01CFEFDFEF009112
:100C60004F011091500180E090E00E94790C08172C
:100C700029F0602F80E090E00E94810CCE01DF918E
:100C8000CF911F910F91FF90089520914F013091C6
:100C90005001280F391F3093500120934F0180914C
:100CA0004F01909150010C94050620E835E240E098
:100CB00050E068E088E291E00C94950688E291E0CB
:100CC0000C94E306FC0185819681892B59F1A3815F
:100CD000B4813FB7F8949C918281809589238C934D
:100CE000858196810197F1F728E082819C9160FFD0
:100CF00003C0982B9C9303C0809589238C93858196
:100D000096810197F1F76695215079F78C91928140
:100D1000892B8C933FBF858196810197F1F781E004
:100D200090E0089580E090E00895EF92FF921F9385
:100D3000CF93DF9300D000D0CDB7DEB77C01162F64
:100D4000A5E2B1E0FC01B183A08361E0812F29839A
:100D50003A834B835C830E94000961E0812F0E94EB
:100D6000C708812F90E0FC01E657FF4FE491D701BF
:100D70001296EC93FC01E256FF4FE491F0E0EE0F87
:100D8000FF1FE454FF4F85919491F701948383836F
:100D900060E079E08DE390E029813A814B815C81CC
:100DA0000E94320C23503109D70116963C932E93A2
:100DB00015970F900F900F900F90DF91CF911F918B
:100DC000FF90EF90089525E231E0FC01318320830C
:100DD00008958230E8F4E82FF0E0EE0FFF1FEF5A9D
:100DE000FE4F71836083813041F0809169008C7F78
:100DF000842B80936900E89A089580916900440FDC
:100E0000551F440F551F837F842B80936900E99AF7
:100E100008951F920F920FB60F9211242F933F93B4
:100E20004F935F936F937F938F939F93AF93BF93F2
:100E3000EF93FF938091510190915201892B29F0FA
:100E4000E0915101F09152010995FF91EF91BF910D
:100E5000AF919F918F917F916F915F914F913F9152
:100E60002F910F900FBE0F901F9018951F920F9209
:100E70000FB60F9211242F933F934F935F936F936D
:100E80007F938F939F93AF93BF93EF93FF93809143
:100E9000530190915401892B29F0E0915301F09175
:100EA00054010995FF91EF91BF91AF919F918F915F
:100EB0007F916F915F914F913F912F910F900FBE56
:100EC0000F901F9018951F920F920FB60F9211243A
:100ED0002F933F938F939F93AF93BF93809156012E
:100EE00090915701A0915801B0915901309155014D
:100EF00023E0230F2D3720F40196A11DB11D05C05D
:100F000026E8230F0296A11DB11D20935501809361
:100F1000560190935701A0935801B09359018091C5
:100F20005A0190915B01A0915C01B0915D01019625
:100F3000A11DB11D80935A0190935B01A0935C01A8
:100F4000B0935D01BF91AF919F918F913F912F9190
:100F50000F900FBE0F901F9018952FB7F8946091C7
:100F600056017091570180915801909159012FBFFE
:100F700008953FB7F89480915A0190915B01A09138
:100F80005C01B0915D0126B5A89B05C02F3F19F00B
:100F90000196A11DB11D3FBF6627782F892F9A2F7B
:100FA000620F711D811D911D42E0660F771F881F22
:100FB000991F4A95D1F70895CF92DF92EF92FF9251
:100FC000CF93DF936B017C010E94B907EB01C11441
:100FD000D104E104F10489F00E940F0C0E94B907CA
:100FE0006C1B7D0B683E734090F381E0C81AD108FA
:100FF000E108F108C851DC4FEACFDF91CF91FF90B3
:10100000EF90DF90CF900895789484B5826084BD8E
:1010100084B5816084BD85B5826085BD85B58160FC
:1010200085BDEEE6F0E0808181608083E1E8F0E05C
:101030001082808182608083808181608083E0E88B
:10104000F0E0808181608083E1EBF0E0808184606A
:101050008083E0EBF0E0808181608083EAE7F0E06C
:1010600080818460808380818260808380818160D0
:1010700080838081806880831092C10008951F93CF
:10108000CF93DF93182FEB0161E00E94C7082097F0
:1010900011F460E004C0CF3FD10539F461E0812F45
:1010A000DF91CF911F910C940009E12FF0E0EA58F5
:1010B000FF4FE491E330F9F048F4E130B9F0E23069
:1010C000A1F584B5806284BDC8BD34C0E730E9F0C5
:1010D000E83019F1E43049F5809180008062809316
:1010E0008000D0938B00C0938A0024C084B58068B0
:1010F00084BDC7BD1FC08091800080688093800040
:10110000D0938900C093880015C08091B00080689A
:101110008093B000C093B3000DC08091B000806296
:101120008093B000C093B40005C0C038D1050CF066
:10113000B5CFAFCFDF91CF911F910895833081F06C
:1011400028F4813099F08230A1F008958730A9F019
:101150008830B9F08430D1F4809180008F7D03C055
:10116000809180008F7780938000089584B58F7779
:1011700002C084B58F7D84BD08958091B0008F77C3
:1011800003C08091B0008F7D8093B0000895CF930D
:10119000DF9390E0FC01E657FF4F2491FC01E256FB
:1011A000FF4F8491882349F190E0880F991FFC013B
:1011B000EA53FF4FA591B49184549F4FFC01C59110
:1011C000D4919FB7611108C0F8948C912095822327
:1011D0008C93888182230AC0623051F4F8948C91F8
:1011E000322F309583238C938881822B888304C08F
:1011F000F8948C91822B8C939FBFDF91CF910895AF
:101200000F931F93CF93DF931F92CDB7DEB7282F95
:1012100030E0F901EA58FF4F8491F901E657FF4F9A
:101220001491F901E256FF4F04910023C9F088237D
:1012300021F069830E949E086981E02FF0E0EE0FA3
:10124000FF1FE454FF4FA591B4919FB7F8948C9180
:10125000611103C01095812301C0812B8C939FBF26
:101260000F90DF91CF911F910F910895CF93DF934E
:10127000282F30E0F901EA58FF4F8491F901E65731
:10128000FF4FD491F901E256FF4FC491CC2391F066
:1012900081110E949E08EC2FF0E0EE0FFF1FEE542C
:1012A000FF4FA591B4912C912D2381E090E021F482
:1012B00080E002C080E090E0DF91CF910895089532
:1012C0000E9404080E945F090E949900C0E0D0E0DB
:1012D0000E94A7002097E1F30E940000F9CF3F92FF
:1012E0004F925F926F927F928F929F92AF92BF9236
:1012F000CF92DF92EF92FF920F931F93CF93DF93E2
:1013000000D000D0CDB7DEB78B0129013A01909112
:101310000201981721F09F3F09F0DAC104C0E0ED07
:10132000F0E0349081C080930201E0EDF0E0E491C0
:10133000EF3F09F4CDC1E13031F1E23009F44BC0A7
:10134000E11171C014BC15BC94B5926094BD95B503
:10135000916095BD282F30E0F901E256FF4FE491EE
:10136000F0E0EE0FFF1FE454FF4F4591549150936E
:101370006E0140936D01F901E657FF4F24912093D0
:101380006C01312C53C0109280001092810090911A
:10139000810098609093810090918100916090937A
:1013A0008100282F30E0F901E256FF4FE491F0E090
:1013B000EE0FFF1FE454FF4F459154915093670186
:1013C00040936601F901E657FF4F24912093650190
:1013D000332433942BC01092B0001092B10090913E
:1013E000B00092609093B0009091B10091609093A2
:1013F000B100282F30E0F901E256FF4FE491F0E010
:10140000EE0FFF1FE454FF4F45915491509360013C
:1014100040935F01F901E657FF4F249120935E014D
:1014200052E0352E03C03E2E37FC52C161E00E94CF
:10143000C7084801A12CB12C832D8D7F09F0C7C0AE
:1014400060E072E18AE790E0A50194010E94320C0D
:1014500029833A834B835C8369017A0181E0C81A4E
:10146000D108E108F1089FEFC916D104E104F104A5
:1014700009F008F49AC060E472E48FE090E0A501FE
:1014800094010E94320C69017A01E1E0CE1AD10880
:10149000E108F108F2E03F1219C08FEFC816D1043D
:1014A000E104F10409F008F48AC060E970ED83E01A
:1014B00090E0A50194010E94320C69017A0191E04B
:1014C000C91AD108E108F10883E001C082E0EFEF1A
:1014D000CE16D104E104F10409F008F467C068E411
:1014E00078EE81E090E0A50194010E94320C690140
:1014F0007A01F1E0CF1AD108E108F1083320E1F0D8
:1015000082E038121BC09FEFC916D104E104F10438
:1015100009F008F4DBC064E274EF80E090E0A5011C
:1015200094010E94320C69017A01E1E0CE1AD108DF
:10153000E108F10885E003C083E001C084E0FFEF2B
:10154000CF16D104E104F10489F180F162E17AE778
:1015500080E090E0A50194010E94320C69017A01BB
:1015600081E0C81AD108E108F108311002C084E016
:1015700001C086E09FEFC916D104E104F104B1F087
:10158000A8F0C980DA80EB80FC809AE0F594E794BB
:10159000D794C7949A95D1F7E1E0CE1AD108E10823
:1015A000F108332031F087E00BC081E0332011F0E7
:1015B00007C085E095B5987F982B95BD38C082E02F
:1015C0009091B100987F982B9093B10030C060E06B
:1015D00072E18AE790E0A50194010E94320C690152
:1015E0007A01F1E0CF1AD108E108F108C114D10461
:1015F00081E0E806F10488F068E478EE81E090E0AC
:10160000A50194010E94320C69017A0191E0C91A86
:10161000D108E108F10893E001C091E0E1E03E1259
:1016200006C080918100887F892B809381004114BE
:1016300051046104710471F0D801AA0FBB1FA3010A
:1016400092010E94570C28EE33E040E050E00E94E7
:10165000100C03C02FEF3FEFA901F1E03F16A1F0FE
:1016600082E0381619F1311033C0C7BC20936F01E6
:1016700030937001409371015093720180916E001C
:10168000826080936E0024C0D0928900C09288004E
:10169000209368013093690140936A0150936B0174
:1016A00080916F00826080936F0012C0C092B3007F
:1016B0002093610130936201409363015093640170
:1016C0008091700082608093700002C084E078CFC7
:1016D0000F900F900F900F90DF91CF911F910F916E
:1016E000FF90EF90DF90CF90BF90AF909F908F9042
:1016F0007F906F905F904F903F900895813039F0C8
:1017000018F0823051F0089510926E000895809183
:101710006F008D7F80936F000895809170008D7FA2
:101720008093700081E08093B0008091B100887F49
:1017300084608093B1001092B3000895CF93C82FB6
:10174000809102018C1307C0E0EDF0E084919FEFDF
:101750009093020101C08FEF0E947E0B60E08C2FFE
:10176000CF910C9400091F920F920FB60F92112483
:101770002F933F934F935F936F937F938F939F9399
:10178000AF93BF93EF93FF938091610190916201BA
:10179000A0916301B0916401892B8A2B8B2B51F1AD
:1017A00090915E01E0915F01F09160018081892755
:1017B00080838091610190916201A0916301B09159
:1017C0006401181619061A061B06C4F480916101FB
:1017D00090916201A0916301B09164010197A10908
:1017E000B1098093610190936201A0936301B0936A
:1017F000640104C0809102010E949E0BFF91EF9151
:10180000BF91AF919F918F917F916F915F914F9118
:101810003F912F910F900FBE0F901F901895089534
:10182000A1E21A2EAA1BBB1BFD010DC0AA1FBB1FE4
:10183000EE1FFF1FA217B307E407F50720F0A21B56
:10184000B30BE40BF50B661F771F881F991F1A94C3
:1018500069F760957095809590959B01AC01BD01ED
:10186000CF010895052E97FB1EF400940E94490CA9
:1018700057FD07D00E94100C07FC03D04EF40C94C7
:10188000490C50954095309521953F4F4F4F5F4FF4
:10189000089590958095709561957F4F8F4F9F4FDC
:1018A0000895EE0FFF1F0590F491E02D09940E941A
:1018B0006A0CA59F900DB49F900DA49F800D911D63
:1018C00011240895B7FF0C94570C0E94570C821BEB
:1018D000930B0895A29FB001B39FC001A39F700D09
:1018E000811D1124911DB29F700D811D1124911D28
:1018F0000895F999FECF92BD81BDF89A992780B5D8
:101900000895262FF999FECF1FBA92BD81BD20BD43
:101910000FB6F894FA9AF99A0FBE0196089510E05E
:10192000C4EDD0E004C0FE010E94530C2296C63DD7
:08193000D107C9F7F894FFCFBD
:10193800FF00FF010001000000010001000000FF9E
:10194800FFFFFFFFFF01000100FFFF050406070B73
:081958000C0000000062060013
:00000001FF
