:100000000C946F000C94CB0C0C94F80C0C9497008F
:100010000C9497000C9497000C9497000C94E013A8
:100020000C9497000C9497000C9497000C9408057E
:100030000C9497000C9497000C9497000C949700E4
:100040000C94250D0C9497000C9483100C94B5100F
:100050000C9497000C9497000C9497000C949700C4
:100060000C94DB030C9497004F0753074F0753077B
:100070004F07530756070000000800020100000365
:100080000407000000000000000001020408102026
:10009000408001020408102001020408102004041A
:1000A0000404040404040202020202020303030320
:1000B00003030000000023002600290000000000C8
:1000C000250028002B0000000000240027002A0043
:1000D0000200E900AE03920BE510FE009B0B112419
:1000E0001FBECFEFD8E0DEBFCDBF11E0A0E0B1E092
:1000F000E0EBF0E302C005900D92A637B107D9F707
:1001000023E0A6E7B1E001C01D92A43BB207E1F7EE
:1001100010E0CAEDD0E004C02297FE010E94D7157E
:10012000C23DD107C9F70E9429110C944B180C94B9
:100130000000FC01E658FE4F80818093DD01818143
:100140008093DE018091DD019091DE010895DC0154
:10015000ED91FC910190F081E02D09946FEF70E03A
:100160008EEF92E00E94A70065E570E08EEF92E0CE
:100170000E94A7008EEF92E00C9486110E942D0A37
:1001800061E08DE00E94DF0E26E040E052EC61E08D
:1001900070E08EEF92E00E94211064EF71E080E049
:1001A00090E00E949E0D60E08DE00E94DF0E62E311
:1001B00070E084EF91E00E94F2096DE071E08EEF53
:1001C00092E00E94841167ED71E08EEF92E00C9452
:1001D0008A11CF93DF9367E171E087ED91E00E9490
:1001E000F114CFEBD1E0CE010E94C405239681E04B
:1001F000C73DD807C1F7DF91CF91089587ED91E012
:100200000C948314EF92FF920F931F93CF93DF937D
:10021000CDB7DEB727970FB6F894DEBF0FBECDBFC0
:100220008EEF92E00E943E0F181619060CF0F2C1F4
:100230008EEF92E00E94570F90917701853561F41F
:1002400091110AC08091AE018F3FE1F481E080936B
:1002500079018093770116C08093AE01992391F0C4
:10026000E0917901E23019F48093780107C0E3301E
:1002700028F090917801915090937801F0E0E65841
:10028000FE4F8083809179018F5F843318F48093CF
:10029000790104C010927901109277018091770161
:1002A000882309F4B7C1809178018111B3C180918D
:1002B0007901843008F4AEC11092770180917E01FB
:1002C000823009F4F8C018F4813041F0A1C18430C3
:1002D00009F49AC1853009F499C19AC120917F012E
:1002E00000917D0110E06FEF70E08EEF92E02F83C0
:1002F0000E94A70065E570E08EEF92E00E94A700E3
:10030000B8018EEF92E00E94A700F09080018F2D3F
:1003100090E02F81223109F447C040F42223B9F044
:100320002E3009F0C3C00E94DD0964C02F3109F4EA
:1003300071C0253209F4A2C02E3109F0B7C060E0C7
:100340008F2D0E94A60E8F2D0E94150F53C067EDB2
:1003500071E0CE0101960E941E15ED80FE8064E0E2
:1003600070E08EEF92E00E94A700B7018EEF92E05E
:100370000E94A70000E010E00E151F0584F4B801EC
:10038000CE0101960E943815682F772767FD70957A
:100390008EEF92E00E94A7000F5F1F4FEDCFCE01BE
:1003A00001960E94831482C067E070E08EEF92E0B5
:1003B0000E94A7000E94CD09BC018EEF92E00E942E
:1003C000A7000E94D309682F8093DD019093DE017E
:1003D0008EEF92E00E94BC0F6091DE018EEF92E002
:1003E0000E94BC0F0E94D809682F8093DD01909372
:1003F000DE0152C0182F61E070E08EEF92E00E94A3
:10040000A700612F772767FD70958EEF92E00E941D
:10041000A7004CC08C01025F1F4F60E0802F0E943C
:10042000A60E802F0E94010EBC01882777FD8095C3
:10043000982F0E943D156093DF017093E001809337
:10044000E1019093E20162E070E08EEF92E00E94A1
:10045000A7006091DF018EEF92E00E94BC0F6091D7
:10046000E0018EEF92E00E94BC0F6091E1018EEFFF
:1004700092E00E94BC0F6091E20114C00E943D0B0B
:100480009093DE018093DD0163E070E08EEF92E0F7
:100490000E94A7006091DD018EEF92E00E94BC0FE8
:1004A0006091DE018EEF92E00E94BC0F8EEF92E031
:1004B0000E948611ADC0F09080010F2D10E0909148
:1004C0007F01923209F477C0C8F49A3049F150F4B0
:1004D000953009F09BC06091810170E0C8010E94D5
:1004E000200B94C09E3131F1913209F08FC0F09011
:1004F0008101EFEAF1E080E090E026C0943209F457
:1005000079C008F465C0963209F477C0973209F0D3
:100510007DC086E090E00E9499000E94820B76C028
:1005200087E090E00E949900BC01C80101970E94F9
:10053000850A6CC061E08F2D0E94A60E609181013A
:100540008F2D0E94DF0E62C021913191201731075B
:1005500081F0232B41F4FC01EE0FFF1FE155FE4F0C
:100560001183008306C001968830910569F780E009
:1005700090E0FC01EE0FFF1FE80FF91FE154FE4F62
:1005800020813181428129833A834B8384EB8F150B
:10059000E8F1CE0101960E94FC06811105C0B80168
:1005A000CE0101960E945E066F2D70E0CE0101968D
:1005B0000E9497062BC088E090E00E9499008C0171
:1005C00086E090E00E949900B8010E94F2091EC0E6
:1005D00080917601811107C08EE190E00E940F0C9E
:1005E00081E0809376016091810170E0C8010E94F2
:1005F000D00B0CC00E94FC0B09C086E090E00E946A
:1006000099000E94420B02C00E942D0A0E94AE0077
:100610001092790127960FB6F894DEBF0FBECDBFBA
:10062000DF91CF911F910F91FF90EF9008958091EE
:10063000120290E020911302821B910908952091EB
:10064000130280911202281750F4E22FF0E0EC5EC2
:10065000FD4F808190E02F5F2093130208958FEF6C
:100660009FEF0895E091130280911202E81730F491
:10067000F0E0EC5EFD4F808190E008958FEF9FEFFA
:1006800008950895CF92DF92EF92FF920F931F93F8
:10069000CF93DF937C01CB018A012091EF012223CC
:1006A00089F0EB016B01C40ED51ECC15DD0569F098
:1006B0006991D701ED91FC910190F081E02DC70186
:1006C0000995F3CF642F0E94B203C801DF91CF9147
:1006D0001F910F91FF90EF90DF90CF900895CF93EF
:1006E000DF931F92CDB7DEB769832091EF012223FC
:1006F000D1F02091F001203240F021E030E0FC0107
:100700003383228380E090E015C08091F101E82FCF
:10071000F0E0EE50FE4F998190838F5F8093F1015E
:100720008093F00105C061E0CE0101960E94B20302
:1007300081E090E00F90DF91CF910895FC0113824A
:10074000128248EE53E060E070E044835583668394
:10075000778385E291E091838083089583EE91E031
:100760000C949E03613298F42091A102243089F404
:1007700060935602FC0188E592E0DC012A2F281BD9
:10078000261718F421912D93F9CF80E0089581E088
:10079000089582E0089585ED8093BC008091BC00AF
:1007A00084FDFCCF1092A102089585EC8093BC00DB
:1007B0001092A10208951F920F920FB60F9211246A
:1007C0002F933F934F935F936F937F938F939F9359
:1007D000AF93BF93EF93FF938091B900887F8036EA
:1007E00009F49CC068F5883209F45BC090F480314C
:1007F00009F454C038F4882309F4F5C0883009F4AA
:100800004DC0F5C0883109F44CC0803209F45DC098
:10081000EEC0803409F468C048F4803309F455C050
:10082000883309F0E4C080933402A8C0803509F40D
:100830004FC0883509F45DC0883409F0D8C0D5C0F0
:10084000883909F4C6C0A8F4883709F467C038F4B9
:10085000883609F463C0803709F460C0C8C088389E
:1008600009F4B7C0803909F45FC0803809F0BFC00F
:100870005BC0803B09F485C038F4803A09F466C057
:10088000883A09F47EC0B3C0803C09F4A6C0883C15
:1008900009F4A3C0883B09F489C0A9C08091A002D3
:1008A00010C09091790280917802981770F5E091CC
:1008B000790281E08E0F80937902F0E0E658FD4FD7
:1008C00080818093BB0085EC85C0809334028DC00D
:1008D000E091790281E08E0F809379028091BB00D4
:1008E000F0E0E658FD4F8083909179028091780284
:1008F0006DC0E091790281E08E0F80937902809142
:10090000BB00F0E0E658FD4F808380919F0281118B
:100910006CC081E080939E0284EA60C083E0809393
:10092000A10210923502CFCF80913502803208F0BB
:1009300050C0E091350281E08E0F809335028091A6
:10094000BB00F0E0EA5CFD4F8083BDCF80913502B3
:10095000803230F4E0913502F0E0EA5CFD4F108225
:100960000E94CB036091350270E0E0919A02F09111
:100970009B0286E392E00995109235020E94D5030E
:1009800036C084E08093A102109257021092560262
:10099000E0919C02F0919D0209958091560281118F
:1009A00005C081E08093560210925802E0915702F0
:1009B00081E08E0F80935702F0E0E85AFD4F80816E
:1009C0008093BB009091570280915602981708F4CB
:1009D0007ACF85E88093BC000AC085EC8093BC0088
:1009E0001092A10204C0109234020E94CB03FF9126
:1009F000EF91BF91AF919F918F917F916F915F9197
:100A00004F913F912F910F900FBE0F901F9018950F
:100A10001F920F920FB60F9211242F933F934F9373
:100A20005F936F937F938F939F93AF93BF93EF9356
:100A3000FF938091A30287FF05C01092850010925A
:100A400084001AC02091A302332727FD309580919E
:100A5000A20290E0281739077CF48091A30299271D
:100A600087FD9095FC01EE0FFF1FE80FF91FEC5575
:100A7000FD4F808186FD15C08091A3028F5F80931A
:100A8000A3022091A302332727FD30958091A20273
:100A900090E028173907BCF48091A3028C305CF1F8
:100AA00012C08091A302992787FD9095FC01EE0F5B
:100AB000FF1FE80FF91FEC55FD4F808160E08F7339
:100AC0000E94DF0ED9CF809184009091850004961A
:100AD00080349C4918F480E49CE905C0809184002E
:100AE00090918500049690938900809388008FEF01
:100AF0008093A30238C020918400309185008091BA
:100B0000A302992787FD9095FC01EE0FFF1FE80FC8
:100B1000F91FEC55FD4F81819281820F931F9093B5
:100B20008900809388008091A302992787FD909582
:100B3000FC01EE0FFF1FE80FF91FEC55FD4F808100
:100B400086FF11C08091A302992787FD9095FC0133
:100B5000EE0FFF1FE80FF91FEC55FD4F808161E09C
:100B60008F730E94DF0EFF91EF91BF91AF919F9124
:100B70008F917F916F915F914F913F912F910F9046
:100B80000FBE0F901F9018952091A2022C30A0F458
:100B900031E0320F3093A202FC012083822F90E0DB
:100BA000FC01EE0FFF1FE80FF91FEC55FD4F88EB1E
:100BB0009BE09283818308952FEFFC0120830895A9
:100BC000DF92EF92FF920F931F93CF93DF93EC018D
:100BD000D62E7A01890188818C3008F066C061E0E8
:100BE0008D2D0E94A60E8881A82FB0E0FD01EE0F8A
:100BF000FF1FEA0FFB1FEC55FD4F2D2D2F7390812A
:100C0000907C922B908360E272E06E197F0977FFEF
:100C100002C06D5F7F4F7595679575956795698380
:100C200040E659E0401B510B57FF02C04D5F5F4F3C
:100C300055954795559547954A836CE00E948815D0
:100C40009CE0899FB001112420E030E0A901460F0B
:100C5000571FFA01EE0FFF1FE40FF51FEC55FD4F74
:100C6000908196FD16C02F5F3F4F2C30310571F7F4
:100C700081110FC01092800082E080938100109259
:100C8000850010928400B19A80916F0082608093F9
:100C90006F00888190E0FC01EE0FFF1FE80FF91F45
:100CA000EC55FD4F8081806480838881DF91CF91F6
:100CB0001F910F91FF90EF90DF90089520E639E0AB
:100CC00040E252E00C94E005FC0180818C3070F52C
:100CD000918128E830E0291B310997FD3395220FD7
:100CE000331F220F331F621773077CF0928128E5B0
:100CF00032E0291B310997FD3395220F331F220F54
:100D0000331F621773070CF49B0122503109220F25
:100D1000331F4FB7F89490E0FC01EE0FFF1FE80F70
:100D2000F91FEC55FD4F328321834FBF08954F9239
:100D30005F926F927F92AF92BF92CF92DF92EF92CB
:100D4000FF920F931F93CF93DF93EC01603282E009
:100D500078070CF040C077FD06C0653B71052CF0AC
:100D600064EB70E002C060E070E0898128E830E068
:100D7000281B310987FD3395220F331F220F331FA4
:100D80005901CC24B7FCC094DC2C882777FD8095D2
:100D9000982F2A8148E552E0421B510927FD5395BF
:100DA000440F551F440F551F2A01662457FC6094B9
:100DB000762C7F926F925F924F9214EBE12EF12C82
:100DC00000E010E020E030E0A9010E943C140F9008
:100DD0000F900F900F90CE01DF91CF911F910F9147
:100DE000FF90EF90DF90CF90BF90AF907F906F908B
:100DF0005F904F900C946406FC01808190E0FC01B0
:100E0000EE0FFF1FE80FF91FEC55FD4F808186FBA9
:100E1000882780F90895CF92DF92EF92FF920F9387
:100E20001F93CF93DF9382E00E94150FC82F0E947B
:100E30007B0D0091E5021091E6022091E7023091CE
:100E4000E8026B017C01C01AD10AE20AF30AC1145C
:100E5000D10441E0E406F10460F40091E502109150
:100E6000E6022091E7023091E8029B01201B310B42
:100E700002C02FEF3FEF6093E5027093E60280938C
:100E8000E7029093E8024091EE0250E047305105AE
:100E900008F0B9C0FA01EC5CFF4F0C94D515C130D5
:100EA00009F0B1C094C1C111AEC08DC1C9018F5A42
:100EB00091098F359140E8F48091ED0280FD15C0D5
:100EC0008091E9029091EA02A091EB02B091EC02CC
:100ED000880F991FAA1FBB1F81608093E90290931E
:100EE000EA02A093EB02B093EC028091ED028F5FD7
:100EF0001CC02D5032402F353140F0F48091E90272
:100F00009091EA02A091EB02B091EC02880F991F38
:100F1000AA1FBB1F8093E9029093EA02A093EB0201
:100F2000B093EC028091ED028E5F8093ED02809190
:100F3000ED028E3120F44DC1C11149C177C010922C
:100F4000EE028091E9029091EA02A091EB02B09149
:100F5000EC022091D002492F42954695477021110D
:100F600004C043704093D00234C12091D00243703A
:100F700050E030E04217530709F02BC125E0E8EDBF
:100F8000F2E0EF0119922A95E9F7282F2770205AED
:100F90002093DC02282F26952695269530E02051B7
:100FA0003109F4E0220F331FFA95E1F73093D902AB
:100FB0002093D802892F8F7190E04097A4E0880F8A
:100FC000991FAA95E1F79093DB028093DA020E94C1
:100FD0006F0D6093E1027093E2028093E3029093BD
:100FE000E40282E090E09093D2028093D10261E02B
:100FF0008DE0DF91CF911F910F91FF90EF90DF90E7
:10100000CF900C94DF0E8091EE02823069F128F4CB
:10101000882361F0813061F0DCC0843009F49AC02B
:1010200008F445C0853009F4D2C0D3C081E0CCC0FB
:10103000C90187559A418339914110F482E0C4C0B7
:101040002B5633402F35314008F0C1C086E08093E5
:10105000EE021092E9021092EA021092EB02109254
:10106000EC021092ED02B5C0C9018B529D408B3C41
:10107000984060F41092E9021092EA021092EB029A
:101080001092EC021092ED0283E09EC0255936408A
:101090002736344008F097C00E946F0D6093E1023C
:1010A0007093E2028093E3029093E4028CC0255A8D
:1010B00031402B31314008F08AC08091ED028032FE
:1010C00008F446C08091E9029091EA02A091EB02F7
:1010D000B091EC024091E9025091EA026091EB027A
:1010E0007091EC02892F9A2FAB2FBB27842795276D
:1010F000A627B7279927BB278F3F9105AF4FB1058B
:1011000009F065C085E0E8EDF2E0DF011D928A9507
:10111000E9F78091E9029091EA02A091EB02B09187
:10112000EC02A093DC020E946F0D6093E1027093C9
:10113000E2028093E3029093E40281E090E09093D6
:10114000D2028093D10261E08DE00E94DF0E3FC0A9
:1011500084E03AC083E08093EE028091E9029091AE
:10116000EA02A091EB02B091EC02B695A795979593
:1011700087958093E9029093EA02A093EB02B093E3
:10118000EC028091ED028F5F8093ED02C901805FD8
:1011900094408D34934090F48091E9029091EA025A
:1011A000A091EB02B091EC02B0688093E9029093B9
:1011B000EA02A093EB02B093EC020BC0255A314037
:1011C0002B31314030F085E08093EE0202C0109266
:1011D000EE02DF91CF911F910F91FF90EF90DF9082
:1011E000CF900895CF92DF92EF92FF920F931F93CB
:1011F0008091E1029091E202A091E302B091E402B9
:10120000892B8A2B8B2B09F466C08091DC028036F7
:1012100038F08CE2C82EDD24D394E12CF12C05C0EB
:101220000EE6C02ED12CE12CF12C0E946F0D009106
:10123000E1021091E2022091E3023091E402601B8E
:10124000710B820B930B2091D7026C157D058E05D7
:101250009F05D0F421110EC08091DC02882351F04B
:1012600081E090E09093D2028093D10261E08DE022
:101270000E94DF0E85E0E8EDF2E0A3EDB2E0019020
:101280000D928A95E1F77AC0222309F477C085E0B0
:10129000E3EDF2E0DF011D928A95E9F781E090E04D
:1012A0009093D2028093D10260E08DE00E94DF0E25
:1012B0001092E1021092E2021092E3021092E40214
:1012C0000E946F0D6093DD027093DE028093DF0257
:1012D0009093E00253C08091DD029091DE02A091D4
:1012E000DF02B091E002892B8A2B8B2B51F40E94F4
:1012F0006F0D6093DD027093DE028093DF029093A6
:10130000E0020E946F0DC090DD02D090DE02E090FE
:10131000DF02F090E0026C197D098E099F0920918F
:10132000DC02222361F06F3671058105910538F0EA
:1013300025E0E8EDF2E0DF011D922A95E9F7DC01F6
:10134000CB0117E0B695A795979587951A95D1F794
:101350000097A105B10591F08F709927AA27BB27A7
:101360000097A105B10511F461E005C00197A10541
:10137000B10521F460E08DE00E94DF0E8091D10282
:101380009091D2021092D2021092D1021F910F912D
:10139000FF90EF90DF90CF9008950E94F208809127
:1013A000D70290E008958091D3029091D4020895DD
:1013B0008091D5029091D60208952091D7028F3F57
:1013C000910531F481E090E021110BC080E0089597
:1013D00030E051E040E02817390709F050E0852F50
:1013E000942F08957F928F929F92AF92BF92CF9247
:1013F000DF92EF92FF920F931F93CF93DF9320EB37
:10140000A22EB12CF501708001EB10E0F801808074
:10141000C3EBD0E098806B01EE24D7FCE094FE2C67
:10142000A7019601BC0188E00E949C11C701B6018A
:101430000E949E0DF5017082F80180829882DF91F2
:10144000CF911F910F91FF90EF90DF90CF90BF90C1
:10145000AF909F908F907F90089561E084E00E940C
:10146000A60E61E087E00E94A60E61E08CE00E947B
:10147000A60E61E088E00E94A60E61E08DE00E9469
:10148000A60E83E084BD85BD91E0909380009BE033
:10149000909381008093B00084E08093B10060E07D
:1014A00082E00E94A60E41E050E06BE077E080E031
:1014B0000E94AB0C1092EE0285E0E8EDF2E0DF0155
:1014C0001D928A95E9F780E090E00E94FE1790E077
:1014D0009093F0028093EF028091EF029091F002DE
:1014E000803891054CF08091EF029091F0029A952E
:1014F0009093F0028093EF02089561E089E00E94EA
:10150000A60E61E08AE00C94A60E0F931F93CF9372
:10151000DF93EB0183309105E1F48091CF028111DB
:1015200005C081E08093CF020E947D0A61E01C1615
:101530001D060CF060E089E00E94DF0E6D2F661F33
:101540006627661F8AE0DF91CF911F910F910C945F
:10155000DF0E8C01000F111F6F3F710509F03CF485
:1015600061308FEF780774F077FF03C00DC0CFEFC5
:10157000D0E0075B1E4F61E0F80181810E94DF0E21
:10158000BE010DC0C1E0DFEF075B1E4F60E0F80158
:1015900081810E94DF0E662777276C1B7D0BF80187
:1015A0008081DF91CF911F910F910C941E0ECF93EC
:1015B000DF93EC01FB018091EF029091F00297FD27
:1015C0001BC08091EF029091F002AA2797FDA09591
:1015D000BA2F20E031E040E050E0281B390B4A0BE5
:1015E0005B0BDB010E94E615BB2797FDBA95A92F7F
:1015F000982F872FFC0115C02091EF023091F00247
:10160000442737FD4095542F3F5F4F4F5F4FDE011A
:101610000E94E615BB2797FDBA95A92F982F872F13
:10162000EC01BF0180E090E00E94850A66277727E1
:101630006C1B7D0B81E090E0DF91CF910C94850ACB
:101640009B01FC01EE0FFF1FEE0FFF1FEF5CFE4F33
:1016500082819381289FB001299F700D389F700D62
:10166000112480819181AC01249FC001259F900DA0
:10167000349F900D11240C94D70A8091EF02909121
:10168000F0020895FF920F931F93CF93DF939093EF
:10169000F0028093EF028091EF029091F002803887
:1016A00091054CF08FE790E09093F0028093EF0269
:1016B000CFEFDFEF02C0C0E0D0E08091EF02909169
:1016C000F00280389F4F44F480E89FEF9093F0023F
:1016D0008093EF02CFEFDFEF0091EF021091F00265
:1016E00080E090E00E94FE17081729F0602F80E04C
:1016F00090E00E940618CE01DF91CF911F910F91CB
:10170000FF9008952091EF023091F002280F391FC9
:101710003093F0022093EF028091EF029091F0025B
:101720000C94420B20E835E240E050E068E088ECA1
:1017300092E00C94570C88EC92E00C94A50CEF927C
:10174000FF920F931F93CF93DF938C017B016EE782
:1017500088EC92E00E94240C61E06E0D88EC92E02F
:101760000E94240CE801CE01801B910B8E159F0571
:1017700034F4699188EC92E00E94240CF4CF6FEE6F
:1017800088EC92E00E94240C68EC70E080E090E02D
:10179000DF91CF911F910F91FF90EF900C949E0DD0
:1017A0001F93CF93DF9300D000D01F92CDB7DEB749
:1017B000182F60930A0181E18C83672B11F082E07E
:1017C00001C084E08D8362E070E0CE0104960E9447
:1017D0009F0B83E089831A821B8363E070E0CE0154
:1017E00001960E949F0B0F900F900F900F900F90FB
:1017F000DF91CF911F910895CF93DF931F92CDB7C3
:10180000DEB710920A018AE0898361E070E0CE01C0
:1018100001960E949F0B0F90DF91CF910895CF9377
:10182000DF9300D0CDB7DEB796E099838A8362E07C
:1018300070E0CE0101960E949F0B0E94FC0B0F905E
:101840000F90DF91CF910895FC0185819681892BBE
:1018500059F1A381B4813FB7F8949C91828180951E
:1018600089238C93858196810197F1F728E0828105
:101870009C9160FF03C0982B9C9303C080958923A3
:101880008C93858196810197F1F76695215079F7C0
:101890008C919281892B8C933FBF85819681019792
:1018A000F1F781E090E0089580E090E00895EF92F4
:1018B000FF921F93CF93DF9300D000D0CDB7DEB758
:1018C0007C01162FA3E5B1E0FC01B183A08361E0A8
:1018D000812F29833A834B835C830E94DF0E61E072
:1018E000812F0E94A60E812F90E0FC01E657FF4F4A
:1018F000E491D7011296EC93FC01E256FF4FE4917C
:10190000F0E0EE0FFF1FE454FF4F85919491F70133
:101910009483838360E079E08DE390E029813A81CC
:101920004B815C810E94B61523503109D701169670
:101930003C932E9315970F900F900F900F90DF917F
:10194000CF911F91FF90EF90089523E531E0FC01C6
:101950003183208308958230E8F4E82FF0E0EE0F21
:10196000FF1FEF50FD4F71836083813041F0809104
:1019700069008C7F842B80936900E89A0895809198
:101980006900440F551F440F551F837F842B80939C
:101990006900E99A08951F920F920FB60F921124D1
:1019A0002F933F934F935F936F937F938F939F9367
:1019B000AF93BF93EF93FF938091F1029091F20266
:1019C000892B29F0E091F102F091F2020995FF9143
:1019D000EF91BF91AF919F918F917F916F915F91A7
:1019E0004F913F912F910F900FBE0F901F90189520
:1019F0001F920F920FB60F9211242F933F934F9384
:101A00005F936F937F938F939F93AF93BF93EF9366
:101A1000FF938091F3029091F402892B29F0E091D9
:101A2000F302F091F4020995FF91EF91BF91AF910C
:101A30009F918F917F916F915F914F913F912F91E6
:101A40000F900FBE0F901F9018951F920F920FB618
:101A50000F9211242F933F938F939F93AF93BF9334
:101A60008091F6029091F702A091F802B091F902EC
:101A70003091F50223E0230F2D3720F40196A11DAC
:101A8000B11D05C026E8230F0296A11DB11D2093AC
:101A9000F5028093F6029093F702A093F802B093B8
:101AA000F9028091FA029091FB02A091FC02B091A0
:101AB000FD020196A11DB11D8093FA029093FB02D5
:101AC000A093FC02B093FD02BF91AF919F918F91C3
:101AD0003F912F910F900FBE0F901F9018952FB729
:101AE000F8946091F6027091F7028091F80290915B
:101AF000F9022FBF08953FB7F8948091FA029091B0
:101B0000FB02A091FC02B091FD0226B5A89B05C086
:101B10002F3F19F00196A11DB11D3FBF6627782FF9
:101B2000892F9A2F620F711D811D911D42E0660F52
:101B3000771F881F991F4A95D1F70895CF92DF929A
:101B4000EF92FF92CF93DF936B017C010E947B0D9C
:101B5000EB01C114D104E104F10489F00E943A15AB
:101B60000E947B0D6C1B7D0B683E734090F381E0FF
:101B7000C81AD108E108F108C851DC4FEACFDF915B
:101B8000CF91FF90EF90DF90CF900895789484B537
:101B9000826084BD84B5816084BD85B5826085BD69
:101BA00085B5816085BDEEE6F0E08081816080834F
:101BB000E1E8F0E010828081826080838081816032
:101BC0008083E0E8F0E0808181608083E1EBF0E0F9
:101BD000808184608083E0EBF0E08081816080839D
:101BE000EAE7F0E080818460808380818260808386
:101BF0008081816080838081806880831092C100B1
:101C000008958E3008F08E50877020910B0190E47B
:101C1000299F90011124822B80937C0080917A006F
:101C2000806480937A0080917A0086FDFCCF809159
:101C300078002091790090E0922B08951F93CF9324
:101C4000DF93182FEB0161E00E94A60E209711F49C
:101C500060E004C0CF3FD10539F461E0812FDF910E
:101C6000CF911F910C94DF0EE12FF0E0EA58FF4F67
:101C7000E491E330F9F048F4E130B9F0E230A1F555
:101C800084B5806284BDC8BD34C0E730E9F0E83077
:101C900019F1E43049F580918000806280938000E2
:101CA000D0938B00C0938A0024C084B5806884BD23
:101CB000C7BD1FC080918000806880938000D09352
:101CC0008900C093880015C08091B000806880931F
:101CD000B000C093B3000DC08091B00080628093CB
:101CE000B000C093B40005C0C038D1050CF0B5CF2A
:101CF000AFCFDF91CF911F910895833081F028F409
:101D0000813099F08230A1F008958730A9F08830B1
:101D1000B9F08430D1F4809180008F7D03C0809130
:101D200080008F7780938000089584B58F7702C0FC
:101D300084B58F7D84BD08958091B0008F7703C0F6
:101D40008091B0008F7D8093B0000895CF93DF9392
:101D500090E0FC01E657FF4F2491FC01E256FF4F53
:101D60008491882349F190E0880F991FFC01EA5380
:101D7000FF4FA591B49184549F4FFC01C591D4911C
:101D80009FB7611108C0F8948C91209582238C93A1
:101D9000888182230AC0623051F4F8948C91322FEA
:101DA000309583238C938881822B888304C0F89498
:101DB0008C91822B8C939FBFDF91CF9108950F93CD
:101DC0001F93CF93DF931F92CDB7DEB7282F30E05C
:101DD000F901EA58FF4F8491F901E657FF4F14913A
:101DE000F901E256FF4F04910023C9F0882321F046
:101DF00069830E947D0E6981E02FF0E0EE0FFF1FE6
:101E0000E454FF4FA591B4919FB7F8948C91611160
:101E100003C01095812301C0812B8C939FBF0F902D
:101E2000DF91CF911F910F910895CF93DF93282FCA
:101E300030E0F901EA58FF4F8491F901E657FF4F6E
:101E4000D491F901E256FF4FC491CC2391F0811156
:101E50000E947D0EEC2FF0E0EE0FFF1FEE54FF4FBF
:101E6000A591B4912C912D2381E090E021F480E0A4
:101E700002C080E090E0DF91CF910895FC01818D58
:101E8000228D90E0805C9F4F821B91098F73992770
:101E90000895FC01918D828D981731F0828DE80FA5
:101EA000F11D858D90E008958FEF9FEF0895FC015F
:101EB000918D828D981761F0828DDF01A80FB11D81
:101EC0005D968C91928D9F5F9F73928F90E00895A5
:101ED0008FEF9FEF08958BED90E1892B49F080E023
:101EE00090E0892B29F00E94DB1081110C940000F6
:101EF0000895FC01848DDF01A80FB11DA35ABF4FC7
:101F00002C91848D90E001968F739927848FA689F8
:101F1000B7892C93A089B1898C9180648C93938D1F
:101F2000848D981306C00288F389E02D80818F7D0F
:101F300080830895CF93DF93EC01888D8823C9F0C7
:101F4000EA89FB89808185FD05C0A889B9898C91C2
:101F500086FD0FC00FB607FCF5CF808185FFF2CF5D
:101F6000A889B9898C9185FFEDCFCE010E94790FA8
:101F7000E7CFDF91CF910895CF92DF92FF920F9339
:101F80001F93CF93DF931F92CDB7DEB76C0181E033
:101F9000D60158968C9358975B969C915B975C966C
:101FA0008C915C97981307C05096ED91FC915197D6
:101FB000808185FD2EC0F601038D10E00F5F1F4F5D
:101FC0000F731127F02EF601848DF81211C00FB691
:101FD00007FCF9CFD6015096ED91FC915197808185
:101FE00085FFF1CFC60169830E94790F6981EBCF2C
:101FF000838DE80FF11DE35AFF4F6083D6015B9696
:102000000C935B975296ED91FC915397808180627F
:102010000CC0D6015696ED91FC915797608350966F
:10202000ED91FC91519780818064808381E090E004
:102030000F90DF91CF911F910F91FF90DF90CF9084
:102040000895BF92CF92DF92EF92FF92CF93DF93EA
:10205000EC016A017B01B22EE889F98982E0808374
:10206000411581EE580761057105A1F060E079E046
:102070008DE390E0A70196010E949415215031094B
:10208000410951095695479537952795211580E1C6
:10209000380798F0E889F989108260E874E88EE1E1
:1020A00090E0A70196010E94941521503109410941
:1020B00051095695479537952795EC85FD853083D1
:1020C000EE85FF852083188EEC89FD89B082EA8930
:1020D000FB89808180618083EA89FB8980818860B7
:1020E0008083EA89FB89808180688083EA89FB8913
:1020F00080818F7D8083DF91CF91FF90EF90DF9083
:10210000CF90BF9008951F920F920FB60F92112497
:102110002F938F939F93EF93FF93E0910E03F09192
:102120000F038081E0911403F091150382FD12C02A
:102130009081809117038F5F8F732091180382170E
:1021400051F0E0911703F0E0E250FD4F958F80933E
:10215000170301C08081FF91EF919F918F912F9183
:102160000F900FBE0F901F9018951F920F920FB6F1
:102170000F9211242F933F934F935F936F937F930D
:102180008F939F93AF93BF93EF93FF938EEF92E064
:102190000E94790FFF91EF91BF91AF919F918F9125
:1021A0007F916F915F914F913F912F910F900FBE53
:1021B0000F901F9018958EEF92E00E943E0F21E045
:1021C000892B09F420E0822F0895109201031092C8
:1021D000000388EE93E0A0E0B0E0809302039093C8
:1021E0000303A0930403B093050389E591E0909362
:1021F000FF028093FE0285EC90E090930B038093A6
:102200000A0384EC90E090930D0380930C0380EC20
:1022100090E090930F0380930E0381EC90E09093F5
:1022200011038093100382EC90E09093130380934A
:10223000120386EC90E090931503809314031092A0
:102240001703109218031092190310921A0308959D
:1022500008950E94C60D0E9428110E94BE00CBE680
:10226000DFE00E9402012097E1F30E946B0FF9CF9B
:10227000CF92DF92EF92FF920F931F93CF93DF9352
:102280006C017A01EB01E60EF71E00E010E0CE15BE
:10229000DF0561F06991D601ED91FC910190F0812B
:1022A000E02DC6010995080F191FF1CFC801DF9174
:1022B000CF911F910F91FF90EF90DF90CF900895F5
:1022C0006115710581F0DB010D900020E9F7AD018A
:1022D00041505109461B570BDC01ED91FC910280E6
:1022E000F381E02D099480E090E00895DC01ED9108
:1022F000FC91DB0114964D915C9115976D917C9149
:102300000280F381E02D09940C94601165E671E080
:102310000C9460110F931F93CF93DF93EC010E94F5
:1023200076118C01CE010E948611800F911FDF91E2
:10233000CF911F910F9108953F924F925F926F92AC
:102340007F928F929F92AF92BF92CF92DF92EF9245
:10235000FF920F931F93CF93DF9300D000D0CDB7A0
:10236000DEB78B0129013A0190910C01981721F0F9
:102370009F3F09F0DAC104C0E0EDF0E0349081C085
:1023800080930C01E0EDF0E0E491EF3F09F4CDC162
:10239000E13031F1E23009F44BC0E11171C014BCFD
:1023A00015BC94B5926094BD95B5916095BD282FEC
:1023B00030E0F901E256FF4FE491F0E0EE0FFF1F2D
:1023C000E454FF4F459154915093AB034093AA03BB
:1023D000F901E657FF4F24912093A903312C53C0F4
:1023E00010928000109281009091810098609093EB
:1023F000810090918100916090938100282F30E0BE
:10240000F901E256FF4FE491F0E0EE0FFF1FE454B4
:10241000FF4F459154915093A4034093A303F901B6
:10242000E657FF4F24912093A203332433942BC00B
:102430001092B0001092B1009091B0009260909311
:10244000B0009091B10091609093B100282F30E0DE
:10245000F901E256FF4FE491F0E0EE0FFF1FE45464
:10246000FF4F4591549150939D0340939C03F90174
:10247000E657FF4F249120939B0352E0352E03C073
:102480003E2E37FC52C161E00E94A60E4801A12CED
:10249000B12C832D8D7F09F0C7C060E072E18AE71F
:1024A00090E0A50194010E94B61529833A834B83DD
:1024B0005C8369017A0181E0C81AD108E108F1085A
:1024C0009FEFC916D104E104F10409F008F49AC0A1
:1024D00060E472E48FE090E0A50194010E94B615DB
:1024E00069017A01E1E0CE1AD108E108F108F2E0D1
:1024F0003F1219C08FEFC816D104E104F10409F0AE
:1025000008F48AC060E970ED83E090E0A5019401D1
:102510000E94B61569017A0191E0C91AD108E10853
:10252000F10883E001C082E0EFEFCE16D104E104B0
:10253000F10409F008F467C068E478EE81E090E007
:10254000A50194010E94B61569017A01F1E0CF1A44
:10255000D108E108F1083320E1F082E038121BC015
:102560009FEFC916D104E104F10409F008F4DBC0BF
:1025700064E274EF80E090E0A50194010E94B6153A
:1025800069017A01E1E0CE1AD108E108F10885E09D
:1025900003C083E001C084E0FFEFCF16D104E10463
:1025A000F10489F180F162E17AE780E090E0A50131
:1025B00094010E94B61569017A0181E0C81AD10818
:1025C000E108F108311002C084E001C086E09FEF0D
:1025D000C916D104E104F104B1F0A8F0C980DA8091
:1025E000EB80FC809AE0F594E794D794C7949A9591
:1025F000D1F7E1E0CE1AD108E108F108332031F03B
:1026000087E00BC081E0332011F007C085E095B56D
:10261000987F982B95BD38C082E09091B100987F4B
:10262000982B9093B10030C060E072E18AE790E0AF
:10263000A50194010E94B61569017A01F1E0CF1A53
:10264000D108E108F108C114D10481E0E806F104E1
:1026500088F068E478EE81E090E0A50194010E94A2
:10266000B61569017A0191E0C91AD108E108F108AB
:1026700093E001C091E0E1E03E1206C0809181004C
:10268000887F892B80938100411451046104710477
:1026900071F0D801AA0FBB1FA30192010E94DB15A4
:1026A00028EE33E040E050E00E94941503C02FEF85
:1026B0003FEFA901F1E03F16A1F082E0381619F1D1
:1026C000311033C0C7BC2093AC033093AD034093AB
:1026D000AE035093AF0380916E00826080936E00D2
:1026E00024C0D0928900C09288002093A503309323
:1026F000A6034093A7035093A80380916F008260C4
:1027000080936F0012C0C092B30020939E03309359
:102710009F034093A0035093A103809170008260B7
:102720008093700002C084E078CF0F900F900F90DC
:102730000F90DF91CF911F910F91FF90EF90DF905D
:10274000CF90BF90AF909F908F907F906F905F9051
:102750004F903F900895813039F018F0823051F059
:10276000089510926E00089580916F008D7F809380
:102770006F000895809170008D7F8093700081E0DC
:102780008093B0008091B100887F84608093B10015
:102790001092B3000895CF93C82F80910C018C1331
:1027A00007C0E0EDF0E084919FEF90930C0101C031
:1027B0008FEF0E94AB1360E08C2FCF910C94DF0E53
:1027C0001F920F920FB60F9211242F933F934F93A6
:1027D0005F936F937F938F939F93AF93BF93EF9389
:1027E000FF9380919E0390919F03A091A003B091CD
:1027F000A103892B8A2B8B2B51F190919B03E091A4
:102800009C03F0919D0380818927808380919E03A2
:1028100090919F03A091A003B091A10318161906EF
:102820001A061B06C4F480919E0390919F03A09109
:10283000A003B091A1030197A109B10980939E0360
:1028400090939F03A093A003B093A10304C0809131
:102850000C010E94CB13FF91EF91BF91AF919F911B
:102860008F917F916F915F914F913F912F910F9039
:102870000FBE0F901F9018954F925F926F927F92AC
:10288000AF92BF92CF92DF92EF92FF920F931F937E
:10289000CF93DF93CDB7DEB729013A01621B730BEB
:1028A000840B950B29893A894B895C892A193B0944
:1028B0004C095D09298B3A8B4B8B5C8B9B01AC01DE
:1028C00069897A898B899C890E947815E418F508B2
:1028D00006091709A80197010E94B6152A0D3B1D8C
:1028E0004C1D5D1DCA01B901DF91CF911F910F9160
:1028F000FF90EF90DF90CF90BF90AF907F906F9060
:102900005F904F900895FC01808191810C94951601
:10291000CF93DF93EC0188819981009711F00E9499
:102920009516198218821D821C821B821A82DF91E1
:10293000CF9108950F931F93CF93DF93EC018B01F9
:102940006F5F7F4F888199810E942417009731F033
:10295000998388831B830A8381E001C080E0DF9133
:10296000CF911F910F910895CF93DF93EC01888150
:102970009981892B29F08A819B818617970760F4BA
:10298000CE010E949A14882341F08C819D81892B6D
:1029900019F4E881F981108281E0DF91CF910895E7
:1029A000EF92FF920F931F93CF93DF93EC017B0184
:1029B0008A01BA010E94B414811104C0CE010E94A0
:1029C000881407C01D830C83B701888199810E94F8
:1029D000F717CE01DF91CF911F910F91FF90EF90EC
:1029E0000895FC01118210821382128215821482D2
:1029F0006115710559F0FB0101900020E9F7AF0165
:102A000041505109461B570B0C94D0140895CF9395
:102A1000DF93EC01FB018617970761F060817181FC
:102A20006115710529F0448155810E94D01402C0BE
:102A30000E948814CE01DF91CF910895FC0111828C
:102A4000108213821282158214820C940715FC01E5
:102A5000248135816217730748F480819181009742
:102A600029F0FC01E60FF71F8081089580E00895AA
:102A70000C9427150895E89409C097FB3EF49095AF
:102A80008095709561957F4F8F4F9F4F9923A9F047
:102A9000F92F96E9BB279395F695879577956795D6
:102AA000B795F111F8CFFAF4BB0F11F460FF1BC01A
:102AB0006F5F7F4F8F4F9F4F16C0882311F096E9AD
:102AC00011C0772321F09EE8872F762F05C066235B
:102AD00071F096E8862F70E060E02AF09A95660F14
:102AE000771F881FDAF7880F9695879597F90895CD
:102AF000DB018F939F930E94DB15BF91AF91A29F43
:102B0000800D911DA39F900DB29F900D11240895EB
:102B1000991B79E004C0991F961708F0961B881F2F
:102B20007A95C9F780950895A1E21A2EAA1BBB1BBE
:102B3000FD010DC0AA1FBB1FEE1FFF1FA217B30789
:102B4000E407F50720F0A21BB30BE40BF50B661F9F
:102B5000771F881F991F1A9469F760957095809563
:102B600090959B01AC01BD01CF010895052E97FB07
:102B70001EF400940E94CD1557FD07D00E949415B5
:102B800007FC03D04EF40C94CD155095409530952C
:102B900021953F4F4F4F5F4F0895909580957095C9
:102BA00061957F4F8F4F9F4F0895EE0FFF1F059048
:102BB000F491E02D09940E94EE15A59F900DB49F0D
:102BC000900DA49F800D911D11240895B7FF0C94C2
:102BD000DB150E94DB15821B930B0895A29FB001A9
:102BE000B39FC001A39F700D811D1124911DB29F41
:102BF000700D811D1124911D0895CF93DF938230B4
:102C0000910510F482E090E0E091B203F091B303FB
:102C100020E030E0A0E0B0E0309739F14081518110
:102C200048175907B8F04817590771F48281938102
:102C3000109729F013969C938E9312972CC0909323
:102C4000B3038093B20327C02115310531F0421739
:102C5000530718F0A901DB0101C0EF019A01BD0182
:102C6000DF010280F381E02DD7CF21153105F9F086
:102C7000281B390B2430310580F48A819B81611532
:102C8000710521F0FB019383828304C09093B30309
:102C90008093B203FE01329644C0FE01E20FF31F9F
:102CA0008193919322503109398328833AC020912E
:102CB000B0033091B103232B41F4209102013091F4
:102CC00003013093B1032093B003209100013091B0
:102CD00001012115310541F42DB73EB740910401A2
:102CE00050910501241B350BE091B003F091B10325
:102CF000E217F307A0F42E1B3F0B2817390778F0D3
:102D0000AC014E5F5F4F2417350748F04E0F5F1F31
:102D10005093B1034093B0038193919302C0E0E0DC
:102D2000F0E0CF01DF91CF910895CF93DF9300972B
:102D300009F487C0FC01329713821282C091B2035A
:102D4000D091B303209781F420813181280F391F5E
:102D50008091B0039091B1038217930779F5F093B6
:102D6000B103E093B0036DC0DE0120E030E0AE17A8
:102D7000BF0750F412964D915C9113979D01411538
:102D8000510509F1DA01F3CFB383A2834081518168
:102D9000840F951F8A179B0771F48D919C91119751
:102DA000840F951F02969183808312968D919C913A
:102DB0001397938382832115310529F4F093B3038C
:102DC000E093B2033EC0D9011396FC93EE931297A1
:102DD0004D915D91A40FB51FEA17FB0779F480812F
:102DE0009181840F951F0296D90111969C938E9321
:102DF0008281938113969C938E931297E0E0F0E08A
:102E00008A819B81009719F0FE01EC01F9CFCE0178
:102E1000029628813981820F931F2091B00330914F
:102E2000B1032817390769F4309729F41092B303D6
:102E30001092B20302C013821282D093B103C093E6
:102E4000B003DF91CF910895A0E0B0E0EAE2F7E1AE
:102E50000C941818EC01CB01209719F40E94FD1571
:102E6000B8C0FE01E60FF71F9E0122503109E2179C
:102E7000F30708F4ACC0D9010D911C911197061706
:102E80001707B8F00530110508F49FC0A801445099
:102E900051094617570708F498C002501109061B3C
:102EA000170B019311936D937C93CF010E9495169C
:102EB0008CC05B01A01AB10A4E01800E911EA09138
:102EC000B203B091B303612C712C60E070E01097F5
:102ED00009F449C0A815B905C9F5ED90FC90119702
:102EE000670142E0C40ED11CCA14DB0478F147012B
:102EF0008A189B08640142E0C40ED11C1296BC9053
:102F000012971396AC91B5E0CB16D10440F0B28283
:102F1000A38391828082D9018D939C9309C00E5F17
:102F20001F4F0E0D1F1DF90111830083EB2DFA2F8A
:102F30006115710531F0DB011396FC93EE93129746
:102F400044C0F093B303E093B2033FC06D917C9112
:102F500011976616770608F43B01BD0112960D9095
:102F6000BC91A02DB4CF6091B0037091B1036815EE
:102F70007905E9F468167906D0F440910001509182
:102F800001014115510541F44DB75EB7609104014F
:102F900070910501461B570BE417F507C0F4F09339
:102FA000B103E093B003F901918380830EC00E94C6
:102FB000FD157C01009759F0A801BE010E94EE1793
:102FC000CE010E949516C70104C0CE0102C080E068
:102FD00090E0CDB7DEB7EEE00C943418FB01DC01D5
:102FE00002C001900D9241505040D8F70895FB0166
:102FF000DC0101900D920020E1F70895F999FECFD0
:1030000092BD81BDF89A992780B50895262FF99928
:10301000FECF1FBA92BD81BD20BD0FB6F894FA9ABB
:10302000F99A0FBE019608952F923F924F925F92A8
:103030006F927F928F929F92AF92BF92CF92DF92C8
:10304000EF92FF920F931F93CF93DF93CDB7DEB72D
:10305000CA1BDB0B0FB6F894DEBF0FBECDBF0994C1
:103060002A88398848885F846E847D848C849B8418
:10307000AA84B984C884DF80EE80FD800C811B8126
:10308000AA81B981CE0FD11D0FB6F894DEBF0FBE55
:10309000CDBFED01089510E0CAEDD0E004C0FE01FF
:1030A0000E94D7152296CE3DD107C9F7F894FFCFDD
:1030B0000000B4038000010000000101FF566572AA
:1030C00073696F6E3A200030362E30312E31303633
:1030D00000000000006F03420317031F0332034187
:1030E00003010001000000010001000000FFFFFFDC
:1030F000FFFFFF01000100FFFF050406070B0C00A6
:10310000000000240C00000000BC0F38113E0F57D7
:103110000F490F9A0F0D0A006E616E00696E66000E
:063120006F7666002E0030
:00000001FF
